{
  "address": "0xdf457d319AB510A336EAf5c2a0716877dCAce585",
  "abi": [
    {
      "inputs": [],
      "stateMutability": "nonpayable",
      "type": "constructor"
    },
    {
      "inputs": [],
      "name": "CURRENCY_ETH",
      "outputs": [
        {
          "internalType": "address",
          "name": "",
          "type": "address"
        }
      ],
      "stateMutability": "view",
      "type": "function"
    },
    {
      "inputs": [
        {
          "components": [
            {
              "internalType": "address payable",
              "name": "shop",
              "type": "address"
            },
            {
              "internalType": "uint32[]",
              "name": "amounts",
              "type": "uint32[]"
            },
            {
              "internalType": "uint256[]",
              "name": "prices",
              "type": "uint256[]"
            },
            {
              "internalType": "uint256[]",
              "name": "itemIds",
              "type": "uint256[]"
            },
            {
              "internalType": "bytes32[]",
              "name": "proofs",
              "type": "bytes32[]"
            },
            {
              "internalType": "bool[]",
              "name": "proofFlags",
              "type": "bool[]"
            }
          ],
          "internalType": "struct IW3ShopPaymentProcessor.BuyParams",
          "name": "_params",
          "type": "tuple"
        }
      ],
      "name": "buyWithEther",
      "outputs": [],
      "stateMutability": "payable",
      "type": "function"
    },
    {
      "inputs": [
        {
          "internalType": "address",
          "name": "_token",
          "type": "address"
        },
        {
          "components": [
            {
              "internalType": "address payable",
              "name": "shop",
              "type": "address"
            },
            {
              "internalType": "uint32[]",
              "name": "amounts",
              "type": "uint32[]"
            },
            {
              "internalType": "uint256[]",
              "name": "prices",
              "type": "uint256[]"
            },
            {
              "internalType": "uint256[]",
              "name": "itemIds",
              "type": "uint256[]"
            },
            {
              "internalType": "bytes32[]",
              "name": "proofs",
              "type": "bytes32[]"
            },
            {
              "internalType": "bool[]",
              "name": "proofFlags",
              "type": "bool[]"
            }
          ],
          "internalType": "struct IW3ShopPaymentProcessor.BuyParams",
          "name": "_params",
          "type": "tuple"
        }
      ],
      "name": "buyWithToken",
      "outputs": [],
      "stateMutability": "nonpayable",
      "type": "function"
    }
  ],
  "transactionHash": "0xa3e14e73ee88f32b1a9fbc3eb6caccd95c92a7b40c59d3992844c59f7491245e",
  "args": [],
  "numDeployments": 1,
  "solcInputHash": "7737753e5746ba6c58d619d5dbeef255",
  "bytecode": "0x608060405234801561001057600080fd5b50611063806100206000396000f3fe6080604052600436106100345760003560e01c8063103cf92e146100395780633f2708591461005b578063dd8130031461006e575b600080fd5b34801561004557600080fd5b50610059610054366004610d18565b61009f565b005b610059610069366004610d68565b61014f565b34801561007a57600080fd5b50610083600081565b6040516001600160a01b03909116815260200160405180910390f35b60008060006100ae8585610262565b91945092509050846100cb6001600160a01b03821633858761048d565b6001600160a01b038216632296070c336100e86020890189610d9d565b6100f560608b018b610d9d565b6040518663ffffffff1660e01b8152600401610115959493929190610e07565b600060405180830381600087803b15801561012f57600080fd5b505af1158015610143573d6000803e3d6000fd5b50505050505050505050565b600080600061015f600085610262565b9250925092508234146101aa5760405162461bcd60e51b815260206004820152600e60248201526d1a5b9d985b1a5908185b5bdd5b9d60921b60448201526064015b60405180910390fd5b6040516001600160a01b038316903480156108fc02916000818181858888f193505050501580156101df573d6000803e3d6000fd5b506001600160a01b038116632296070c336101fd6020880188610d9d565b61020a60608a018a610d9d565b6040518663ffffffff1660e01b815260040161022a959493929190610e07565b600060405180830381600087803b15801561024457600080fd5b505af1158015610258573d6000803e3d6000fd5b5050505050505050565b600080806102736020850185610e92565b9050806001600160a01b031663d07547f56040518163ffffffff1660e01b8152600401602060405180830381865afa1580156102b3573d6000803e3d6000fd5b505050506040513d601f19601f820116820180604052508101906102d79190610eaf565b91506001600160a01b03821661031d5760405162461bcd60e51b815260206004820152600b60248201526a3737903932b1b2b4bb32b960a91b60448201526064016101a1565b846001600160a01b0316816001600160a01b03166373fa4e6e6040518163ffffffff1660e01b8152600401602060405180830381865afa158015610365573d6000803e3d6000fd5b505050506040513d601f19601f820116820180604052508101906103899190610eaf565b6001600160a01b0316146103d75760405162461bcd60e51b815260206004820152601560248201527418dd5c9c995b98de481b9bdd081858d8d95c1d1959605a1b60448201526064016101a1565b6103e46020850185610d9d565b90506103f36040860186610d9d565b905014801561041d575061040a6060850185610d9d565b90506104196040860186610d9d565b9050145b6104585760405162461bcd60e51b815260206004820152600c60248201526b696e76616c6964206172677360a01b60448201526064016101a1565b61046281856104ed565b6104846104726020860186610d9d565b61047f6040880188610d9d565b610753565b92509250925092565b604080516001600160a01b0385811660248301528416604482015260648082018490528251808303909101815260849091019091526020810180516001600160e01b03166323b872dd60e01b1790526104e79085906107da565b50505050565b60006104fc6020830183610d9d565b905067ffffffffffffffff81111561051657610516610ecc565b60405190808252806020026020018201604052801561053f578160200160208202803683370190505b50905060005b6105526020840184610d9d565b9050811015610622576105686060840184610d9d565b8281811061057857610578610ee2565b9050602002013583806040019061058f9190610d9d565b8381811061059f5761059f610ee2565b905060200201356040516020016105c0929190918252602082015260400190565b60408051601f19818403018152828252805160209182012090830152016040516020818303038152906040528051906020012082828151811061060557610605610ee2565b60209081029190910101528061061a81610f0e565b915050610545565b5060006107146106356080850185610d9d565b808060200260200160405190810160405280939291908181526020018383602002808284376000920191909152506106749250505060a0860186610d9d565b808060200260200160405190810160405280939291908181526020018383602002808284376000920191909152505060408051633e2d9ecd60e11b815290516001600160a01b038b169350637c5b3d9a925060048083019260209291908290030181865afa1580156106ea573d6000803e3d6000fd5b505050506040513d601f19601f8201168201806040525081019061070e9190610f27565b856108b1565b9050806104e75760405162461bcd60e51b815260206004820152600d60248201526c34b73b30b634b210383937b7b360991b60448201526064016101a1565b600080805b858110156107ce5786868281811061077257610772610ee2565b90506020020160208101906107879190610f40565b63ffffffff1685858381811061079f5761079f610ee2565b905060200201356107b09190610f5b565b6107ba9083610f72565b9150806107c681610f0e565b915050610758565b5090505b949350505050565b600061082f826040518060400160405280602081526020017f5361666545524332303a206c6f772d6c6576656c2063616c6c206661696c6564815250856001600160a01b03166108c99092919063ffffffff16565b8051909150156108ac578080602001905181019061084d9190610f85565b6108ac5760405162461bcd60e51b815260206004820152602a60248201527f5361666545524332303a204552433230206f7065726174696f6e20646964206e6044820152691bdd081cdd58d8d9595960b21b60648201526084016101a1565b505050565b6000826108bf8686856108e2565b1495945050505050565b60606108d88484600085610b3b565b90505b9392505050565b805182518451600092919081906001906108fc9085610f72565b6109069190610fa7565b146109535760405162461bcd60e51b815260206004820152601f60248201527f4d65726b6c6550726f6f663a20696e76616c6964206d756c746970726f6f660060448201526064016101a1565b60008167ffffffffffffffff81111561096e5761096e610ecc565b604051908082528060200260200182016040528015610997578160200160208202803683370190505b5090506000806000805b85811015610ad75760008785106109dc5785846109bd81610f0e565b9550815181106109cf576109cf610ee2565b6020026020010151610a02565b89856109e781610f0e565b9650815181106109f9576109f9610ee2565b60200260200101515b905060008b8381518110610a1857610a18610ee2565b6020026020010151610a4e578c84610a2f81610f0e565b955081518110610a4157610a41610ee2565b6020026020010151610a98565b888610610a72578685610a6081610f0e565b965081518110610a4157610a41610ee2565b8a86610a7d81610f0e565b975081518110610a8f57610a8f610ee2565b60200260200101515b9050610aa48282610c16565b878481518110610ab657610ab6610ee2565b60200260200101818152505050508080610acf90610f0e565b9150506109a1565b508415610b0f5783610aea600187610fa7565b81518110610afa57610afa610ee2565b602002602001015196505050505050506108db565b8515610b285787600081518110610afa57610afa610ee2565b89600081518110610afa57610afa610ee2565b606082471015610b9c5760405162461bcd60e51b815260206004820152602660248201527f416464726573733a20696e73756666696369656e742062616c616e636520666f6044820152651c8818d85b1b60d21b60648201526084016101a1565b600080866001600160a01b03168587604051610bb89190610fde565b60006040518083038185875af1925050503d8060008114610bf5576040519150601f19603f3d011682016040523d82523d6000602084013e610bfa565b606091505b5091509150610c0b87838387610c4a565b979650505050505050565b6000818310610c32576000828152602084905260409020610c41565b60008381526020839052604090205b90505b92915050565b60608315610cb9578251600003610cb2576001600160a01b0385163b610cb25760405162461bcd60e51b815260206004820152601d60248201527f416464726573733a2063616c6c20746f206e6f6e2d636f6e747261637400000060448201526064016101a1565b50816107d2565b6107d28383815115610cce5781518083602001fd5b8060405162461bcd60e51b81526004016101a19190610ffa565b6001600160a01b0381168114610cfd57600080fd5b50565b600060c08284031215610d1257600080fd5b50919050565b60008060408385031215610d2b57600080fd5b8235610d3681610ce8565b9150602083013567ffffffffffffffff811115610d5257600080fd5b610d5e85828601610d00565b9150509250929050565b600060208284031215610d7a57600080fd5b813567ffffffffffffffff811115610d9157600080fd5b6107d284828501610d00565b6000808335601e19843603018112610db457600080fd5b83018035915067ffffffffffffffff821115610dcf57600080fd5b6020019150600581901b3603821315610de757600080fd5b9250929050565b803563ffffffff81168114610e0257600080fd5b919050565b6001600160a01b038616815260606020808301829052908201859052600090869060808401835b88811015610e575763ffffffff610e4485610dee565b1682529282019290820190600101610e2e565b5084810360408601528581526001600160fb1b03861115610e7757600080fd5b8560051b925082878383013790910101979650505050505050565b600060208284031215610ea457600080fd5b81356108db81610ce8565b600060208284031215610ec157600080fd5b81516108db81610ce8565b634e487b7160e01b600052604160045260246000fd5b634e487b7160e01b600052603260045260246000fd5b634e487b7160e01b600052601160045260246000fd5b600060018201610f2057610f20610ef8565b5060010190565b600060208284031215610f3957600080fd5b5051919050565b600060208284031215610f5257600080fd5b610c4182610dee565b8082028115828204841417610c4457610c44610ef8565b80820180821115610c4457610c44610ef8565b600060208284031215610f9757600080fd5b815180151581146108db57600080fd5b81810381811115610c4457610c44610ef8565b60005b83811015610fd5578181015183820152602001610fbd565b50506000910152565b60008251610ff0818460208701610fba565b9190910192915050565b6020815260008251806020840152611019816040850160208701610fba565b601f01601f1916919091016040019291505056fea26469706673582212204a96888de77d155930f7a1c898c9d4a3712beea00a89231cb0b75dc79255b30e64736f6c63430008110033",
  "devdoc": {
    "kind": "dev",
    "methods": {
      "buyWithEther((address,uint32[],uint256[],uint256[],bytes32[],bool[]))": {
        "details": "Handles the buy process if ETH is used as a currency inside the shop."
      },
      "buyWithToken(address,(address,uint32[],uint256[],uint256[],bytes32[],bool[]))": {
        "details": "Handles the buy process if an arbitrary token is used for the shop."
      }
    },
    "version": 1
  },
  "userdoc": {
    "kind": "user",
    "methods": {},
    "notice": "The payment processor checks and performs the payment validation. If the validation was successful it forwards the payment to the shops register.",
    "version": 1
  },
  "storageLayout": {
    "storage": [],
    "types": null
  }
}