{
  "address": "0x3fD3A62849550250f80d1efeb1274CF235be924b",
  "abi": [
    {
      "inputs": [
        {
          "internalType": "bytes32",
          "name": "root",
          "type": "bytes32"
        },
        {
          "internalType": "uint256[]",
          "name": "itemIds",
          "type": "uint256[]"
        },
        {
          "internalType": "uint256[]",
          "name": "itemPrices",
          "type": "uint256[]"
        },
        {
          "internalType": "bytes32[]",
          "name": "proofs",
          "type": "bytes32[]"
        },
        {
          "internalType": "bool[]",
          "name": "proofFlags",
          "type": "bool[]"
        }
      ],
      "name": "verify",
      "outputs": [
        {
          "internalType": "bool",
          "name": "",
          "type": "bool"
        }
      ],
      "stateMutability": "pure",
      "type": "function"
    }
  ],
  "transactionHash": "0x693119af55fee30b60015907192922f9637b5783956d554669f6737008256dad",
  "args": [],
  "numDeployments": 1,
  "solcInputHash": "91607562b7572da156c605b6cad4c3d6",
  "bytecode": "0x61072f61003a600b82828239805160001a60731461002d57634e487b7160e01b600052600060045260246000fd5b30600052607381538281f3fe73000000000000000000000000000000000000000030146080604052600436106100355760003560e01c80638122d44e1461003a575b600080fd5b61004d610048366004610580565b610061565b604051901515815260200160405180910390f35b6000835185511461007157600080fd5b6000855167ffffffffffffffff81111561008d5761008d610440565b6040519080825280602002602001820160405280156100b6578160200160208202803683370190505b50905060005b8651811015610175578681815181106100d7576100d761068e565b60200260200101518682815181106100f1576100f161068e565b6020026020010151604051602001610113929190918252602082015260400190565b60408051601f1981840301815282825280516020918201209083015201604051602081830303815290604052805190602001208282815181106101585761015861068e565b60209081029190910101528061016d816106ba565b9150506100bc565b50600061018485858a85610190565b98975050505050505050565b60008261019e8686856101a8565b1495945050505050565b805182518451600092919081906001906101c290856106d3565b6101cc91906106e6565b1461021d5760405162461bcd60e51b815260206004820152601f60248201527f4d65726b6c6550726f6f663a20696e76616c6964206d756c746970726f6f6600604482015260640160405180910390fd5b60008167ffffffffffffffff81111561023857610238610440565b604051908082528060200260200182016040528015610261578160200160208202803683370190505b5090506000806000805b858110156103a15760008785106102a6578584610287816106ba565b9550815181106102995761029961068e565b60200260200101516102cc565b89856102b1816106ba565b9650815181106102c3576102c361068e565b60200260200101515b905060008b83815181106102e2576102e261068e565b6020026020010151610318578c846102f9816106ba565b95508151811061030b5761030b61068e565b6020026020010151610362565b88861061033c57868561032a816106ba565b96508151811061030b5761030b61068e565b8a86610347816106ba565b9750815181106103595761035961068e565b60200260200101515b905061036e828261040c565b8784815181106103805761038061068e565b60200260200101818152505050508080610399906106ba565b91505061026b565b5084156103d957836103b46001876106e6565b815181106103c4576103c461068e565b60200260200101519650505050505050610405565b85156103f257876000815181106103c4576103c461068e565b896000815181106103c4576103c461068e565b9392505050565b6000818310610428576000828152602084905260409020610437565b60008381526020839052604090205b90505b92915050565b634e487b7160e01b600052604160045260246000fd5b604051601f8201601f1916810167ffffffffffffffff8111828210171561047f5761047f610440565b604052919050565b600067ffffffffffffffff8211156104a1576104a1610440565b5060051b60200190565b600082601f8301126104bc57600080fd5b813560206104d16104cc83610487565b610456565b82815260059290921b840181019181810190868411156104f057600080fd5b8286015b8481101561050b57803583529183019183016104f4565b509695505050505050565b600082601f83011261052757600080fd5b813560206105376104cc83610487565b82815260059290921b8401810191818101908684111561055657600080fd5b8286015b8481101561050b57803580151581146105735760008081fd5b835291830191830161055a565b600080600080600060a0868803121561059857600080fd5b8535945060208087013567ffffffffffffffff808211156105b857600080fd5b6105c48a838b016104ab565b965060408901359150808211156105da57600080fd5b6105e68a838b016104ab565b955060608901359150808211156105fc57600080fd5b818901915089601f83011261061057600080fd5b813561061e6104cc82610487565b81815260059190911b8301840190848101908c83111561063d57600080fd5b938501935b8285101561065b57843582529385019390850190610642565b96505050608089013592508083111561067357600080fd5b505061068188828901610516565b9150509295509295909350565b634e487b7160e01b600052603260045260246000fd5b634e487b7160e01b600052601160045260246000fd5b6000600182016106cc576106cc6106a4565b5060010190565b8082018082111561043a5761043a6106a4565b8181038181111561043a5761043a6106a456fea2646970667358221220bbf03aae22f967ed4c7493c2c8a20e750043a7bf8dc15740305f307dbc83bce364736f6c63430008110033",
  "devdoc": {
    "kind": "dev",
    "methods": {},
    "version": 1
  },
  "userdoc": {
    "kind": "user",
    "methods": {},
    "notice": "This is only a wrapper to the OpenZeppelin library that is used internally for testing the multiproof code.",
    "version": 1
  },
  "storageLayout": {
    "storage": [],
    "types": null
  }
}