{
  "address": "0xd11bfA9bBe0F43960FEc4aE5677aE09Cb4059F7a",
  "abi": [
    {
      "inputs": [],
      "stateMutability": "nonpayable",
      "type": "constructor"
    },
    {
      "inputs": [],
      "name": "BASE_ETHER",
      "outputs": [
        {
          "internalType": "address",
          "name": "",
          "type": "address"
        }
      ],
      "stateMutability": "view",
      "type": "function"
    },
    {
      "inputs": [],
      "name": "DAI",
      "outputs": [
        {
          "internalType": "address",
          "name": "",
          "type": "address"
        }
      ],
      "stateMutability": "view",
      "type": "function"
    },
    {
      "inputs": [],
      "name": "WETH9",
      "outputs": [
        {
          "internalType": "address",
          "name": "",
          "type": "address"
        }
      ],
      "stateMutability": "view",
      "type": "function"
    },
    {
      "inputs": [
        {
          "components": [
            {
              "internalType": "address payable",
              "name": "shop",
              "type": "address"
            },
            {
              "internalType": "uint256[]",
              "name": "amounts",
              "type": "uint256[]"
            },
            {
              "internalType": "uint256[]",
              "name": "prices",
              "type": "uint256[]"
            },
            {
              "internalType": "uint256[]",
              "name": "itemIds",
              "type": "uint256[]"
            },
            {
              "internalType": "bytes32[]",
              "name": "proofs",
              "type": "bytes32[]"
            },
            {
              "internalType": "bool[]",
              "name": "proofFlags",
              "type": "bool[]"
            }
          ],
          "internalType": "struct W3PaymentProcessor.BuyParams",
          "name": "_params",
          "type": "tuple"
        }
      ],
      "name": "buyWithEther",
      "outputs": [],
      "stateMutability": "payable",
      "type": "function"
    },
    {
      "inputs": [
        {
          "internalType": "address",
          "name": "_token",
          "type": "address"
        },
        {
          "components": [
            {
              "internalType": "address payable",
              "name": "shop",
              "type": "address"
            },
            {
              "internalType": "uint256[]",
              "name": "amounts",
              "type": "uint256[]"
            },
            {
              "internalType": "uint256[]",
              "name": "prices",
              "type": "uint256[]"
            },
            {
              "internalType": "uint256[]",
              "name": "itemIds",
              "type": "uint256[]"
            },
            {
              "internalType": "bytes32[]",
              "name": "proofs",
              "type": "bytes32[]"
            },
            {
              "internalType": "bool[]",
              "name": "proofFlags",
              "type": "bool[]"
            }
          ],
          "internalType": "struct W3PaymentProcessor.BuyParams",
          "name": "_params",
          "type": "tuple"
        }
      ],
      "name": "buyWithSameToken",
      "outputs": [],
      "stateMutability": "nonpayable",
      "type": "function"
    },
    {
      "inputs": [
        {
          "internalType": "address",
          "name": "_token",
          "type": "address"
        },
        {
          "components": [
            {
              "internalType": "address payable",
              "name": "shop",
              "type": "address"
            },
            {
              "internalType": "uint256[]",
              "name": "amounts",
              "type": "uint256[]"
            },
            {
              "internalType": "uint256[]",
              "name": "prices",
              "type": "uint256[]"
            },
            {
              "internalType": "uint256[]",
              "name": "itemIds",
              "type": "uint256[]"
            },
            {
              "internalType": "bytes32[]",
              "name": "proofs",
              "type": "bytes32[]"
            },
            {
              "internalType": "bool[]",
              "name": "proofFlags",
              "type": "bool[]"
            }
          ],
          "internalType": "struct W3PaymentProcessor.BuyParams",
          "name": "_params",
          "type": "tuple"
        }
      ],
      "name": "buyWithToken",
      "outputs": [],
      "stateMutability": "nonpayable",
      "type": "function"
    },
    {
      "inputs": [],
      "name": "swapRouter",
      "outputs": [
        {
          "internalType": "contract ISwapRouter",
          "name": "",
          "type": "address"
        }
      ],
      "stateMutability": "view",
      "type": "function"
    }
  ],
  "transactionHash": "0x5eb1c599c62a3aca460544ca1b1dfd413eb852b648676b7c3deb03b6bb1a1b60",
  "args": [],
  "numDeployments": 1,
  "solcInputHash": "55e56e047340f026918b31707321d9b6",
  "bytecode": "0x60a060405273e592427a0aece92de3edee1f18e0157c0586156473ffffffffffffffffffffffffffffffffffffffff1660809073ffffffffffffffffffffffffffffffffffffffff1681525034801561005757600080fd5b50608051611fda61007360003960006105d50152611fda6000f3fe6080604052600436106100705760003560e01c8063bcd1de8a1161004e578063bcd1de8a146100e5578063c31c9c0714610110578063e0bab4c41461013b578063fbbb1ef91461016657610070565b806307da1a3d146100755780631f5b9e59146100915780634aa4a4fc146100ba575b600080fd5b61008f600480360381019061008a919061105f565b61018f565b005b34801561009d57600080fd5b506100b860048036038101906100b39190611106565b6103a9565b005b3480156100c657600080fd5b506100cf6105b6565b6040516100dc9190611171565b60405180910390f35b3480156100f157600080fd5b506100fa6105ce565b6040516101079190611171565b60405180910390f35b34801561011c57600080fd5b506101256105d3565b60405161013291906111eb565b60405180910390f35b34801561014757600080fd5b506101506105f7565b60405161015d9190611171565b60405180910390f35b34801561017257600080fd5b5061018d60048036038101906101889190611106565b61060f565b005b60008061019b8361080d565b91509150600073ffffffffffffffffffffffffffffffffffffffff168273ffffffffffffffffffffffffffffffffffffffff16631c6d76756040518163ffffffff1660e01b815260040160206040518083038186803b1580156101fd57600080fd5b505afa158015610211573d6000803e3d6000fd5b505050506040513d601f19601f82011682018060405250810190610235919061121b565b73ffffffffffffffffffffffffffffffffffffffff161461028b576040517f08c379a0000000000000000000000000000000000000000000000000000000008152600401610282906112a5565b60405180910390fd5b803410156102ce576040517f08c379a00000000000000000000000000000000000000000000000000000000081526004016102c590611311565b60405180910390fd5b8173ffffffffffffffffffffffffffffffffffffffff166108fc349081150290604051600060405180830381858888f19350505050158015610314573d6000803e3d6000fd5b508173ffffffffffffffffffffffffffffffffffffffff166332f1a34c338580602001906103429190611340565b8780606001906103529190611340565b6040518663ffffffff1660e01b8152600401610372959493929190611424565b600060405180830381600087803b15801561038c57600080fd5b505af11580156103a0573d6000803e3d6000fd5b50505050505050565b6000806103b58361080d565b9150915060008273ffffffffffffffffffffffffffffffffffffffff16631c6d76756040518163ffffffff1660e01b815260040160206040518083038186803b15801561040157600080fd5b505afa158015610415573d6000803e3d6000fd5b505050506040513d601f19601f82011682018060405250810190610439919061121b565b9050600073ffffffffffffffffffffffffffffffffffffffff168173ffffffffffffffffffffffffffffffffffffffff1614156104ab576040517f08c379a00000000000000000000000000000000000000000000000000000000081526004016104a2906114b9565b60405180910390fd5b8473ffffffffffffffffffffffffffffffffffffffff168173ffffffffffffffffffffffffffffffffffffffff16141561051a576040517f08c379a000000000000000000000000000000000000000000000000000000000815260040161051190611525565b60405180910390fd5b60008590508373ffffffffffffffffffffffffffffffffffffffff166332f1a34c3387806020019061054c9190611340565b89806060019061055c9190611340565b6040518663ffffffff1660e01b815260040161057c959493929190611424565b600060405180830381600087803b15801561059657600080fd5b505af11580156105aa573d6000803e3d6000fd5b50505050505050505050565b73c02aaa39b223fe8d0a0e5c4f27ead9083c756cc281565b600081565b7f000000000000000000000000000000000000000000000000000000000000000081565b736b175474e89094c44da98b954eedeac495271d0f81565b60008061061b8361080d565b915091508373ffffffffffffffffffffffffffffffffffffffff168273ffffffffffffffffffffffffffffffffffffffff16631c6d76756040518163ffffffff1660e01b815260040160206040518083038186803b15801561067c57600080fd5b505afa158015610690573d6000803e3d6000fd5b505050506040513d601f19601f820116820180604052508101906106b4919061121b565b73ffffffffffffffffffffffffffffffffffffffff161461070a576040517f08c379a0000000000000000000000000000000000000000000000000000000008152600401610701906114b9565b60405180910390fd5b600084905061073a30838373ffffffffffffffffffffffffffffffffffffffff166108fb9092919063ffffffff16565b6107778460000160208101906107509190611583565b838373ffffffffffffffffffffffffffffffffffffffff16610a1c9092919063ffffffff16565b8273ffffffffffffffffffffffffffffffffffffffff166332f1a34c338680602001906107a49190611340565b8880606001906107b49190611340565b6040518663ffffffff1660e01b81526004016107d4959493929190611424565b600060405180830381600087803b1580156107ee57600080fd5b505af1158015610802573d6000803e3d6000fd5b505050505050505050565b6000808280602001906108209190611340565b90508380604001906108329190611340565b9050148015610862575082806060019061084c9190611340565b905083806040019061085e9190611340565b9050145b6108a1576040517f08c379a0000000000000000000000000000000000000000000000000000000008152600401610898906115fc565b60405180910390fd5b60008360000160208101906108b69190611583565b90506108c28185610aa2565b60006108ec8580602001906108d79190611340565b8780604001906108e79190611340565b610d34565b90508181935093505050915091565b6000818473ffffffffffffffffffffffffffffffffffffffff1663dd62ed3e30866040518363ffffffff1660e01b815260040161093992919061161c565b60206040518083038186803b15801561095157600080fd5b505afa158015610965573d6000803e3d6000fd5b505050506040513d601f19601f82011682018060405250810190610989919061167b565b61099391906116d7565b9050610a168463095ea7b360e01b85846040516024016109b492919061173c565b604051602081830303815290604052907bffffffffffffffffffffffffffffffffffffffffffffffffffffffff19166020820180517bffffffffffffffffffffffffffffffffffffffffffffffffffffffff8381831617835250505050610db4565b50505050565b610a9d8363a9059cbb60e01b8484604051602401610a3b92919061173c565b604051602081830303815290604052907bffffffffffffffffffffffffffffffffffffffffffffffffffffffff19166020820180517bffffffffffffffffffffffffffffffffffffffffffffffffffffffff8381831617835250505050610db4565b505050565b6000818060200190610ab49190611340565b905067ffffffffffffffff811115610acf57610ace611765565b5b604051908082528060200260200182016040528015610afd5781602001602082028036833780820191505090505b50905060005b828060200190610b139190611340565b9050811015610bc557828060600190610b2c9190611340565b82818110610b3d57610b3c611794565b5b90506020020135838060400190610b549190611340565b83818110610b6557610b64611794565b5b90506020020135604051602001610b7d9291906117e4565b60405160208183030381529060405280519060200120828281518110610ba657610ba5611794565b5b6020026020010181815250508080610bbd90611810565b915050610b03565b5073260B13D233FDE4ee9929d6E751c4d82C30AD2d676327c9009d8473ffffffffffffffffffffffffffffffffffffffff1663431e94336040518163ffffffff1660e01b815260040160206040518083038186803b158015610c2657600080fd5b505afa158015610c3a573d6000803e3d6000fd5b505050506040513d601f19601f82011682018060405250810190610c5e919061188f565b83858060800190610c6f91906118bc565b878060a00190610c7f919061191f565b6040518763ffffffff1660e01b8152600401610ca096959493929190611ba6565b60206040518083038186803b158015610cb857600080fd5b505af4158015610ccc573d6000803e3d6000fd5b505050506040513d601f19601f82011682018060405250810190610cf09190611c19565b610d2f576040517f08c379a0000000000000000000000000000000000000000000000000000000008152600401610d2690611c92565b60405180910390fd5b505050565b6000806000905060005b86869050811015610da757868682818110610d5c57610d5b611794565b5b90506020020135858583818110610d7657610d75611794565b5b90506020020135610d879190611cb2565b82610d9291906116d7565b91508080610d9f90611810565b915050610d3e565b5080915050949350505050565b6000610e16826040518060400160405280602081526020017f5361666545524332303a206c6f772d6c6576656c2063616c6c206661696c65648152508573ffffffffffffffffffffffffffffffffffffffff16610e7b9092919063ffffffff16565b9050600081511115610e765780806020019051810190610e369190611c19565b610e75576040517f08c379a0000000000000000000000000000000000000000000000000000000008152600401610e6c90611d7e565b60405180910390fd5b5b505050565b6060610e8a8484600085610e93565b90509392505050565b606082471015610ed8576040517f08c379a0000000000000000000000000000000000000000000000000000000008152600401610ecf90611e10565b60405180910390fd5b610ee185610fa7565b610f20576040517f08c379a0000000000000000000000000000000000000000000000000000000008152600401610f1790611e7c565b60405180910390fd5b6000808673ffffffffffffffffffffffffffffffffffffffff168587604051610f499190611f16565b60006040518083038185875af1925050503d8060008114610f86576040519150601f19603f3d011682016040523d82523d6000602084013e610f8b565b606091505b5091509150610f9b828286610fca565b92505050949350505050565b6000808273ffffffffffffffffffffffffffffffffffffffff163b119050919050565b60608315610fda5782905061102a565b600083511115610fed5782518084602001fd5b816040517f08c379a00000000000000000000000000000000000000000000000000000000081526004016110219190611f82565b60405180910390fd5b9392505050565b600080fd5b600080fd5b600080fd5b600060c082840312156110565761105561103b565b5b81905092915050565b60006020828403121561107557611074611031565b5b600082013567ffffffffffffffff81111561109357611092611036565b5b61109f84828501611040565b91505092915050565b600073ffffffffffffffffffffffffffffffffffffffff82169050919050565b60006110d3826110a8565b9050919050565b6110e3816110c8565b81146110ee57600080fd5b50565b600081359050611100816110da565b92915050565b6000806040838503121561111d5761111c611031565b5b600061112b858286016110f1565b925050602083013567ffffffffffffffff81111561114c5761114b611036565b5b61115885828601611040565b9150509250929050565b61116b816110c8565b82525050565b60006020820190506111866000830184611162565b92915050565b6000819050919050565b60006111b16111ac6111a7846110a8565b61118c565b6110a8565b9050919050565b60006111c382611196565b9050919050565b60006111d5826111b8565b9050919050565b6111e5816111ca565b82525050565b600060208201905061120060008301846111dc565b92915050565b600081519050611215816110da565b92915050565b60006020828403121561123157611230611031565b5b600061123f84828501611206565b91505092915050565b600082825260208201905092915050565b7f6574686572206e6f742061636365707465640000000000000000000000000000600082015250565b600061128f601283611248565b915061129a82611259565b602082019050919050565b600060208201905081810360008301526112be81611282565b9050919050565b7f696e76616c696420616d6f756e74000000000000000000000000000000000000600082015250565b60006112fb600e83611248565b9150611306826112c5565b602082019050919050565b6000602082019050818103600083015261132a816112ee565b9050919050565b600080fd5b600080fd5b600080fd5b6000808335600160200384360303811261135d5761135c611331565b5b80840192508235915067ffffffffffffffff82111561137f5761137e611336565b5b60208301925060208202360383131561139b5761139a61133b565b5b509250929050565b600082825260208201905092915050565b600080fd5b82818337600083830152505050565b60006113d483856113a3565b93507f07ffffffffffffffffffffffffffffffffffffffffffffffffffffffffffffff831115611407576114066113b4565b5b6020830292506114188385846113b9565b82840190509392505050565b60006060820190506114396000830188611162565b818103602083015261144c8186886113c8565b905081810360408301526114618184866113c8565b90509695505050505050565b7f746f6b656e206e6f742061636365707465640000000000000000000000000000600082015250565b60006114a3601283611248565b91506114ae8261146d565b602082019050919050565b600060208201905081810360008301526114d281611496565b9050919050565b7f696e76616c696420746f6b656e00000000000000000000000000000000000000600082015250565b600061150f600d83611248565b915061151a826114d9565b602082019050919050565b6000602082019050818103600083015261153e81611502565b9050919050565b6000611550826110a8565b9050919050565b61156081611545565b811461156b57600080fd5b50565b60008135905061157d81611557565b92915050565b60006020828403121561159957611598611031565b5b60006115a78482850161156e565b91505092915050565b7f696e76616c696420617267730000000000000000000000000000000000000000600082015250565b60006115e6600c83611248565b91506115f1826115b0565b602082019050919050565b60006020820190508181036000830152611615816115d9565b9050919050565b60006040820190506116316000830185611162565b61163e6020830184611162565b9392505050565b6000819050919050565b61165881611645565b811461166357600080fd5b50565b6000815190506116758161164f565b92915050565b60006020828403121561169157611690611031565b5b600061169f84828501611666565b91505092915050565b7f4e487b7100000000000000000000000000000000000000000000000000000000600052601160045260246000fd5b60006116e282611645565b91506116ed83611645565b9250827fffffffffffffffffffffffffffffffffffffffffffffffffffffffffffffffff03821115611722576117216116a8565b5b828201905092915050565b61173681611645565b82525050565b60006040820190506117516000830185611162565b61175e602083018461172d565b9392505050565b7f4e487b7100000000000000000000000000000000000000000000000000000000600052604160045260246000fd5b7f4e487b7100000000000000000000000000000000000000000000000000000000600052603260045260246000fd5b6000819050919050565b6117de6117d982611645565b6117c3565b82525050565b60006117f082856117cd565b60208201915061180082846117cd565b6020820191508190509392505050565b600061181b82611645565b91507fffffffffffffffffffffffffffffffffffffffffffffffffffffffffffffffff82141561184e5761184d6116a8565b5b600182019050919050565b6000819050919050565b61186c81611859565b811461187757600080fd5b50565b60008151905061188981611863565b92915050565b6000602082840312156118a5576118a4611031565b5b60006118b38482850161187a565b91505092915050565b600080833560016020038436030381126118d9576118d8611331565b5b80840192508235915067ffffffffffffffff8211156118fb576118fa611336565b5b6020830192506020820236038313156119175761191661133b565b5b509250929050565b6000808335600160200384360303811261193c5761193b611331565b5b80840192508235915067ffffffffffffffff82111561195e5761195d611336565b5b60208301925060208202360383131561197a5761197961133b565b5b509250929050565b61198b81611859565b82525050565b600081519050919050565b600082825260208201905092915050565b6000819050602082019050919050565b6119c681611859565b82525050565b60006119d883836119bd565b60208301905092915050565b6000602082019050919050565b60006119fc82611991565b611a06818561199c565b9350611a11836119ad565b8060005b83811015611a42578151611a2988826119cc565b9750611a34836119e4565b925050600181019050611a15565b5085935050505092915050565b6000611a5b838561199c565b93507f07ffffffffffffffffffffffffffffffffffffffffffffffffffffffffffffff831115611a8e57611a8d6113b4565b5b602083029250611a9f8385846113b9565b82840190509392505050565b600082825260208201905092915050565b6000819050919050565b60008115159050919050565b611adb81611ac6565b82525050565b6000611aed8383611ad2565b60208301905092915050565b611b0281611ac6565b8114611b0d57600080fd5b50565b600081359050611b1f81611af9565b92915050565b6000611b346020840184611b10565b905092915050565b6000602082019050919050565b6000611b558385611aab565b9350611b6082611abc565b8060005b85811015611b9957611b768284611b25565b611b808882611ae1565b9750611b8b83611b3c565b925050600181019050611b64565b5085925050509392505050565b6000608082019050611bbb6000830189611982565b8181036020830152611bcd81886119f1565b90508181036040830152611be2818688611a4f565b90508181036060830152611bf7818486611b49565b9050979650505050505050565b600081519050611c1381611af9565b92915050565b600060208284031215611c2f57611c2e611031565b5b6000611c3d84828501611c04565b91505092915050565b7f696e76616c69642070726f6f6600000000000000000000000000000000000000600082015250565b6000611c7c600d83611248565b9150611c8782611c46565b602082019050919050565b60006020820190508181036000830152611cab81611c6f565b9050919050565b6000611cbd82611645565b9150611cc883611645565b9250817fffffffffffffffffffffffffffffffffffffffffffffffffffffffffffffffff0483118215151615611d0157611d006116a8565b5b828202905092915050565b7f5361666545524332303a204552433230206f7065726174696f6e20646964206e60008201527f6f74207375636365656400000000000000000000000000000000000000000000602082015250565b6000611d68602a83611248565b9150611d7382611d0c565b604082019050919050565b60006020820190508181036000830152611d9781611d5b565b9050919050565b7f416464726573733a20696e73756666696369656e742062616c616e636520666f60008201527f722063616c6c0000000000000000000000000000000000000000000000000000602082015250565b6000611dfa602683611248565b9150611e0582611d9e565b604082019050919050565b60006020820190508181036000830152611e2981611ded565b9050919050565b7f416464726573733a2063616c6c20746f206e6f6e2d636f6e7472616374000000600082015250565b6000611e66601d83611248565b9150611e7182611e30565b602082019050919050565b60006020820190508181036000830152611e9581611e59565b9050919050565b600081519050919050565b600081905092915050565b60005b83811015611ed0578082015181840152602081019050611eb5565b83811115611edf576000848401525b50505050565b6000611ef082611e9c565b611efa8185611ea7565b9350611f0a818560208601611eb2565b80840191505092915050565b6000611f228284611ee5565b915081905092915050565b600081519050919050565b6000601f19601f8301169050919050565b6000611f5482611f2d565b611f5e8185611248565b9350611f6e818560208601611eb2565b611f7781611f38565b840191505092915050565b60006020820190508181036000830152611f9c8184611f49565b90509291505056fea2646970667358221220cb2e5b2eb05cb7606af76c6bba36a2066bdbbd87964ed74cf9917ba183a8139f64736f6c63430008090033",
  "deployedBytecode": "0x6080604052600436106100705760003560e01c8063bcd1de8a1161004e578063bcd1de8a146100e5578063c31c9c0714610110578063e0bab4c41461013b578063fbbb1ef91461016657610070565b806307da1a3d146100755780631f5b9e59146100915780634aa4a4fc146100ba575b600080fd5b61008f600480360381019061008a919061105f565b61018f565b005b34801561009d57600080fd5b506100b860048036038101906100b39190611106565b6103a9565b005b3480156100c657600080fd5b506100cf6105b6565b6040516100dc9190611171565b60405180910390f35b3480156100f157600080fd5b506100fa6105ce565b6040516101079190611171565b60405180910390f35b34801561011c57600080fd5b506101256105d3565b60405161013291906111eb565b60405180910390f35b34801561014757600080fd5b506101506105f7565b60405161015d9190611171565b60405180910390f35b34801561017257600080fd5b5061018d60048036038101906101889190611106565b61060f565b005b60008061019b8361080d565b91509150600073ffffffffffffffffffffffffffffffffffffffff168273ffffffffffffffffffffffffffffffffffffffff16631c6d76756040518163ffffffff1660e01b815260040160206040518083038186803b1580156101fd57600080fd5b505afa158015610211573d6000803e3d6000fd5b505050506040513d601f19601f82011682018060405250810190610235919061121b565b73ffffffffffffffffffffffffffffffffffffffff161461028b576040517f08c379a0000000000000000000000000000000000000000000000000000000008152600401610282906112a5565b60405180910390fd5b803410156102ce576040517f08c379a00000000000000000000000000000000000000000000000000000000081526004016102c590611311565b60405180910390fd5b8173ffffffffffffffffffffffffffffffffffffffff166108fc349081150290604051600060405180830381858888f19350505050158015610314573d6000803e3d6000fd5b508173ffffffffffffffffffffffffffffffffffffffff166332f1a34c338580602001906103429190611340565b8780606001906103529190611340565b6040518663ffffffff1660e01b8152600401610372959493929190611424565b600060405180830381600087803b15801561038c57600080fd5b505af11580156103a0573d6000803e3d6000fd5b50505050505050565b6000806103b58361080d565b9150915060008273ffffffffffffffffffffffffffffffffffffffff16631c6d76756040518163ffffffff1660e01b815260040160206040518083038186803b15801561040157600080fd5b505afa158015610415573d6000803e3d6000fd5b505050506040513d601f19601f82011682018060405250810190610439919061121b565b9050600073ffffffffffffffffffffffffffffffffffffffff168173ffffffffffffffffffffffffffffffffffffffff1614156104ab576040517f08c379a00000000000000000000000000000000000000000000000000000000081526004016104a2906114b9565b60405180910390fd5b8473ffffffffffffffffffffffffffffffffffffffff168173ffffffffffffffffffffffffffffffffffffffff16141561051a576040517f08c379a000000000000000000000000000000000000000000000000000000000815260040161051190611525565b60405180910390fd5b60008590508373ffffffffffffffffffffffffffffffffffffffff166332f1a34c3387806020019061054c9190611340565b89806060019061055c9190611340565b6040518663ffffffff1660e01b815260040161057c959493929190611424565b600060405180830381600087803b15801561059657600080fd5b505af11580156105aa573d6000803e3d6000fd5b50505050505050505050565b73c02aaa39b223fe8d0a0e5c4f27ead9083c756cc281565b600081565b7f000000000000000000000000000000000000000000000000000000000000000081565b736b175474e89094c44da98b954eedeac495271d0f81565b60008061061b8361080d565b915091508373ffffffffffffffffffffffffffffffffffffffff168273ffffffffffffffffffffffffffffffffffffffff16631c6d76756040518163ffffffff1660e01b815260040160206040518083038186803b15801561067c57600080fd5b505afa158015610690573d6000803e3d6000fd5b505050506040513d601f19601f820116820180604052508101906106b4919061121b565b73ffffffffffffffffffffffffffffffffffffffff161461070a576040517f08c379a0000000000000000000000000000000000000000000000000000000008152600401610701906114b9565b60405180910390fd5b600084905061073a30838373ffffffffffffffffffffffffffffffffffffffff166108fb9092919063ffffffff16565b6107778460000160208101906107509190611583565b838373ffffffffffffffffffffffffffffffffffffffff16610a1c9092919063ffffffff16565b8273ffffffffffffffffffffffffffffffffffffffff166332f1a34c338680602001906107a49190611340565b8880606001906107b49190611340565b6040518663ffffffff1660e01b81526004016107d4959493929190611424565b600060405180830381600087803b1580156107ee57600080fd5b505af1158015610802573d6000803e3d6000fd5b505050505050505050565b6000808280602001906108209190611340565b90508380604001906108329190611340565b9050148015610862575082806060019061084c9190611340565b905083806040019061085e9190611340565b9050145b6108a1576040517f08c379a0000000000000000000000000000000000000000000000000000000008152600401610898906115fc565b60405180910390fd5b60008360000160208101906108b69190611583565b90506108c28185610aa2565b60006108ec8580602001906108d79190611340565b8780604001906108e79190611340565b610d34565b90508181935093505050915091565b6000818473ffffffffffffffffffffffffffffffffffffffff1663dd62ed3e30866040518363ffffffff1660e01b815260040161093992919061161c565b60206040518083038186803b15801561095157600080fd5b505afa158015610965573d6000803e3d6000fd5b505050506040513d601f19601f82011682018060405250810190610989919061167b565b61099391906116d7565b9050610a168463095ea7b360e01b85846040516024016109b492919061173c565b604051602081830303815290604052907bffffffffffffffffffffffffffffffffffffffffffffffffffffffff19166020820180517bffffffffffffffffffffffffffffffffffffffffffffffffffffffff8381831617835250505050610db4565b50505050565b610a9d8363a9059cbb60e01b8484604051602401610a3b92919061173c565b604051602081830303815290604052907bffffffffffffffffffffffffffffffffffffffffffffffffffffffff19166020820180517bffffffffffffffffffffffffffffffffffffffffffffffffffffffff8381831617835250505050610db4565b505050565b6000818060200190610ab49190611340565b905067ffffffffffffffff811115610acf57610ace611765565b5b604051908082528060200260200182016040528015610afd5781602001602082028036833780820191505090505b50905060005b828060200190610b139190611340565b9050811015610bc557828060600190610b2c9190611340565b82818110610b3d57610b3c611794565b5b90506020020135838060400190610b549190611340565b83818110610b6557610b64611794565b5b90506020020135604051602001610b7d9291906117e4565b60405160208183030381529060405280519060200120828281518110610ba657610ba5611794565b5b6020026020010181815250508080610bbd90611810565b915050610b03565b5073__$7b197934c90dcfa0b899e535ea3e07532e$__6327c9009d8473ffffffffffffffffffffffffffffffffffffffff1663431e94336040518163ffffffff1660e01b815260040160206040518083038186803b158015610c2657600080fd5b505afa158015610c3a573d6000803e3d6000fd5b505050506040513d601f19601f82011682018060405250810190610c5e919061188f565b83858060800190610c6f91906118bc565b878060a00190610c7f919061191f565b6040518763ffffffff1660e01b8152600401610ca096959493929190611ba6565b60206040518083038186803b158015610cb857600080fd5b505af4158015610ccc573d6000803e3d6000fd5b505050506040513d601f19601f82011682018060405250810190610cf09190611c19565b610d2f576040517f08c379a0000000000000000000000000000000000000000000000000000000008152600401610d2690611c92565b60405180910390fd5b505050565b6000806000905060005b86869050811015610da757868682818110610d5c57610d5b611794565b5b90506020020135858583818110610d7657610d75611794565b5b90506020020135610d879190611cb2565b82610d9291906116d7565b91508080610d9f90611810565b915050610d3e565b5080915050949350505050565b6000610e16826040518060400160405280602081526020017f5361666545524332303a206c6f772d6c6576656c2063616c6c206661696c65648152508573ffffffffffffffffffffffffffffffffffffffff16610e7b9092919063ffffffff16565b9050600081511115610e765780806020019051810190610e369190611c19565b610e75576040517f08c379a0000000000000000000000000000000000000000000000000000000008152600401610e6c90611d7e565b60405180910390fd5b5b505050565b6060610e8a8484600085610e93565b90509392505050565b606082471015610ed8576040517f08c379a0000000000000000000000000000000000000000000000000000000008152600401610ecf90611e10565b60405180910390fd5b610ee185610fa7565b610f20576040517f08c379a0000000000000000000000000000000000000000000000000000000008152600401610f1790611e7c565b60405180910390fd5b6000808673ffffffffffffffffffffffffffffffffffffffff168587604051610f499190611f16565b60006040518083038185875af1925050503d8060008114610f86576040519150601f19603f3d011682016040523d82523d6000602084013e610f8b565b606091505b5091509150610f9b828286610fca565b92505050949350505050565b6000808273ffffffffffffffffffffffffffffffffffffffff163b119050919050565b60608315610fda5782905061102a565b600083511115610fed5782518084602001fd5b816040517f08c379a00000000000000000000000000000000000000000000000000000000081526004016110219190611f82565b60405180910390fd5b9392505050565b600080fd5b600080fd5b600080fd5b600060c082840312156110565761105561103b565b5b81905092915050565b60006020828403121561107557611074611031565b5b600082013567ffffffffffffffff81111561109357611092611036565b5b61109f84828501611040565b91505092915050565b600073ffffffffffffffffffffffffffffffffffffffff82169050919050565b60006110d3826110a8565b9050919050565b6110e3816110c8565b81146110ee57600080fd5b50565b600081359050611100816110da565b92915050565b6000806040838503121561111d5761111c611031565b5b600061112b858286016110f1565b925050602083013567ffffffffffffffff81111561114c5761114b611036565b5b61115885828601611040565b9150509250929050565b61116b816110c8565b82525050565b60006020820190506111866000830184611162565b92915050565b6000819050919050565b60006111b16111ac6111a7846110a8565b61118c565b6110a8565b9050919050565b60006111c382611196565b9050919050565b60006111d5826111b8565b9050919050565b6111e5816111ca565b82525050565b600060208201905061120060008301846111dc565b92915050565b600081519050611215816110da565b92915050565b60006020828403121561123157611230611031565b5b600061123f84828501611206565b91505092915050565b600082825260208201905092915050565b7f6574686572206e6f742061636365707465640000000000000000000000000000600082015250565b600061128f601283611248565b915061129a82611259565b602082019050919050565b600060208201905081810360008301526112be81611282565b9050919050565b7f696e76616c696420616d6f756e74000000000000000000000000000000000000600082015250565b60006112fb600e83611248565b9150611306826112c5565b602082019050919050565b6000602082019050818103600083015261132a816112ee565b9050919050565b600080fd5b600080fd5b600080fd5b6000808335600160200384360303811261135d5761135c611331565b5b80840192508235915067ffffffffffffffff82111561137f5761137e611336565b5b60208301925060208202360383131561139b5761139a61133b565b5b509250929050565b600082825260208201905092915050565b600080fd5b82818337600083830152505050565b60006113d483856113a3565b93507f07ffffffffffffffffffffffffffffffffffffffffffffffffffffffffffffff831115611407576114066113b4565b5b6020830292506114188385846113b9565b82840190509392505050565b60006060820190506114396000830188611162565b818103602083015261144c8186886113c8565b905081810360408301526114618184866113c8565b90509695505050505050565b7f746f6b656e206e6f742061636365707465640000000000000000000000000000600082015250565b60006114a3601283611248565b91506114ae8261146d565b602082019050919050565b600060208201905081810360008301526114d281611496565b9050919050565b7f696e76616c696420746f6b656e00000000000000000000000000000000000000600082015250565b600061150f600d83611248565b915061151a826114d9565b602082019050919050565b6000602082019050818103600083015261153e81611502565b9050919050565b6000611550826110a8565b9050919050565b61156081611545565b811461156b57600080fd5b50565b60008135905061157d81611557565b92915050565b60006020828403121561159957611598611031565b5b60006115a78482850161156e565b91505092915050565b7f696e76616c696420617267730000000000000000000000000000000000000000600082015250565b60006115e6600c83611248565b91506115f1826115b0565b602082019050919050565b60006020820190508181036000830152611615816115d9565b9050919050565b60006040820190506116316000830185611162565b61163e6020830184611162565b9392505050565b6000819050919050565b61165881611645565b811461166357600080fd5b50565b6000815190506116758161164f565b92915050565b60006020828403121561169157611690611031565b5b600061169f84828501611666565b91505092915050565b7f4e487b7100000000000000000000000000000000000000000000000000000000600052601160045260246000fd5b60006116e282611645565b91506116ed83611645565b9250827fffffffffffffffffffffffffffffffffffffffffffffffffffffffffffffffff03821115611722576117216116a8565b5b828201905092915050565b61173681611645565b82525050565b60006040820190506117516000830185611162565b61175e602083018461172d565b9392505050565b7f4e487b7100000000000000000000000000000000000000000000000000000000600052604160045260246000fd5b7f4e487b7100000000000000000000000000000000000000000000000000000000600052603260045260246000fd5b6000819050919050565b6117de6117d982611645565b6117c3565b82525050565b60006117f082856117cd565b60208201915061180082846117cd565b6020820191508190509392505050565b600061181b82611645565b91507fffffffffffffffffffffffffffffffffffffffffffffffffffffffffffffffff82141561184e5761184d6116a8565b5b600182019050919050565b6000819050919050565b61186c81611859565b811461187757600080fd5b50565b60008151905061188981611863565b92915050565b6000602082840312156118a5576118a4611031565b5b60006118b38482850161187a565b91505092915050565b600080833560016020038436030381126118d9576118d8611331565b5b80840192508235915067ffffffffffffffff8211156118fb576118fa611336565b5b6020830192506020820236038313156119175761191661133b565b5b509250929050565b6000808335600160200384360303811261193c5761193b611331565b5b80840192508235915067ffffffffffffffff82111561195e5761195d611336565b5b60208301925060208202360383131561197a5761197961133b565b5b509250929050565b61198b81611859565b82525050565b600081519050919050565b600082825260208201905092915050565b6000819050602082019050919050565b6119c681611859565b82525050565b60006119d883836119bd565b60208301905092915050565b6000602082019050919050565b60006119fc82611991565b611a06818561199c565b9350611a11836119ad565b8060005b83811015611a42578151611a2988826119cc565b9750611a34836119e4565b925050600181019050611a15565b5085935050505092915050565b6000611a5b838561199c565b93507f07ffffffffffffffffffffffffffffffffffffffffffffffffffffffffffffff831115611a8e57611a8d6113b4565b5b602083029250611a9f8385846113b9565b82840190509392505050565b600082825260208201905092915050565b6000819050919050565b60008115159050919050565b611adb81611ac6565b82525050565b6000611aed8383611ad2565b60208301905092915050565b611b0281611ac6565b8114611b0d57600080fd5b50565b600081359050611b1f81611af9565b92915050565b6000611b346020840184611b10565b905092915050565b6000602082019050919050565b6000611b558385611aab565b9350611b6082611abc565b8060005b85811015611b9957611b768284611b25565b611b808882611ae1565b9750611b8b83611b3c565b925050600181019050611b64565b5085925050509392505050565b6000608082019050611bbb6000830189611982565b8181036020830152611bcd81886119f1565b90508181036040830152611be2818688611a4f565b90508181036060830152611bf7818486611b49565b9050979650505050505050565b600081519050611c1381611af9565b92915050565b600060208284031215611c2f57611c2e611031565b5b6000611c3d84828501611c04565b91505092915050565b7f696e76616c69642070726f6f6600000000000000000000000000000000000000600082015250565b6000611c7c600d83611248565b9150611c8782611c46565b602082019050919050565b60006020820190508181036000830152611cab81611c6f565b9050919050565b6000611cbd82611645565b9150611cc883611645565b9250817fffffffffffffffffffffffffffffffffffffffffffffffffffffffffffffffff0483118215151615611d0157611d006116a8565b5b828202905092915050565b7f5361666545524332303a204552433230206f7065726174696f6e20646964206e60008201527f6f74207375636365656400000000000000000000000000000000000000000000602082015250565b6000611d68602a83611248565b9150611d7382611d0c565b604082019050919050565b60006020820190508181036000830152611d9781611d5b565b9050919050565b7f416464726573733a20696e73756666696369656e742062616c616e636520666f60008201527f722063616c6c0000000000000000000000000000000000000000000000000000602082015250565b6000611dfa602683611248565b9150611e0582611d9e565b604082019050919050565b60006020820190508181036000830152611e2981611ded565b9050919050565b7f416464726573733a2063616c6c20746f206e6f6e2d636f6e7472616374000000600082015250565b6000611e66601d83611248565b9150611e7182611e30565b602082019050919050565b60006020820190508181036000830152611e9581611e59565b9050919050565b600081519050919050565b600081905092915050565b60005b83811015611ed0578082015181840152602081019050611eb5565b83811115611edf576000848401525b50505050565b6000611ef082611e9c565b611efa8185611ea7565b9350611f0a818560208601611eb2565b80840191505092915050565b6000611f228284611ee5565b915081905092915050565b600081519050919050565b6000601f19601f8301169050919050565b6000611f5482611f2d565b611f5e8185611248565b9350611f6e818560208601611eb2565b611f7781611f38565b840191505092915050565b60006020820190508181036000830152611f9c8184611f49565b90509291505056fea2646970667358221220cb2e5b2eb05cb7606af76c6bba36a2066bdbbd87964ed74cf9917ba183a8139f64736f6c63430008090033",
  "libraries": {
    "MerkleMultiProof": "0x260B13D233FDE4ee9929d6E751c4d82C30AD2d67"
  },
  "devdoc": {
    "kind": "dev",
    "methods": {},
    "version": 1
  },
  "userdoc": {
    "kind": "user",
    "methods": {},
    "notice": "This contract should be able to accept \"any\" ERC20, token, convert it to the target currency of the shop owner and then trigger the purchase of the items.",
    "version": 1
  },
  "storageLayout": {
    "storage": [],
    "types": null
  }
}