{
  "address": "0x7E3e552721143977F6c0580b4Cf45d8357C65C1d",
  "abi": [
    {
      "inputs": [],
      "stateMutability": "nonpayable",
      "type": "constructor"
    },
    {
      "inputs": [],
      "name": "BASE_ETHER",
      "outputs": [
        {
          "internalType": "address",
          "name": "",
          "type": "address"
        }
      ],
      "stateMutability": "view",
      "type": "function"
    },
    {
      "inputs": [
        {
          "components": [
            {
              "internalType": "address payable",
              "name": "shop",
              "type": "address"
            },
            {
              "internalType": "uint256[]",
              "name": "amounts",
              "type": "uint256[]"
            },
            {
              "internalType": "uint256[]",
              "name": "prices",
              "type": "uint256[]"
            },
            {
              "internalType": "uint256[]",
              "name": "itemIds",
              "type": "uint256[]"
            },
            {
              "internalType": "bytes32[]",
              "name": "proofs",
              "type": "bytes32[]"
            },
            {
              "internalType": "bool[]",
              "name": "proofFlags",
              "type": "bool[]"
            }
          ],
          "internalType": "struct W3PaymentProcessor.BuyParams",
          "name": "_params",
          "type": "tuple"
        }
      ],
      "name": "buyWithEther",
      "outputs": [],
      "stateMutability": "payable",
      "type": "function"
    },
    {
      "inputs": [
        {
          "internalType": "address",
          "name": "_token",
          "type": "address"
        },
        {
          "components": [
            {
              "internalType": "address payable",
              "name": "shop",
              "type": "address"
            },
            {
              "internalType": "uint256[]",
              "name": "amounts",
              "type": "uint256[]"
            },
            {
              "internalType": "uint256[]",
              "name": "prices",
              "type": "uint256[]"
            },
            {
              "internalType": "uint256[]",
              "name": "itemIds",
              "type": "uint256[]"
            },
            {
              "internalType": "bytes32[]",
              "name": "proofs",
              "type": "bytes32[]"
            },
            {
              "internalType": "bool[]",
              "name": "proofFlags",
              "type": "bool[]"
            }
          ],
          "internalType": "struct W3PaymentProcessor.BuyParams",
          "name": "_params",
          "type": "tuple"
        }
      ],
      "name": "buyWithSameToken",
      "outputs": [],
      "stateMutability": "nonpayable",
      "type": "function"
    }
  ],
  "transactionHash": "0xe433169e2c575962ff9f349519e56e64a182628d5b32ad0b2363107deb9a9753",
  "args": [],
  "numDeployments": 2,
  "solcInputHash": "86fafd7aa2016a735ed34aa559904686",
  "bytecode": "0x608060405234801561001057600080fd5b50611bd1806100206000396000f3fe6080604052600436106100345760003560e01c806307da1a3d14610039578063bcd1de8a14610055578063fbbb1ef914610080575b600080fd5b610053600480360381019061004e9190610d60565b6100a9565b005b34801561006157600080fd5b5061006a6102c3565b6040516100779190610dea565b60405180910390f35b34801561008c57600080fd5b506100a760048036038101906100a29190610e31565b6102c8565b005b6000806100b5836104c6565b91509150600073ffffffffffffffffffffffffffffffffffffffff168273ffffffffffffffffffffffffffffffffffffffff166373fa4e6e6040518163ffffffff1660e01b815260040160206040518083038186803b15801561011757600080fd5b505afa15801561012b573d6000803e3d6000fd5b505050506040513d601f19601f8201168201806040525081019061014f9190610ea2565b73ffffffffffffffffffffffffffffffffffffffff16146101a5576040517f08c379a000000000000000000000000000000000000000000000000000000000815260040161019c90610f2c565b60405180910390fd5b803410156101e8576040517f08c379a00000000000000000000000000000000000000000000000000000000081526004016101df90610f98565b60405180910390fd5b8173ffffffffffffffffffffffffffffffffffffffff166108fc349081150290604051600060405180830381858888f1935050505015801561022e573d6000803e3d6000fd5b508173ffffffffffffffffffffffffffffffffffffffff166332f1a34c3385806020019061025c9190610fc7565b87806060019061026c9190610fc7565b6040518663ffffffff1660e01b815260040161028c9594939291906110ab565b600060405180830381600087803b1580156102a657600080fd5b505af11580156102ba573d6000803e3d6000fd5b50505050505050565b600081565b6000806102d4836104c6565b915091508373ffffffffffffffffffffffffffffffffffffffff168273ffffffffffffffffffffffffffffffffffffffff166373fa4e6e6040518163ffffffff1660e01b815260040160206040518083038186803b15801561033557600080fd5b505afa158015610349573d6000803e3d6000fd5b505050506040513d601f19601f8201168201806040525081019061036d9190610ea2565b73ffffffffffffffffffffffffffffffffffffffff16146103c3576040517f08c379a00000000000000000000000000000000000000000000000000000000081526004016103ba90611140565b60405180910390fd5b60008490506103f330838373ffffffffffffffffffffffffffffffffffffffff166105b49092919063ffffffff16565b610430846000016020810190610409919061119e565b838373ffffffffffffffffffffffffffffffffffffffff166106d59092919063ffffffff16565b8273ffffffffffffffffffffffffffffffffffffffff166332f1a34c3386806020019061045d9190610fc7565b88806060019061046d9190610fc7565b6040518663ffffffff1660e01b815260040161048d9594939291906110ab565b600060405180830381600087803b1580156104a757600080fd5b505af11580156104bb573d6000803e3d6000fd5b505050505050505050565b6000808280602001906104d99190610fc7565b90508380604001906104eb9190610fc7565b905014801561051b57508280606001906105059190610fc7565b90508380604001906105179190610fc7565b9050145b61055a576040517f08c379a000000000000000000000000000000000000000000000000000000000815260040161055190611217565b60405180910390fd5b600083600001602081019061056f919061119e565b905061057b818561075b565b60006105a58580602001906105909190610fc7565b8780604001906105a09190610fc7565b610a35565b90508181935093505050915091565b6000818473ffffffffffffffffffffffffffffffffffffffff1663dd62ed3e30866040518363ffffffff1660e01b81526004016105f2929190611237565b60206040518083038186803b15801561060a57600080fd5b505afa15801561061e573d6000803e3d6000fd5b505050506040513d601f19601f820116820180604052508101906106429190611296565b61064c91906112f2565b90506106cf8463095ea7b360e01b858460405160240161066d929190611357565b604051602081830303815290604052907bffffffffffffffffffffffffffffffffffffffffffffffffffffffff19166020820180517bffffffffffffffffffffffffffffffffffffffffffffffffffffffff8381831617835250505050610ab5565b50505050565b6107568363a9059cbb60e01b84846040516024016106f4929190611357565b604051602081830303815290604052907bffffffffffffffffffffffffffffffffffffffffffffffffffffffff19166020820180517bffffffffffffffffffffffffffffffffffffffffffffffffffffffff8381831617835250505050610ab5565b505050565b600081806020019061076d9190610fc7565b905067ffffffffffffffff81111561078857610787611380565b5b6040519080825280602002602001820160405280156107b65781602001602082028036833780820191505090505b50905060005b8280602001906107cc9190610fc7565b90508110156108c65760028380606001906107e79190610fc7565b838181106107f8576107f76113af565b5b9050602002013584806040019061080f9190610fc7565b848181106108205761081f6113af565b5b905060200201356040516020016108389291906113de565b6040516020818303038152906040526040516108549190611481565b602060405180830381855afa158015610871573d6000803e3d6000fd5b5050506040513d601f19601f8201168201806040525081019061089491906114ce565b8282815181106108a7576108a66113af565b5b60200260200101818152505080806108be906114fb565b9150506107bc565b5073260B13D233FDE4ee9929d6E751c4d82C30AD2d676327c9009d8473ffffffffffffffffffffffffffffffffffffffff16637c5b3d9a6040518163ffffffff1660e01b815260040160206040518083038186803b15801561092757600080fd5b505afa15801561093b573d6000803e3d6000fd5b505050506040513d601f19601f8201168201806040525081019061095f91906114ce565b838580608001906109709190611544565b878060a0019061098091906115a7565b6040518763ffffffff1660e01b81526004016109a19695949392919061182e565b60206040518083038186803b1580156109b957600080fd5b505af41580156109cd573d6000803e3d6000fd5b505050506040513d601f19601f820116820180604052508101906109f191906118a1565b610a30576040517f08c379a0000000000000000000000000000000000000000000000000000000008152600401610a279061191a565b60405180910390fd5b505050565b6000806000905060005b86869050811015610aa857868682818110610a5d57610a5c6113af565b5b90506020020135858583818110610a7757610a766113af565b5b90506020020135610a88919061193a565b82610a9391906112f2565b91508080610aa0906114fb565b915050610a3f565b5080915050949350505050565b6000610b17826040518060400160405280602081526020017f5361666545524332303a206c6f772d6c6576656c2063616c6c206661696c65648152508573ffffffffffffffffffffffffffffffffffffffff16610b7c9092919063ffffffff16565b9050600081511115610b775780806020019051810190610b3791906118a1565b610b76576040517f08c379a0000000000000000000000000000000000000000000000000000000008152600401610b6d90611a06565b60405180910390fd5b5b505050565b6060610b8b8484600085610b94565b90509392505050565b606082471015610bd9576040517f08c379a0000000000000000000000000000000000000000000000000000000008152600401610bd090611a98565b60405180910390fd5b610be285610ca8565b610c21576040517f08c379a0000000000000000000000000000000000000000000000000000000008152600401610c1890611b04565b60405180910390fd5b6000808673ffffffffffffffffffffffffffffffffffffffff168587604051610c4a9190611481565b60006040518083038185875af1925050503d8060008114610c87576040519150601f19603f3d011682016040523d82523d6000602084013e610c8c565b606091505b5091509150610c9c828286610ccb565b92505050949350505050565b6000808273ffffffffffffffffffffffffffffffffffffffff163b119050919050565b60608315610cdb57829050610d2b565b600083511115610cee5782518084602001fd5b816040517f08c379a0000000000000000000000000000000000000000000000000000000008152600401610d229190611b79565b60405180910390fd5b9392505050565b600080fd5b600080fd5b600080fd5b600060c08284031215610d5757610d56610d3c565b5b81905092915050565b600060208284031215610d7657610d75610d32565b5b600082013567ffffffffffffffff811115610d9457610d93610d37565b5b610da084828501610d41565b91505092915050565b600073ffffffffffffffffffffffffffffffffffffffff82169050919050565b6000610dd482610da9565b9050919050565b610de481610dc9565b82525050565b6000602082019050610dff6000830184610ddb565b92915050565b610e0e81610dc9565b8114610e1957600080fd5b50565b600081359050610e2b81610e05565b92915050565b60008060408385031215610e4857610e47610d32565b5b6000610e5685828601610e1c565b925050602083013567ffffffffffffffff811115610e7757610e76610d37565b5b610e8385828601610d41565b9150509250929050565b600081519050610e9c81610e05565b92915050565b600060208284031215610eb857610eb7610d32565b5b6000610ec684828501610e8d565b91505092915050565b600082825260208201905092915050565b7f6574686572206e6f742061636365707465640000000000000000000000000000600082015250565b6000610f16601283610ecf565b9150610f2182610ee0565b602082019050919050565b60006020820190508181036000830152610f4581610f09565b9050919050565b7f696e76616c696420616d6f756e74000000000000000000000000000000000000600082015250565b6000610f82600e83610ecf565b9150610f8d82610f4c565b602082019050919050565b60006020820190508181036000830152610fb181610f75565b9050919050565b600080fd5b600080fd5b600080fd5b60008083356001602003843603038112610fe457610fe3610fb8565b5b80840192508235915067ffffffffffffffff82111561100657611005610fbd565b5b60208301925060208202360383131561102257611021610fc2565b5b509250929050565b600082825260208201905092915050565b600080fd5b82818337600083830152505050565b600061105b838561102a565b93507f07ffffffffffffffffffffffffffffffffffffffffffffffffffffffffffffff83111561108e5761108d61103b565b5b60208302925061109f838584611040565b82840190509392505050565b60006060820190506110c06000830188610ddb565b81810360208301526110d381868861104f565b905081810360408301526110e881848661104f565b90509695505050505050565b7f746f6b656e206e6f742061636365707465640000000000000000000000000000600082015250565b600061112a601283610ecf565b9150611135826110f4565b602082019050919050565b600060208201905081810360008301526111598161111d565b9050919050565b600061116b82610da9565b9050919050565b61117b81611160565b811461118657600080fd5b50565b60008135905061119881611172565b92915050565b6000602082840312156111b4576111b3610d32565b5b60006111c284828501611189565b91505092915050565b7f696e76616c696420617267730000000000000000000000000000000000000000600082015250565b6000611201600c83610ecf565b915061120c826111cb565b602082019050919050565b60006020820190508181036000830152611230816111f4565b9050919050565b600060408201905061124c6000830185610ddb565b6112596020830184610ddb565b9392505050565b6000819050919050565b61127381611260565b811461127e57600080fd5b50565b6000815190506112908161126a565b92915050565b6000602082840312156112ac576112ab610d32565b5b60006112ba84828501611281565b91505092915050565b7f4e487b7100000000000000000000000000000000000000000000000000000000600052601160045260246000fd5b60006112fd82611260565b915061130883611260565b9250827fffffffffffffffffffffffffffffffffffffffffffffffffffffffffffffffff0382111561133d5761133c6112c3565b5b828201905092915050565b61135181611260565b82525050565b600060408201905061136c6000830185610ddb565b6113796020830184611348565b9392505050565b7f4e487b7100000000000000000000000000000000000000000000000000000000600052604160045260246000fd5b7f4e487b7100000000000000000000000000000000000000000000000000000000600052603260045260246000fd5b60006040820190506113f36000830185611348565b6114006020830184611348565b9392505050565b600081519050919050565b600081905092915050565b60005b8381101561143b578082015181840152602081019050611420565b8381111561144a576000848401525b50505050565b600061145b82611407565b6114658185611412565b935061147581856020860161141d565b80840191505092915050565b600061148d8284611450565b915081905092915050565b6000819050919050565b6114ab81611498565b81146114b657600080fd5b50565b6000815190506114c8816114a2565b92915050565b6000602082840312156114e4576114e3610d32565b5b60006114f2848285016114b9565b91505092915050565b600061150682611260565b91507fffffffffffffffffffffffffffffffffffffffffffffffffffffffffffffffff821415611539576115386112c3565b5b600182019050919050565b6000808335600160200384360303811261156157611560610fb8565b5b80840192508235915067ffffffffffffffff82111561158357611582610fbd565b5b60208301925060208202360383131561159f5761159e610fc2565b5b509250929050565b600080833560016020038436030381126115c4576115c3610fb8565b5b80840192508235915067ffffffffffffffff8211156115e6576115e5610fbd565b5b60208301925060208202360383131561160257611601610fc2565b5b509250929050565b61161381611498565b82525050565b600081519050919050565b600082825260208201905092915050565b6000819050602082019050919050565b61164e81611498565b82525050565b60006116608383611645565b60208301905092915050565b6000602082019050919050565b600061168482611619565b61168e8185611624565b935061169983611635565b8060005b838110156116ca5781516116b18882611654565b97506116bc8361166c565b92505060018101905061169d565b5085935050505092915050565b60006116e38385611624565b93507f07ffffffffffffffffffffffffffffffffffffffffffffffffffffffffffffff8311156117165761171561103b565b5b602083029250611727838584611040565b82840190509392505050565b600082825260208201905092915050565b6000819050919050565b60008115159050919050565b6117638161174e565b82525050565b6000611775838361175a565b60208301905092915050565b61178a8161174e565b811461179557600080fd5b50565b6000813590506117a781611781565b92915050565b60006117bc6020840184611798565b905092915050565b6000602082019050919050565b60006117dd8385611733565b93506117e882611744565b8060005b85811015611821576117fe82846117ad565b6118088882611769565b9750611813836117c4565b9250506001810190506117ec565b5085925050509392505050565b6000608082019050611843600083018961160a565b81810360208301526118558188611679565b9050818103604083015261186a8186886116d7565b9050818103606083015261187f8184866117d1565b9050979650505050505050565b60008151905061189b81611781565b92915050565b6000602082840312156118b7576118b6610d32565b5b60006118c58482850161188c565b91505092915050565b7f696e76616c69642070726f6f6600000000000000000000000000000000000000600082015250565b6000611904600d83610ecf565b915061190f826118ce565b602082019050919050565b60006020820190508181036000830152611933816118f7565b9050919050565b600061194582611260565b915061195083611260565b9250817fffffffffffffffffffffffffffffffffffffffffffffffffffffffffffffffff0483118215151615611989576119886112c3565b5b828202905092915050565b7f5361666545524332303a204552433230206f7065726174696f6e20646964206e60008201527f6f74207375636365656400000000000000000000000000000000000000000000602082015250565b60006119f0602a83610ecf565b91506119fb82611994565b604082019050919050565b60006020820190508181036000830152611a1f816119e3565b9050919050565b7f416464726573733a20696e73756666696369656e742062616c616e636520666f60008201527f722063616c6c0000000000000000000000000000000000000000000000000000602082015250565b6000611a82602683610ecf565b9150611a8d82611a26565b604082019050919050565b60006020820190508181036000830152611ab181611a75565b9050919050565b7f416464726573733a2063616c6c20746f206e6f6e2d636f6e7472616374000000600082015250565b6000611aee601d83610ecf565b9150611af982611ab8565b602082019050919050565b60006020820190508181036000830152611b1d81611ae1565b9050919050565b600081519050919050565b6000601f19601f8301169050919050565b6000611b4b82611b24565b611b558185610ecf565b9350611b6581856020860161141d565b611b6e81611b2f565b840191505092915050565b60006020820190508181036000830152611b938184611b40565b90509291505056fea264697066735822122080f713636f557df2e0b7615176201d34480cb5779ddf4c9f8a52cdffdf1b4dcc64736f6c63430008090033",
  "deployedBytecode": "0x6080604052600436106100345760003560e01c806307da1a3d14610039578063bcd1de8a14610055578063fbbb1ef914610080575b600080fd5b610053600480360381019061004e9190610d60565b6100a9565b005b34801561006157600080fd5b5061006a6102c3565b6040516100779190610dea565b60405180910390f35b34801561008c57600080fd5b506100a760048036038101906100a29190610e31565b6102c8565b005b6000806100b5836104c6565b91509150600073ffffffffffffffffffffffffffffffffffffffff168273ffffffffffffffffffffffffffffffffffffffff166373fa4e6e6040518163ffffffff1660e01b815260040160206040518083038186803b15801561011757600080fd5b505afa15801561012b573d6000803e3d6000fd5b505050506040513d601f19601f8201168201806040525081019061014f9190610ea2565b73ffffffffffffffffffffffffffffffffffffffff16146101a5576040517f08c379a000000000000000000000000000000000000000000000000000000000815260040161019c90610f2c565b60405180910390fd5b803410156101e8576040517f08c379a00000000000000000000000000000000000000000000000000000000081526004016101df90610f98565b60405180910390fd5b8173ffffffffffffffffffffffffffffffffffffffff166108fc349081150290604051600060405180830381858888f1935050505015801561022e573d6000803e3d6000fd5b508173ffffffffffffffffffffffffffffffffffffffff166332f1a34c3385806020019061025c9190610fc7565b87806060019061026c9190610fc7565b6040518663ffffffff1660e01b815260040161028c9594939291906110ab565b600060405180830381600087803b1580156102a657600080fd5b505af11580156102ba573d6000803e3d6000fd5b50505050505050565b600081565b6000806102d4836104c6565b915091508373ffffffffffffffffffffffffffffffffffffffff168273ffffffffffffffffffffffffffffffffffffffff166373fa4e6e6040518163ffffffff1660e01b815260040160206040518083038186803b15801561033557600080fd5b505afa158015610349573d6000803e3d6000fd5b505050506040513d601f19601f8201168201806040525081019061036d9190610ea2565b73ffffffffffffffffffffffffffffffffffffffff16146103c3576040517f08c379a00000000000000000000000000000000000000000000000000000000081526004016103ba90611140565b60405180910390fd5b60008490506103f330838373ffffffffffffffffffffffffffffffffffffffff166105b49092919063ffffffff16565b610430846000016020810190610409919061119e565b838373ffffffffffffffffffffffffffffffffffffffff166106d59092919063ffffffff16565b8273ffffffffffffffffffffffffffffffffffffffff166332f1a34c3386806020019061045d9190610fc7565b88806060019061046d9190610fc7565b6040518663ffffffff1660e01b815260040161048d9594939291906110ab565b600060405180830381600087803b1580156104a757600080fd5b505af11580156104bb573d6000803e3d6000fd5b505050505050505050565b6000808280602001906104d99190610fc7565b90508380604001906104eb9190610fc7565b905014801561051b57508280606001906105059190610fc7565b90508380604001906105179190610fc7565b9050145b61055a576040517f08c379a000000000000000000000000000000000000000000000000000000000815260040161055190611217565b60405180910390fd5b600083600001602081019061056f919061119e565b905061057b818561075b565b60006105a58580602001906105909190610fc7565b8780604001906105a09190610fc7565b610a35565b90508181935093505050915091565b6000818473ffffffffffffffffffffffffffffffffffffffff1663dd62ed3e30866040518363ffffffff1660e01b81526004016105f2929190611237565b60206040518083038186803b15801561060a57600080fd5b505afa15801561061e573d6000803e3d6000fd5b505050506040513d601f19601f820116820180604052508101906106429190611296565b61064c91906112f2565b90506106cf8463095ea7b360e01b858460405160240161066d929190611357565b604051602081830303815290604052907bffffffffffffffffffffffffffffffffffffffffffffffffffffffff19166020820180517bffffffffffffffffffffffffffffffffffffffffffffffffffffffff8381831617835250505050610ab5565b50505050565b6107568363a9059cbb60e01b84846040516024016106f4929190611357565b604051602081830303815290604052907bffffffffffffffffffffffffffffffffffffffffffffffffffffffff19166020820180517bffffffffffffffffffffffffffffffffffffffffffffffffffffffff8381831617835250505050610ab5565b505050565b600081806020019061076d9190610fc7565b905067ffffffffffffffff81111561078857610787611380565b5b6040519080825280602002602001820160405280156107b65781602001602082028036833780820191505090505b50905060005b8280602001906107cc9190610fc7565b90508110156108c65760028380606001906107e79190610fc7565b838181106107f8576107f76113af565b5b9050602002013584806040019061080f9190610fc7565b848181106108205761081f6113af565b5b905060200201356040516020016108389291906113de565b6040516020818303038152906040526040516108549190611481565b602060405180830381855afa158015610871573d6000803e3d6000fd5b5050506040513d601f19601f8201168201806040525081019061089491906114ce565b8282815181106108a7576108a66113af565b5b60200260200101818152505080806108be906114fb565b9150506107bc565b5073__$7b197934c90dcfa0b899e535ea3e07532e$__6327c9009d8473ffffffffffffffffffffffffffffffffffffffff16637c5b3d9a6040518163ffffffff1660e01b815260040160206040518083038186803b15801561092757600080fd5b505afa15801561093b573d6000803e3d6000fd5b505050506040513d601f19601f8201168201806040525081019061095f91906114ce565b838580608001906109709190611544565b878060a0019061098091906115a7565b6040518763ffffffff1660e01b81526004016109a19695949392919061182e565b60206040518083038186803b1580156109b957600080fd5b505af41580156109cd573d6000803e3d6000fd5b505050506040513d601f19601f820116820180604052508101906109f191906118a1565b610a30576040517f08c379a0000000000000000000000000000000000000000000000000000000008152600401610a279061191a565b60405180910390fd5b505050565b6000806000905060005b86869050811015610aa857868682818110610a5d57610a5c6113af565b5b90506020020135858583818110610a7757610a766113af565b5b90506020020135610a88919061193a565b82610a9391906112f2565b91508080610aa0906114fb565b915050610a3f565b5080915050949350505050565b6000610b17826040518060400160405280602081526020017f5361666545524332303a206c6f772d6c6576656c2063616c6c206661696c65648152508573ffffffffffffffffffffffffffffffffffffffff16610b7c9092919063ffffffff16565b9050600081511115610b775780806020019051810190610b3791906118a1565b610b76576040517f08c379a0000000000000000000000000000000000000000000000000000000008152600401610b6d90611a06565b60405180910390fd5b5b505050565b6060610b8b8484600085610b94565b90509392505050565b606082471015610bd9576040517f08c379a0000000000000000000000000000000000000000000000000000000008152600401610bd090611a98565b60405180910390fd5b610be285610ca8565b610c21576040517f08c379a0000000000000000000000000000000000000000000000000000000008152600401610c1890611b04565b60405180910390fd5b6000808673ffffffffffffffffffffffffffffffffffffffff168587604051610c4a9190611481565b60006040518083038185875af1925050503d8060008114610c87576040519150601f19603f3d011682016040523d82523d6000602084013e610c8c565b606091505b5091509150610c9c828286610ccb565b92505050949350505050565b6000808273ffffffffffffffffffffffffffffffffffffffff163b119050919050565b60608315610cdb57829050610d2b565b600083511115610cee5782518084602001fd5b816040517f08c379a0000000000000000000000000000000000000000000000000000000008152600401610d229190611b79565b60405180910390fd5b9392505050565b600080fd5b600080fd5b600080fd5b600060c08284031215610d5757610d56610d3c565b5b81905092915050565b600060208284031215610d7657610d75610d32565b5b600082013567ffffffffffffffff811115610d9457610d93610d37565b5b610da084828501610d41565b91505092915050565b600073ffffffffffffffffffffffffffffffffffffffff82169050919050565b6000610dd482610da9565b9050919050565b610de481610dc9565b82525050565b6000602082019050610dff6000830184610ddb565b92915050565b610e0e81610dc9565b8114610e1957600080fd5b50565b600081359050610e2b81610e05565b92915050565b60008060408385031215610e4857610e47610d32565b5b6000610e5685828601610e1c565b925050602083013567ffffffffffffffff811115610e7757610e76610d37565b5b610e8385828601610d41565b9150509250929050565b600081519050610e9c81610e05565b92915050565b600060208284031215610eb857610eb7610d32565b5b6000610ec684828501610e8d565b91505092915050565b600082825260208201905092915050565b7f6574686572206e6f742061636365707465640000000000000000000000000000600082015250565b6000610f16601283610ecf565b9150610f2182610ee0565b602082019050919050565b60006020820190508181036000830152610f4581610f09565b9050919050565b7f696e76616c696420616d6f756e74000000000000000000000000000000000000600082015250565b6000610f82600e83610ecf565b9150610f8d82610f4c565b602082019050919050565b60006020820190508181036000830152610fb181610f75565b9050919050565b600080fd5b600080fd5b600080fd5b60008083356001602003843603038112610fe457610fe3610fb8565b5b80840192508235915067ffffffffffffffff82111561100657611005610fbd565b5b60208301925060208202360383131561102257611021610fc2565b5b509250929050565b600082825260208201905092915050565b600080fd5b82818337600083830152505050565b600061105b838561102a565b93507f07ffffffffffffffffffffffffffffffffffffffffffffffffffffffffffffff83111561108e5761108d61103b565b5b60208302925061109f838584611040565b82840190509392505050565b60006060820190506110c06000830188610ddb565b81810360208301526110d381868861104f565b905081810360408301526110e881848661104f565b90509695505050505050565b7f746f6b656e206e6f742061636365707465640000000000000000000000000000600082015250565b600061112a601283610ecf565b9150611135826110f4565b602082019050919050565b600060208201905081810360008301526111598161111d565b9050919050565b600061116b82610da9565b9050919050565b61117b81611160565b811461118657600080fd5b50565b60008135905061119881611172565b92915050565b6000602082840312156111b4576111b3610d32565b5b60006111c284828501611189565b91505092915050565b7f696e76616c696420617267730000000000000000000000000000000000000000600082015250565b6000611201600c83610ecf565b915061120c826111cb565b602082019050919050565b60006020820190508181036000830152611230816111f4565b9050919050565b600060408201905061124c6000830185610ddb565b6112596020830184610ddb565b9392505050565b6000819050919050565b61127381611260565b811461127e57600080fd5b50565b6000815190506112908161126a565b92915050565b6000602082840312156112ac576112ab610d32565b5b60006112ba84828501611281565b91505092915050565b7f4e487b7100000000000000000000000000000000000000000000000000000000600052601160045260246000fd5b60006112fd82611260565b915061130883611260565b9250827fffffffffffffffffffffffffffffffffffffffffffffffffffffffffffffffff0382111561133d5761133c6112c3565b5b828201905092915050565b61135181611260565b82525050565b600060408201905061136c6000830185610ddb565b6113796020830184611348565b9392505050565b7f4e487b7100000000000000000000000000000000000000000000000000000000600052604160045260246000fd5b7f4e487b7100000000000000000000000000000000000000000000000000000000600052603260045260246000fd5b60006040820190506113f36000830185611348565b6114006020830184611348565b9392505050565b600081519050919050565b600081905092915050565b60005b8381101561143b578082015181840152602081019050611420565b8381111561144a576000848401525b50505050565b600061145b82611407565b6114658185611412565b935061147581856020860161141d565b80840191505092915050565b600061148d8284611450565b915081905092915050565b6000819050919050565b6114ab81611498565b81146114b657600080fd5b50565b6000815190506114c8816114a2565b92915050565b6000602082840312156114e4576114e3610d32565b5b60006114f2848285016114b9565b91505092915050565b600061150682611260565b91507fffffffffffffffffffffffffffffffffffffffffffffffffffffffffffffffff821415611539576115386112c3565b5b600182019050919050565b6000808335600160200384360303811261156157611560610fb8565b5b80840192508235915067ffffffffffffffff82111561158357611582610fbd565b5b60208301925060208202360383131561159f5761159e610fc2565b5b509250929050565b600080833560016020038436030381126115c4576115c3610fb8565b5b80840192508235915067ffffffffffffffff8211156115e6576115e5610fbd565b5b60208301925060208202360383131561160257611601610fc2565b5b509250929050565b61161381611498565b82525050565b600081519050919050565b600082825260208201905092915050565b6000819050602082019050919050565b61164e81611498565b82525050565b60006116608383611645565b60208301905092915050565b6000602082019050919050565b600061168482611619565b61168e8185611624565b935061169983611635565b8060005b838110156116ca5781516116b18882611654565b97506116bc8361166c565b92505060018101905061169d565b5085935050505092915050565b60006116e38385611624565b93507f07ffffffffffffffffffffffffffffffffffffffffffffffffffffffffffffff8311156117165761171561103b565b5b602083029250611727838584611040565b82840190509392505050565b600082825260208201905092915050565b6000819050919050565b60008115159050919050565b6117638161174e565b82525050565b6000611775838361175a565b60208301905092915050565b61178a8161174e565b811461179557600080fd5b50565b6000813590506117a781611781565b92915050565b60006117bc6020840184611798565b905092915050565b6000602082019050919050565b60006117dd8385611733565b93506117e882611744565b8060005b85811015611821576117fe82846117ad565b6118088882611769565b9750611813836117c4565b9250506001810190506117ec565b5085925050509392505050565b6000608082019050611843600083018961160a565b81810360208301526118558188611679565b9050818103604083015261186a8186886116d7565b9050818103606083015261187f8184866117d1565b9050979650505050505050565b60008151905061189b81611781565b92915050565b6000602082840312156118b7576118b6610d32565b5b60006118c58482850161188c565b91505092915050565b7f696e76616c69642070726f6f6600000000000000000000000000000000000000600082015250565b6000611904600d83610ecf565b915061190f826118ce565b602082019050919050565b60006020820190508181036000830152611933816118f7565b9050919050565b600061194582611260565b915061195083611260565b9250817fffffffffffffffffffffffffffffffffffffffffffffffffffffffffffffffff0483118215151615611989576119886112c3565b5b828202905092915050565b7f5361666545524332303a204552433230206f7065726174696f6e20646964206e60008201527f6f74207375636365656400000000000000000000000000000000000000000000602082015250565b60006119f0602a83610ecf565b91506119fb82611994565b604082019050919050565b60006020820190508181036000830152611a1f816119e3565b9050919050565b7f416464726573733a20696e73756666696369656e742062616c616e636520666f60008201527f722063616c6c0000000000000000000000000000000000000000000000000000602082015250565b6000611a82602683610ecf565b9150611a8d82611a26565b604082019050919050565b60006020820190508181036000830152611ab181611a75565b9050919050565b7f416464726573733a2063616c6c20746f206e6f6e2d636f6e7472616374000000600082015250565b6000611aee601d83610ecf565b9150611af982611ab8565b602082019050919050565b60006020820190508181036000830152611b1d81611ae1565b9050919050565b600081519050919050565b6000601f19601f8301169050919050565b6000611b4b82611b24565b611b558185610ecf565b9350611b6581856020860161141d565b611b6e81611b2f565b840191505092915050565b60006020820190508181036000830152611b938184611b40565b90509291505056fea264697066735822122080f713636f557df2e0b7615176201d34480cb5779ddf4c9f8a52cdffdf1b4dcc64736f6c63430008090033",
  "libraries": {
    "MerkleMultiProof": "0x260B13D233FDE4ee9929d6E751c4d82C30AD2d67"
  },
  "devdoc": {
    "kind": "dev",
    "methods": {},
    "version": 1
  },
  "userdoc": {
    "kind": "user",
    "methods": {},
    "notice": "This contract should be able to accept \"any\" ERC20, token, convert it to the target currency of the shop owner and then trigger the purchase of the items.",
    "version": 1
  },
  "storageLayout": {
    "storage": [],
    "types": null
  }
}