{
  "address": "0x260B13D233FDE4ee9929d6E751c4d82C30AD2d67",
  "abi": [
    {
      "inputs": [
        {
          "internalType": "bytes32",
          "name": "root",
          "type": "bytes32"
        },
        {
          "internalType": "bytes32[]",
          "name": "leafs",
          "type": "bytes32[]"
        },
        {
          "internalType": "bytes32[]",
          "name": "proofs",
          "type": "bytes32[]"
        },
        {
          "internalType": "bool[]",
          "name": "proofFlag",
          "type": "bool[]"
        }
      ],
      "name": "verify",
      "outputs": [
        {
          "internalType": "bool",
          "name": "",
          "type": "bool"
        }
      ],
      "stateMutability": "pure",
      "type": "function"
    }
  ],
  "transactionHash": "0x88a4731b1bcdde509686e9d1507bcf07b524132452b8b36e5325f42a025a84f8",
  "args": [],
  "numDeployments": 1,
  "solcInputHash": "a9247640be23b7ec9a072867765274d2",
  "bytecode": "0x610840610053600b82828239805160001a607314610046577f4e487b7100000000000000000000000000000000000000000000000000000000600052600060045260246000fd5b30600052607381538281f3fe73000000000000000000000000000000000000000030146080604052600436106100355760003560e01c806327c9009d1461003a575b600080fd5b610054600480360381019061004f919061054d565b61006a565b6040516100619190610607565b60405180910390f35b600084610078858585610083565b149050949350505050565b6000808451905060008351905060008167ffffffffffffffff8111156100d2577f4e487b7100000000000000000000000000000000000000000000000000000000600052604160045260246000fd5b6040519080825280602002602001820160405280156101005781602001602082028036833780820191505090505b5090506000806000805b858110156103585761030089828151811061014e577f4e487b7100000000000000000000000000000000000000000000000000000000600052603260045260246000fd5b60200260200101516101ac578a838061016690610724565b94508151811061019f577f4e487b7100000000000000000000000000000000000000000000000000000000600052603260045260246000fd5b6020026020010151610254565b878510610205578584806101bf90610724565b9550815181106101f8577f4e487b7100000000000000000000000000000000000000000000000000000000600052603260045260246000fd5b6020026020010151610253565b8b858061021190610724565b96508151811061024a577f4e487b7100000000000000000000000000000000000000000000000000000000600052603260045260246000fd5b60200260200101515b5b8886106102ad5786858061026790610724565b9650815181106102a0577f4e487b7100000000000000000000000000000000000000000000000000000000600052603260045260246000fd5b60200260200101516102fb565b8c86806102b990610724565b9750815181106102f2577f4e487b7100000000000000000000000000000000000000000000000000000000600052603260045260246000fd5b60200260200101515b6103b5565b858281518110610339577f4e487b7100000000000000000000000000000000000000000000000000000000600052603260045260246000fd5b602002602001018181525050808061035090610724565b91505061010a565b5083600186610367919061069f565b8151811061039e577f4e487b7100000000000000000000000000000000000000000000000000000000600052603260045260246000fd5b602002602001015196505050505050509392505050565b60008183106103cd576103c882846103e0565b6103d8565b6103d783836103e0565b5b905092915050565b600082600052816020526040600020905092915050565b600061040a61040584610647565b610622565b9050808382526020820190508285602086028201111561042957600080fd5b60005b85811015610459578161043f8882610523565b84526020840193506020830192505060018101905061042c565b5050509392505050565b600061047661047184610673565b610622565b9050808382526020820190508285602086028201111561049557600080fd5b60005b858110156104c557816104ab8882610538565b845260208401935060208301925050600181019050610498565b5050509392505050565b600082601f8301126104e057600080fd5b81356104f08482602086016103f7565b91505092915050565b600082601f83011261050a57600080fd5b813561051a848260208601610463565b91505092915050565b600081359050610532816107dc565b92915050565b600081359050610547816107f3565b92915050565b6000806000806080858703121561056357600080fd5b600061057187828801610538565b945050602085013567ffffffffffffffff81111561058e57600080fd5b61059a878288016104f9565b935050604085013567ffffffffffffffff8111156105b757600080fd5b6105c3878288016104f9565b925050606085013567ffffffffffffffff8111156105e057600080fd5b6105ec878288016104cf565b91505092959194509250565b610601816106d3565b82525050565b600060208201905061061c60008301846105f8565b92915050565b600061062c61063d565b905061063882826106f3565b919050565b6000604051905090565b600067ffffffffffffffff8211156106625761066161079c565b5b602082029050602081019050919050565b600067ffffffffffffffff82111561068e5761068d61079c565b5b602082029050602081019050919050565b60006106aa826106e9565b91506106b5836106e9565b9250828210156106c8576106c761076d565b5b828203905092915050565b60008115159050919050565b6000819050919050565b6000819050919050565b6106fc826107cb565b810181811067ffffffffffffffff8211171561071b5761071a61079c565b5b80604052505050565b600061072f826106e9565b91507fffffffffffffffffffffffffffffffffffffffffffffffffffffffffffffffff8214156107625761076161076d565b5b600182019050919050565b7f4e487b7100000000000000000000000000000000000000000000000000000000600052601160045260246000fd5b7f4e487b7100000000000000000000000000000000000000000000000000000000600052604160045260246000fd5b6000601f19601f8301169050919050565b6107e5816106d3565b81146107f057600080fd5b50565b6107fc816106df565b811461080757600080fd5b5056fea2646970667358221220579370900e8f3d805c8d5a4d15bdaad973ed5e57ee3cbe9a3efd610ab0408fb264736f6c63430008040033",
  "devdoc": {
    "author": "Ricardo Guilherme Schmidt (Status Research & Development GmbH)",
    "kind": "dev",
    "methods": {
      "verify(bytes32,bytes32[],bytes32[],bool[])": {
        "params": {
          "leafs": "out of order sequence of leafs and it's siblings",
          "proofFlag": "flags for using or not proofs while hashing against hashes.",
          "proofs": "out of order sequence of parent proofs",
          "root": "merkle root"
        }
      }
    },
    "version": 1
  },
  "userdoc": {
    "kind": "user",
    "methods": {
      "verify(bytes32,bytes32[],bytes32[],bool[])": {
        "notice": "Check validity of multimerkle proof"
      }
    },
    "notice": "based on https://github.com/ethereum/eth2.0-specs/blob/dev/ssz/merkle-proofs.md#merkle-multiproofs but without generalized indexes Source: https://github.com/miguelmota/merkletreejs-multiproof-solidity MIT License",
    "version": 1
  },
  "storageLayout": {
    "storage": [],
    "types": null
  }
}