{
  "address": "0xf6A7028cc183b38e3c615B5Aa0731012DA09Bdd3",
  "abi": [
    {
      "inputs": [
        {
          "internalType": "bytes32",
          "name": "root",
          "type": "bytes32"
        },
        {
          "internalType": "bytes32[]",
          "name": "leafs",
          "type": "bytes32[]"
        },
        {
          "internalType": "bytes32[]",
          "name": "proofs",
          "type": "bytes32[]"
        },
        {
          "internalType": "bool[]",
          "name": "proofFlag",
          "type": "bool[]"
        }
      ],
      "name": "verify",
      "outputs": [
        {
          "internalType": "bool",
          "name": "",
          "type": "bool"
        }
      ],
      "stateMutability": "pure",
      "type": "function"
    }
  ],
  "transactionHash": "0xd2f48cafaff3c0be44ec93279c5410e0620dcc405d92b6b71d635226da1e6843",
  "args": [],
  "numDeployments": 2,
  "solcInputHash": "cbc95bceb8479435f335777c6fd36c31",
  "bytecode": "0x61073f610053600b82828239805160001a607314610046577f4e487b7100000000000000000000000000000000000000000000000000000000600052600060045260246000fd5b30600052607381538281f3fe73000000000000000000000000000000000000000030146080604052600436106100355760003560e01c806327c9009d1461003a575b600080fd5b610054600480360381019061004f919061053f565b61006a565b6040516100619190610609565b60405180910390f35b600084610078858585610083565b149050949350505050565b6000808451905060008351905060008167ffffffffffffffff8111156100ac576100ab610301565b5b6040519080825280602002602001820160405280156100da5781602001602082028036833780820191505090505b5090506000806000805b85811015610228576101f689828151811061010257610101610624565b5b602002602001015161013a578a838061011a9061068c565b94508151811061012d5761012c610624565b5b6020026020010151610196565b87851061016d5785848061014d9061068c565b9550815181106101605761015f610624565b5b6020026020010151610195565b8b85806101799061068c565b96508151811061018c5761018b610624565b5b60200260200101515b5b8886106101c9578685806101a99061068c565b9650815181106101bc576101bb610624565b5b60200260200101516101f1565b8c86806101d59061068c565b9750815181106101e8576101e7610624565b5b60200260200101515b61025f565b85828151811061020957610208610624565b5b60200260200101818152505080806102209061068c565b9150506100e4565b508360018661023791906106d5565b8151811061024857610247610624565b5b602002602001015196505050505050509392505050565b600081831061027757610272828461028a565b610282565b610281838361028a565b5b905092915050565b600082600052816020526040600020905092915050565b6000604051905090565b600080fd5b600080fd5b6000819050919050565b6102c8816102b5565b81146102d357600080fd5b50565b6000813590506102e5816102bf565b92915050565b600080fd5b6000601f19601f8301169050919050565b7f4e487b7100000000000000000000000000000000000000000000000000000000600052604160045260246000fd5b610339826102f0565b810181811067ffffffffffffffff8211171561035857610357610301565b5b80604052505050565b600061036b6102a1565b90506103778282610330565b919050565b600067ffffffffffffffff82111561039757610396610301565b5b602082029050602081019050919050565b600080fd5b60006103c06103bb8461037c565b610361565b905080838252602082019050602084028301858111156103e3576103e26103a8565b5b835b8181101561040c57806103f888826102d6565b8452602084019350506020810190506103e5565b5050509392505050565b600082601f83011261042b5761042a6102eb565b5b813561043b8482602086016103ad565b91505092915050565b600067ffffffffffffffff82111561045f5761045e610301565b5b602082029050602081019050919050565b60008115159050919050565b61048581610470565b811461049057600080fd5b50565b6000813590506104a28161047c565b92915050565b60006104bb6104b684610444565b610361565b905080838252602082019050602084028301858111156104de576104dd6103a8565b5b835b8181101561050757806104f38882610493565b8452602084019350506020810190506104e0565b5050509392505050565b600082601f830112610526576105256102eb565b5b81356105368482602086016104a8565b91505092915050565b60008060008060808587031215610559576105586102ab565b5b6000610567878288016102d6565b945050602085013567ffffffffffffffff811115610588576105876102b0565b5b61059487828801610416565b935050604085013567ffffffffffffffff8111156105b5576105b46102b0565b5b6105c187828801610416565b925050606085013567ffffffffffffffff8111156105e2576105e16102b0565b5b6105ee87828801610511565b91505092959194509250565b61060381610470565b82525050565b600060208201905061061e60008301846105fa565b92915050565b7f4e487b7100000000000000000000000000000000000000000000000000000000600052603260045260246000fd5b7f4e487b7100000000000000000000000000000000000000000000000000000000600052601160045260246000fd5b6000819050919050565b600061069782610682565b91507fffffffffffffffffffffffffffffffffffffffffffffffffffffffffffffffff8214156106ca576106c9610653565b5b600182019050919050565b60006106e082610682565b91506106eb83610682565b9250828210156106fe576106fd610653565b5b82820390509291505056fea2646970667358221220986859ceceb8f16692cd3d81394207e76e942ac67471f4e4f72170e92cb0409e64736f6c63430008090033",
  "devdoc": {
    "author": "Ricardo Guilherme Schmidt (Status Research & Development GmbH)",
    "kind": "dev",
    "methods": {
      "verify(bytes32,bytes32[],bytes32[],bool[])": {
        "params": {
          "leafs": "out of order sequence of leafs and it's siblings",
          "proofFlag": "flags for using or not proofs while hashing against hashes.",
          "proofs": "out of order sequence of parent proofs",
          "root": "merkle root"
        }
      }
    },
    "version": 1
  },
  "userdoc": {
    "kind": "user",
    "methods": {
      "verify(bytes32,bytes32[],bytes32[],bool[])": {
        "notice": "Check validity of multimerkle proof"
      }
    },
    "notice": "based on https://github.com/ethereum/eth2.0-specs/blob/dev/ssz/merkle-proofs.md#merkle-multiproofs but without generalized indexes Source: https://github.com/miguelmota/merkletreejs-multiproof-solidity MIT License",
    "version": 1
  },
  "storageLayout": {
    "storage": [],
    "types": null
  }
}