{
  "address": "0xd11bfA9bBe0F43960FEc4aE5677aE09Cb4059F7a",
  "abi": [
    {
      "inputs": [],
      "stateMutability": "nonpayable",
      "type": "constructor"
    },
    {
      "anonymous": false,
      "inputs": [
        {
          "indexed": true,
          "internalType": "address",
          "name": "owner",
          "type": "address"
        },
        {
          "indexed": false,
          "internalType": "address",
          "name": "shop",
          "type": "address"
        }
      ],
      "name": "Created",
      "type": "event"
    },
    {
      "inputs": [
        {
          "internalType": "address",
          "name": "owner",
          "type": "address"
        },
        {
          "internalType": "string",
          "name": "shopConfig",
          "type": "string"
        },
        {
          "internalType": "string",
          "name": "ownerNftId",
          "type": "string"
        },
        {
          "internalType": "bytes32",
          "name": "salt",
          "type": "bytes32"
        }
      ],
      "name": "createShop",
      "outputs": [
        {
          "internalType": "address",
          "name": "",
          "type": "address"
        }
      ],
      "stateMutability": "nonpayable",
      "type": "function"
    }
  ],
  "transactionHash": "0xea488a2205a92cf9d8ee6ec8cb0ab9942e14cee93e9118a9621a5e5181e03ef6",
  "args": [],
  "numDeployments": 1,
  "solcInputHash": "7bf2cd2ae4c36ffdb906e3c5d5e651d8",
  "bytecode": "0x608060405234801561001057600080fd5b506155c3806100206000396000f3fe60806040523480156200001157600080fd5b50600436106200002e5760003560e01c8063fdf960481462000033575b600080fd5b6200005160048036038101906200004b9190620001ba565b62000069565b604051620000609190620002aa565b60405180910390f35b600080828686866040516200007e906200010c565b6200008c93929190620002c7565b8190604051809103906000f5905080158015620000ad573d6000803e3d6000fd5b5090508573ffffffffffffffffffffffffffffffffffffffff167f587ece4cd19692c5be1a4184503d607d45542d2aca0698c0068f52e09ccb541c82604051620000f89190620002aa565b60405180910390a280915050949350505050565b6150d380620004bb83390190565b6000620001316200012b846200033b565b62000312565b9050828152602081018484840111156200014a57600080fd5b62000157848285620003cb565b509392505050565b600081359050620001708162000486565b92915050565b6000813590506200018781620004a0565b92915050565b600082601f8301126200019f57600080fd5b8135620001b18482602086016200011a565b91505092915050565b60008060008060808587031215620001d157600080fd5b6000620001e1878288016200015f565b945050602085013567ffffffffffffffff811115620001ff57600080fd5b6200020d878288016200018d565b935050604085013567ffffffffffffffff8111156200022b57600080fd5b62000239878288016200018d565b92505060606200024c8782880162000176565b91505092959194509250565b62000263816200038d565b82525050565b6000620002768262000371565b6200028281856200037c565b935062000294818560208601620003da565b6200029f8162000475565b840191505092915050565b6000602082019050620002c1600083018462000258565b92915050565b6000606082019050620002de600083018662000258565b8181036020830152620002f2818562000269565b9050818103604083015262000308818462000269565b9050949350505050565b60006200031e62000331565b90506200032c828262000410565b919050565b6000604051905090565b600067ffffffffffffffff82111562000359576200035862000446565b5b620003648262000475565b9050602081019050919050565b600081519050919050565b600082825260208201905092915050565b60006200039a82620003ab565b9050919050565b6000819050919050565b600073ffffffffffffffffffffffffffffffffffffffff82169050919050565b82818337600083830152505050565b60005b83811015620003fa578082015181840152602081019050620003dd565b838111156200040a576000848401525b50505050565b6200041b8262000475565b810181811067ffffffffffffffff821117156200043d576200043c62000446565b5b80604052505050565b7f4e487b7100000000000000000000000000000000000000000000000000000000600052604160045260246000fd5b6000601f19601f8301169050919050565b62000491816200038d565b81146200049d57600080fd5b50565b620004ab81620003a1565b8114620004b757600080fd5b5056fe60806040526001600360006101000a81548160ff0219169083151502179055503480156200002c57600080fd5b50604051620050d3380380620050d383398181016040528101906200005291906200071c565b604051806020016040528060008152506200007381620000e560201b60201c565b50620000998360006001604051806020016040528060008152506200010160201b60201c565b8160059080519060200190620000b1929190620005cc565b5080600660008081526020019081526020016000209080519060200190620000db929190620005cc565b5050505062000e97565b8060029080519060200190620000fd929190620005cc565b5050565b600073ffffffffffffffffffffffffffffffffffffffff168473ffffffffffffffffffffffffffffffffffffffff16141562000174576040517f08c379a00000000000000000000000000000000000000000000000000000000081526004016200016b90620009b5565b60405180910390fd5b600062000186620002c660201b60201c565b9050620001bf81600087620001a188620002ce60201b60201c565b620001b288620002ce60201b60201c565b876200039760201b60201c565b8260008086815260200190815260200160002060008773ffffffffffffffffffffffffffffffffffffffff1673ffffffffffffffffffffffffffffffffffffffff168152602001908152602001600020600082825462000220919062000a9b565b925050819055508473ffffffffffffffffffffffffffffffffffffffff16600073ffffffffffffffffffffffffffffffffffffffff168273ffffffffffffffffffffffffffffffffffffffff167fc3d58168c5ae7397731d063d5bbf3d657854427343f4c083240f7aacaa2d0f628787604051620002a0929190620009d7565b60405180910390a4620002bf816000878787876200039f60201b60201c565b5050505050565b600033905090565b60606000600167ffffffffffffffff81111562000314577f4e487b7100000000000000000000000000000000000000000000000000000000600052604160045260246000fd5b604051908082528060200260200182016040528015620003435781602001602082028036833780820191505090505b509050828160008151811062000382577f4e487b7100000000000000000000000000000000000000000000000000000000600052603260045260246000fd5b60200260200101818152505080915050919050565b505050505050565b620003cb8473ffffffffffffffffffffffffffffffffffffffff16620005a960201b620013c01760201c565b15620005a1578373ffffffffffffffffffffffffffffffffffffffff1663f23a6e6187878686866040518663ffffffff1660e01b815260040162000414959493929190620008e9565b602060405180830381600087803b1580156200042f57600080fd5b505af19250505080156200046357506040513d601f19601f82011682018060405250810190620004609190620007a4565b60015b62000515576200047262000c91565b806308c379a01415620004d657506200048a62000dc1565b80620004975750620004d8565b806040517f08c379a0000000000000000000000000000000000000000000000000000000008152600401620004cd91906200094d565b60405180910390fd5b505b6040517f08c379a00000000000000000000000000000000000000000000000000000000081526004016200050c9062000971565b60405180910390fd5b63f23a6e6160e01b7bffffffffffffffffffffffffffffffffffffffffffffffffffffffff1916817bffffffffffffffffffffffffffffffffffffffffffffffffffffffff1916146200059f576040517f08c379a0000000000000000000000000000000000000000000000000000000008152600401620005969062000993565b60405180910390fd5b505b505050505050565b6000808273ffffffffffffffffffffffffffffffffffffffff163b119050919050565b828054620005da9062000b98565b90600052602060002090601f016020900481019282620005fe57600085556200064a565b82601f106200061957805160ff19168380011785556200064a565b828001600101855582156200064a579182015b82811115620006495782518255916020019190600101906200062c565b5b5090506200065991906200065d565b5090565b5b80821115620006785760008160009055506001016200065e565b5090565b6000620006936200068d8462000a2d565b62000a04565b905082815260208101848484011115620006ac57600080fd5b620006b984828562000b62565b509392505050565b600081519050620006d28162000e63565b92915050565b600081519050620006e98162000e7d565b92915050565b600082601f8301126200070157600080fd5b8151620007138482602086016200067c565b91505092915050565b6000806000606084860312156200073257600080fd5b60006200074286828701620006c1565b935050602084015167ffffffffffffffff8111156200076057600080fd5b6200076e86828701620006ef565b925050604084015167ffffffffffffffff8111156200078c57600080fd5b6200079a86828701620006ef565b9150509250925092565b600060208284031215620007b757600080fd5b6000620007c784828501620006d8565b91505092915050565b620007db8162000af8565b82525050565b6000620007ee8262000a63565b620007fa818562000a79565b93506200080c81856020860162000b62565b620008178162000cb6565b840191505092915050565b60006200082f8262000a6e565b6200083b818562000a8a565b93506200084d81856020860162000b62565b620008588162000cb6565b840191505092915050565b60006200087260348362000a8a565b91506200087f8262000cd4565b604082019050919050565b60006200089960288362000a8a565b9150620008a68262000d23565b604082019050919050565b6000620008c060218362000a8a565b9150620008cd8262000d72565b604082019050919050565b620008e38162000b58565b82525050565b600060a082019050620009006000830188620007d0565b6200090f6020830187620007d0565b6200091e6040830186620008d8565b6200092d6060830185620008d8565b8181036080830152620009418184620007e1565b90509695505050505050565b6000602082019050818103600083015262000969818462000822565b905092915050565b600060208201905081810360008301526200098c8162000863565b9050919050565b60006020820190508181036000830152620009ae816200088a565b9050919050565b60006020820190508181036000830152620009d081620008b1565b9050919050565b6000604082019050620009ee6000830185620008d8565b620009fd6020830184620008d8565b9392505050565b600062000a1062000a23565b905062000a1e828262000bce565b919050565b6000604051905090565b600067ffffffffffffffff82111562000a4b5762000a4a62000c62565b5b62000a568262000cb6565b9050602081019050919050565b600081519050919050565b600081519050919050565b600082825260208201905092915050565b600082825260208201905092915050565b600062000aa88262000b58565b915062000ab58362000b58565b9250827fffffffffffffffffffffffffffffffffffffffffffffffffffffffffffffffff0382111562000aed5762000aec62000c04565b5b828201905092915050565b600062000b058262000b38565b9050919050565b60007fffffffff0000000000000000000000000000000000000000000000000000000082169050919050565b600073ffffffffffffffffffffffffffffffffffffffff82169050919050565b6000819050919050565b60005b8381101562000b8257808201518184015260208101905062000b65565b8381111562000b92576000848401525b50505050565b6000600282049050600182168062000bb157607f821691505b6020821081141562000bc85762000bc762000c33565b5b50919050565b62000bd98262000cb6565b810181811067ffffffffffffffff8211171562000bfb5762000bfa62000c62565b5b80604052505050565b7f4e487b7100000000000000000000000000000000000000000000000000000000600052601160045260246000fd5b7f4e487b7100000000000000000000000000000000000000000000000000000000600052602260045260246000fd5b7f4e487b7100000000000000000000000000000000000000000000000000000000600052604160045260246000fd5b600060033d111562000cb35760046000803e62000cb060005162000cc7565b90505b90565b6000601f19601f8301169050919050565b60008160e01c9050919050565b7f455243313135353a207472616e7366657220746f206e6f6e204552433131353560008201527f526563656976657220696d706c656d656e746572000000000000000000000000602082015250565b7f455243313135353a204552433131353552656365697665722072656a6563746560008201527f6420746f6b656e73000000000000000000000000000000000000000000000000602082015250565b7f455243313135353a206d696e7420746f20746865207a65726f2061646472657360008201527f7300000000000000000000000000000000000000000000000000000000000000602082015250565b600060443d101562000dd35762000e60565b62000ddd62000a23565b60043d036004823e80513d602482011167ffffffffffffffff8211171562000e0757505062000e60565b808201805167ffffffffffffffff81111562000e27575050505062000e60565b80602083010160043d03850181111562000e4657505050505062000e60565b62000e578260200185018662000bce565b82955050505050505b90565b62000e6e8162000af8565b811462000e7a57600080fd5b50565b62000e888162000b0c565b811462000e9457600080fd5b50565b61422c8062000ea76000396000f3fe6080604052600436106100e75760003560e01c8063a22cb4651161008a578063e69925b411610059578063e69925b414610303578063e985e9c51461031f578063f242432a1461035c578063f96d693114610385576100e7565b8063a22cb4651461025d578063ae049e0d14610286578063db8ef515146102b1578063dc172991146102da576100e7565b80632eb2c2d6116100c65780632eb2c2d6146101a3578063431e9433146101cc5780634846ff7e146101f75780634e1273f414610220576100e7565b8062fdd58e146100ec57806301ffc9a7146101295780630e89341c14610166575b600080fd5b3480156100f857600080fd5b50610113600480360381019061010e9190612b3d565b6103ae565b60405161012091906136df565b60405180910390f35b34801561013557600080fd5b50610150600480360381019061014b9190612cfd565b610477565b60405161015d919061344d565b60405180910390f35b34801561017257600080fd5b5061018d60048036038101906101889190612da3565b610559565b60405161019a91906134dd565b60405180910390f35b3480156101af57600080fd5b506101ca60048036038101906101c591906129b3565b610606565b005b3480156101d857600080fd5b506101e16106a7565b6040516101ee9190613468565b60405180910390f35b34801561020357600080fd5b5061021e6004803603810190610219919061294e565b6106ad565b005b34801561022c57600080fd5b5061024760048036038101906102429190612b79565b610793565b60405161025491906133f4565b60405180910390f35b34801561026957600080fd5b50610284600480360381019061027f9190612b01565b610944565b005b34801561029257600080fd5b5061029b61095a565b6040516102a891906134dd565b60405180910390f35b3480156102bd57600080fd5b506102d860048036038101906102d39190612dcc565b6109e8565b005b3480156102e657600080fd5b5061030160048036038101906102fc9190612d4f565b610c24565b005b61031d60048036038101906103189190612be5565b610ce2565b005b34801561032b57600080fd5b5061034660048036038101906103419190612977565b6111bb565b604051610353919061344d565b60405180910390f35b34801561036857600080fd5b50610383600480360381019061037e9190612a72565b61124f565b005b34801561039157600080fd5b506103ac60048036038101906103a7919061294e565b6112f0565b005b60008073ffffffffffffffffffffffffffffffffffffffff168373ffffffffffffffffffffffffffffffffffffffff16141561041f576040517f08c379a00000000000000000000000000000000000000000000000000000000081526004016104169061353f565b60405180910390fd5b60008083815260200190815260200160002060008473ffffffffffffffffffffffffffffffffffffffff1673ffffffffffffffffffffffffffffffffffffffff16815260200190815260200160002054905092915050565b60007fd9b67a26000000000000000000000000000000000000000000000000000000007bffffffffffffffffffffffffffffffffffffffffffffffffffffffff1916827bffffffffffffffffffffffffffffffffffffffffffffffffffffffff1916148061054257507f0e89341c000000000000000000000000000000000000000000000000000000007bffffffffffffffffffffffffffffffffffffffffffffffffffffffff1916827bffffffffffffffffffffffffffffffffffffffffffffffffffffffff1916145b806105525750610551826113e3565b5b9050919050565b60606105ff60066000848152602001908152602001600020805461057c90613aec565b80601f01602080910402602001604051908101604052809291908181526020018280546105a890613aec565b80156105f55780601f106105ca576101008083540402835291602001916105f5565b820191906000526020600020905b8154815290600101906020018083116105d857829003601f168201915b505050505061144d565b9050919050565b61060e611476565b73ffffffffffffffffffffffffffffffffffffffff168573ffffffffffffffffffffffffffffffffffffffff16148061065457506106538561064e611476565b6111bb565b5b610693576040517f08c379a000000000000000000000000000000000000000000000000000000000815260040161068a906135bf565b60405180910390fd5b6106a0858585858561147e565b5050505050565b60045481565b60016106ba3360006103ae565b146106fa576040517f08c379a00000000000000000000000000000000000000000000000000000000081526004016106f1906136bf565b60405180910390fd5b600360009054906101000a900460ff16610749576040517f08c379a00000000000000000000000000000000000000000000000000000000081526004016107409061369f565b60405180910390fd5b8073ffffffffffffffffffffffffffffffffffffffff166108fc479081150290604051600060405180830381858888f1935050505015801561078f573d6000803e3d6000fd5b5050565b606081518351146107d9576040517f08c379a00000000000000000000000000000000000000000000000000000000081526004016107d09061363f565b60405180910390fd5b6000835167ffffffffffffffff81111561081c577f4e487b7100000000000000000000000000000000000000000000000000000000600052604160045260246000fd5b60405190808252806020026020018201604052801561084a5781602001602082028036833780820191505090505b50905060005b8451811015610939576108e3858281518110610895577f4e487b7100000000000000000000000000000000000000000000000000000000600052603260045260246000fd5b60200260200101518583815181106108d6577f4e487b7100000000000000000000000000000000000000000000000000000000600052603260045260246000fd5b60200260200101516103ae565b82828151811061091c577f4e487b7100000000000000000000000000000000000000000000000000000000600052603260045260246000fd5b6020026020010181815250508061093290613b4f565b9050610850565b508091505092915050565b61095661094f611476565b83836117de565b5050565b6005805461096790613aec565b80601f016020809104026020016040519081016040528092919081815260200182805461099390613aec565b80156109e05780601f106109b5576101008083540402835291602001916109e0565b820191906000526020600020905b8154815290600101906020018083116109c357829003601f168201915b505050505081565b60016109f53360006103ae565b14610a35576040517f08c379a0000000000000000000000000000000000000000000000000000000008152600401610a2c906136bf565b60405180910390fd5b600360009054906101000a900460ff16610a84576040517f08c379a0000000000000000000000000000000000000000000000000000000008152600401610a7b9061369f565b60405180910390fd5b60008211610a9157600080fd5b6000600660008481526020019081526020016000208054610ab190613aec565b80601f0160208091040260200160405190810160405280929190818152602001828054610add90613aec565b8015610b2a5780601f10610aff57610100808354040283529160200191610b2a565b820191906000526020600020905b815481529060010190602001808311610b0d57829003601f168201915b505050505090506000815114610b3f57600080fd5b60066000600185610b5091906139f8565b81526020019081526020016000208054610b6990613aec565b80601f0160208091040260200160405190810160405280929190818152602001828054610b9590613aec565b8015610be25780601f10610bb757610100808354040283529160200191610be2565b820191906000526020600020905b815481529060010190602001808311610bc557829003601f168201915b505050505090506000815111610bf757600080fd5b81600660008581526020019081526020016000209080519060200190610c1e9291906124f0565b50505050565b6001610c313360006103ae565b14610c71576040517f08c379a0000000000000000000000000000000000000000000000000000000008152600401610c68906136bf565b60405180910390fd5b600360009054906101000a900460ff16610cc0576040517f08c379a0000000000000000000000000000000000000000000000000000000008152600401610cb79061369f565b60405180910390fd5b8160059080519060200190610cd69291906124f0565b50806004819055505050565b600360009054906101000a900460ff16610d31576040517f08c379a0000000000000000000000000000000000000000000000000000000008152600401610d289061369f565b60405180910390fd5b84518451148015610d43575082518451145b610d4c57600080fd5b600080865167ffffffffffffffff811115610d90577f4e487b7100000000000000000000000000000000000000000000000000000000600052604160045260246000fd5b604051908082528060200260200182016040528015610dbe5781602001602082028036833780820191505090505b50905060005b87518110156110f157868181518110610e06577f4e487b7100000000000000000000000000000000000000000000000000000000600052603260045260246000fd5b6020026020010151868281518110610e47577f4e487b7100000000000000000000000000000000000000000000000000000000600052603260045260246000fd5b6020026020010151604051602001610e60929190613306565b60405160208183030381529060405280519060200120828281518110610eaf577f4e487b7100000000000000000000000000000000000000000000000000000000600052603260045260246000fd5b602002602001018181525050878181518110610ef4577f4e487b7100000000000000000000000000000000000000000000000000000000600052603260045260246000fd5b6020026020010151878281518110610f35577f4e487b7100000000000000000000000000000000000000000000000000000000600052603260045260246000fd5b6020026020010151610f47919061399e565b83610f529190613948565b92506000868281518110610f8f577f4e487b7100000000000000000000000000000000000000000000000000000000600052603260045260246000fd5b60200260200101511415610fa257600080fd5b6000888281518110610fdd577f4e487b7100000000000000000000000000000000000000000000000000000000600052603260045260246000fd5b602002602001015111610fef57600080fd5b60006006600088848151811061102e577f4e487b7100000000000000000000000000000000000000000000000000000000600052603260045260246000fd5b60200260200101518152602001908152602001600020805461104f90613aec565b80601f016020809104026020016040519081016040528092919081815260200182805461107b90613aec565b80156110c85780601f1061109d576101008083540402835291602001916110c8565b820191906000526020600020905b8154815290600101906020018083116110ab57829003601f168201915b5050505050905060008151116110dd57600080fd5b5080806110e990613b4f565b915050610dc4565b5073260B13D233FDE4ee9929d6E751c4d82C30AD2d676327c9009d6004548387876040518563ffffffff1660e01b81526004016111319493929190613483565b60206040518083038186803b15801561114957600080fd5b505af415801561115d573d6000803e3d6000fd5b505050506040513d601f19601f820116820180604052508101906111819190612cd4565b61118a57600080fd5b8134101561119757600080fd5b6111b23386896040518060200160405280600081525061194b565b50505050505050565b6000600160008473ffffffffffffffffffffffffffffffffffffffff1673ffffffffffffffffffffffffffffffffffffffff16815260200190815260200160002060008373ffffffffffffffffffffffffffffffffffffffff1673ffffffffffffffffffffffffffffffffffffffff16815260200190815260200160002060009054906101000a900460ff16905092915050565b611257611476565b73ffffffffffffffffffffffffffffffffffffffff168573ffffffffffffffffffffffffffffffffffffffff16148061129d575061129c85611297611476565b6111bb565b5b6112dc576040517f08c379a00000000000000000000000000000000000000000000000000000000081526004016112d39061357f565b60405180910390fd5b6112e98585858585611bb5565b5050505050565b60016112fd3360006103ae565b1461133d576040517f08c379a0000000000000000000000000000000000000000000000000000000008152600401611334906136bf565b60405180910390fd5b600360009054906101000a900460ff1661138c576040517f08c379a00000000000000000000000000000000000000000000000000000000081526004016113839061369f565b60405180910390fd5b611395816106ad565b6113a23360006001611e37565b6000600360006101000a81548160ff02191690831515021790555050565b6000808273ffffffffffffffffffffffffffffffffffffffff163b119050919050565b60007f01ffc9a7000000000000000000000000000000000000000000000000000000007bffffffffffffffffffffffffffffffffffffffffffffffffffffffff1916827bffffffffffffffffffffffffffffffffffffffffffffffffffffffff1916149050919050565b60608160405160200161146091906132e4565b6040516020818303038152906040529050919050565b600033905090565b81518351146114c2576040517f08c379a00000000000000000000000000000000000000000000000000000000081526004016114b99061365f565b60405180910390fd5b600073ffffffffffffffffffffffffffffffffffffffff168473ffffffffffffffffffffffffffffffffffffffff161415611532576040517f08c379a00000000000000000000000000000000000000000000000000000000081526004016115299061359f565b60405180910390fd5b600061153c611476565b905061154c818787878787612054565b60005b8451811015611749576000858281518110611593577f4e487b7100000000000000000000000000000000000000000000000000000000600052603260045260246000fd5b6020026020010151905060008583815181106115d8577f4e487b7100000000000000000000000000000000000000000000000000000000600052603260045260246000fd5b60200260200101519050600080600084815260200190815260200160002060008b73ffffffffffffffffffffffffffffffffffffffff1673ffffffffffffffffffffffffffffffffffffffff16815260200190815260200160002054905081811015611679576040517f08c379a0000000000000000000000000000000000000000000000000000000008152600401611670906135ff565b60405180910390fd5b81810360008085815260200190815260200160002060008c73ffffffffffffffffffffffffffffffffffffffff1673ffffffffffffffffffffffffffffffffffffffff168152602001908152602001600020819055508160008085815260200190815260200160002060008b73ffffffffffffffffffffffffffffffffffffffff1673ffffffffffffffffffffffffffffffffffffffff168152602001908152602001600020600082825461172e9190613948565b925050819055505050508061174290613b4f565b905061154f565b508473ffffffffffffffffffffffffffffffffffffffff168673ffffffffffffffffffffffffffffffffffffffff168273ffffffffffffffffffffffffffffffffffffffff167f4a39dc06d4c0dbc64b70af90fd698a233a518aa5d07e595d983b8c0526c8f7fb87876040516117c0929190613416565b60405180910390a46117d681878787878761205c565b505050505050565b8173ffffffffffffffffffffffffffffffffffffffff168373ffffffffffffffffffffffffffffffffffffffff16141561184d576040517f08c379a00000000000000000000000000000000000000000000000000000000081526004016118449061361f565b60405180910390fd5b80600160008573ffffffffffffffffffffffffffffffffffffffff1673ffffffffffffffffffffffffffffffffffffffff16815260200190815260200160002060008473ffffffffffffffffffffffffffffffffffffffff1673ffffffffffffffffffffffffffffffffffffffff16815260200190815260200160002060006101000a81548160ff0219169083151502179055508173ffffffffffffffffffffffffffffffffffffffff168373ffffffffffffffffffffffffffffffffffffffff167f17307eab39ab6107e8899845ad3d59bd9653f200f220920489ca2b5937696c318360405161193e919061344d565b60405180910390a3505050565b600073ffffffffffffffffffffffffffffffffffffffff168473ffffffffffffffffffffffffffffffffffffffff1614156119bb576040517f08c379a00000000000000000000000000000000000000000000000000000000081526004016119b29061367f565b60405180910390fd5b81518351146119ff576040517f08c379a00000000000000000000000000000000000000000000000000000000081526004016119f69061365f565b60405180910390fd5b6000611a09611476565b9050611a1a81600087878787612054565b60005b8451811015611b1f57838181518110611a5f577f4e487b7100000000000000000000000000000000000000000000000000000000600052603260045260246000fd5b6020026020010151600080878481518110611aa3577f4e487b7100000000000000000000000000000000000000000000000000000000600052603260045260246000fd5b6020026020010151815260200190815260200160002060008873ffffffffffffffffffffffffffffffffffffffff1673ffffffffffffffffffffffffffffffffffffffff1681526020019081526020016000206000828254611b059190613948565b925050819055508080611b1790613b4f565b915050611a1d565b508473ffffffffffffffffffffffffffffffffffffffff16600073ffffffffffffffffffffffffffffffffffffffff168273ffffffffffffffffffffffffffffffffffffffff167f4a39dc06d4c0dbc64b70af90fd698a233a518aa5d07e595d983b8c0526c8f7fb8787604051611b97929190613416565b60405180910390a4611bae8160008787878761205c565b5050505050565b600073ffffffffffffffffffffffffffffffffffffffff168473ffffffffffffffffffffffffffffffffffffffff161415611c25576040517f08c379a0000000000000000000000000000000000000000000000000000000008152600401611c1c9061359f565b60405180910390fd5b6000611c2f611476565b9050611c4f818787611c4088612243565b611c4988612243565b87612054565b600080600086815260200190815260200160002060008873ffffffffffffffffffffffffffffffffffffffff1673ffffffffffffffffffffffffffffffffffffffff16815260200190815260200160002054905083811015611ce6576040517f08c379a0000000000000000000000000000000000000000000000000000000008152600401611cdd906135ff565b60405180910390fd5b83810360008087815260200190815260200160002060008973ffffffffffffffffffffffffffffffffffffffff1673ffffffffffffffffffffffffffffffffffffffff168152602001908152602001600020819055508360008087815260200190815260200160002060008873ffffffffffffffffffffffffffffffffffffffff1673ffffffffffffffffffffffffffffffffffffffff1681526020019081526020016000206000828254611d9b9190613948565b925050819055508573ffffffffffffffffffffffffffffffffffffffff168773ffffffffffffffffffffffffffffffffffffffff168373ffffffffffffffffffffffffffffffffffffffff167fc3d58168c5ae7397731d063d5bbf3d657854427343f4c083240f7aacaa2d0f628888604051611e189291906136fa565b60405180910390a4611e2e828888888888612309565b50505050505050565b600073ffffffffffffffffffffffffffffffffffffffff168373ffffffffffffffffffffffffffffffffffffffff161415611ea7576040517f08c379a0000000000000000000000000000000000000000000000000000000008152600401611e9e906135df565b60405180910390fd5b6000611eb1611476565b9050611ee181856000611ec387612243565b611ecc87612243565b60405180602001604052806000815250612054565b600080600085815260200190815260200160002060008673ffffffffffffffffffffffffffffffffffffffff1673ffffffffffffffffffffffffffffffffffffffff16815260200190815260200160002054905082811015611f78576040517f08c379a0000000000000000000000000000000000000000000000000000000008152600401611f6f9061355f565b60405180910390fd5b82810360008086815260200190815260200160002060008773ffffffffffffffffffffffffffffffffffffffff1673ffffffffffffffffffffffffffffffffffffffff16815260200190815260200160002081905550600073ffffffffffffffffffffffffffffffffffffffff168573ffffffffffffffffffffffffffffffffffffffff168373ffffffffffffffffffffffffffffffffffffffff167fc3d58168c5ae7397731d063d5bbf3d657854427343f4c083240f7aacaa2d0f6287876040516120459291906136fa565b60405180910390a45050505050565b505050505050565b61207b8473ffffffffffffffffffffffffffffffffffffffff166113c0565b1561223b578373ffffffffffffffffffffffffffffffffffffffff1663bc197c8187878686866040518663ffffffff1660e01b81526004016120c1959493929190613332565b602060405180830381600087803b1580156120db57600080fd5b505af192505050801561210c57506040513d601f19601f820116820180604052508101906121099190612d26565b60015b6121b257612118613c2f565b806308c379a01415612175575061212d6140ed565b806121385750612177565b806040517f08c379a000000000000000000000000000000000000000000000000000000000815260040161216c91906134dd565b60405180910390fd5b505b6040517f08c379a00000000000000000000000000000000000000000000000000000000081526004016121a9906134ff565b60405180910390fd5b63bc197c8160e01b7bffffffffffffffffffffffffffffffffffffffffffffffffffffffff1916817bffffffffffffffffffffffffffffffffffffffffffffffffffffffff191614612239576040517f08c379a00000000000000000000000000000000000000000000000000000000081526004016122309061351f565b60405180910390fd5b505b505050505050565b60606000600167ffffffffffffffff811115612288577f4e487b7100000000000000000000000000000000000000000000000000000000600052604160045260246000fd5b6040519080825280602002602001820160405280156122b65781602001602082028036833780820191505090505b50905082816000815181106122f4577f4e487b7100000000000000000000000000000000000000000000000000000000600052603260045260246000fd5b60200260200101818152505080915050919050565b6123288473ffffffffffffffffffffffffffffffffffffffff166113c0565b156124e8578373ffffffffffffffffffffffffffffffffffffffff1663f23a6e6187878686866040518663ffffffff1660e01b815260040161236e95949392919061339a565b602060405180830381600087803b15801561238857600080fd5b505af19250505080156123b957506040513d601f19601f820116820180604052508101906123b69190612d26565b60015b61245f576123c5613c2f565b806308c379a0141561242257506123da6140ed565b806123e55750612424565b806040517f08c379a000000000000000000000000000000000000000000000000000000000815260040161241991906134dd565b60405180910390fd5b505b6040517f08c379a0000000000000000000000000000000000000000000000000000000008152600401612456906134ff565b60405180910390fd5b63f23a6e6160e01b7bffffffffffffffffffffffffffffffffffffffffffffffffffffffff1916817bffffffffffffffffffffffffffffffffffffffffffffffffffffffff1916146124e6576040517f08c379a00000000000000000000000000000000000000000000000000000000081526004016124dd9061351f565b60405180910390fd5b505b505050505050565b8280546124fc90613aec565b90600052602060002090601f01602090048101928261251e5760008555612565565b82601f1061253757805160ff1916838001178555612565565b82800160010185558215612565579182015b82811115612564578251825591602001919060010190612549565b5b5090506125729190612576565b5090565b5b8082111561258f576000816000905550600101612577565b5090565b60006125a66125a184613748565b613723565b905080838252602082019050828560208602820111156125c557600080fd5b60005b858110156125f557816125db88826127bf565b8452602084019350602083019250506001810190506125c8565b5050509392505050565b600061261261260d84613774565b613723565b9050808382526020820190508285602086028201111561263157600080fd5b60005b858110156126615781612647888261287c565b845260208401935060208301925050600181019050612634565b5050509392505050565b600061267e612679846137a0565b613723565b9050808382526020820190508285602086028201111561269d57600080fd5b60005b858110156126cd57816126b388826128a6565b8452602084019350602083019250506001810190506126a0565b5050509392505050565b60006126ea6126e5846137cc565b613723565b9050808382526020820190508285602086028201111561270957600080fd5b60005b85811015612739578161271f8882612939565b84526020840193506020830192505060018101905061270c565b5050509392505050565b6000612756612751846137f8565b613723565b90508281526020810184848401111561276e57600080fd5b612779848285613aaa565b509392505050565b600061279461278f84613829565b613723565b9050828152602081018484840111156127ac57600080fd5b6127b7848285613aaa565b509392505050565b6000813590506127ce81614183565b92915050565b600082601f8301126127e557600080fd5b81356127f5848260208601612593565b91505092915050565b600082601f83011261280f57600080fd5b813561281f8482602086016125ff565b91505092915050565b600082601f83011261283957600080fd5b813561284984826020860161266b565b91505092915050565b600082601f83011261286357600080fd5b81356128738482602086016126d7565b91505092915050565b60008135905061288b8161419a565b92915050565b6000815190506128a08161419a565b92915050565b6000813590506128b5816141b1565b92915050565b6000813590506128ca816141c8565b92915050565b6000815190506128df816141c8565b92915050565b600082601f8301126128f657600080fd5b8135612906848260208601612743565b91505092915050565b600082601f83011261292057600080fd5b8135612930848260208601612781565b91505092915050565b600081359050612948816141df565b92915050565b60006020828403121561296057600080fd5b600061296e848285016127bf565b91505092915050565b6000806040838503121561298a57600080fd5b6000612998858286016127bf565b92505060206129a9858286016127bf565b9150509250929050565b600080600080600060a086880312156129cb57600080fd5b60006129d9888289016127bf565b95505060206129ea888289016127bf565b945050604086013567ffffffffffffffff811115612a0757600080fd5b612a1388828901612852565b935050606086013567ffffffffffffffff811115612a3057600080fd5b612a3c88828901612852565b925050608086013567ffffffffffffffff811115612a5957600080fd5b612a65888289016128e5565b9150509295509295909350565b600080600080600060a08688031215612a8a57600080fd5b6000612a98888289016127bf565b9550506020612aa9888289016127bf565b9450506040612aba88828901612939565b9350506060612acb88828901612939565b925050608086013567ffffffffffffffff811115612ae857600080fd5b612af4888289016128e5565b9150509295509295909350565b60008060408385031215612b1457600080fd5b6000612b22858286016127bf565b9250506020612b338582860161287c565b9150509250929050565b60008060408385031215612b5057600080fd5b6000612b5e858286016127bf565b9250506020612b6f85828601612939565b9150509250929050565b60008060408385031215612b8c57600080fd5b600083013567ffffffffffffffff811115612ba657600080fd5b612bb2858286016127d4565b925050602083013567ffffffffffffffff811115612bcf57600080fd5b612bdb85828601612852565b9150509250929050565b600080600080600060a08688031215612bfd57600080fd5b600086013567ffffffffffffffff811115612c1757600080fd5b612c2388828901612852565b955050602086013567ffffffffffffffff811115612c4057600080fd5b612c4c88828901612852565b945050604086013567ffffffffffffffff811115612c6957600080fd5b612c7588828901612852565b935050606086013567ffffffffffffffff811115612c9257600080fd5b612c9e88828901612828565b925050608086013567ffffffffffffffff811115612cbb57600080fd5b612cc7888289016127fe565b9150509295509295909350565b600060208284031215612ce657600080fd5b6000612cf484828501612891565b91505092915050565b600060208284031215612d0f57600080fd5b6000612d1d848285016128bb565b91505092915050565b600060208284031215612d3857600080fd5b6000612d46848285016128d0565b91505092915050565b60008060408385031215612d6257600080fd5b600083013567ffffffffffffffff811115612d7c57600080fd5b612d888582860161290f565b9250506020612d99858286016128a6565b9150509250929050565b600060208284031215612db557600080fd5b6000612dc384828501612939565b91505092915050565b60008060408385031215612ddf57600080fd5b6000612ded85828601612939565b925050602083013567ffffffffffffffff811115612e0a57600080fd5b612e168582860161290f565b9150509250929050565b6000612e2c8383612fa0565b60208301905092915050565b6000612e448383612fcd565b60208301905092915050565b6000612e5c83836132af565b60208301905092915050565b612e7181613a2c565b82525050565b6000612e828261388a565b612e8c81856138e8565b9350612e978361385a565b8060005b83811015612ec8578151612eaf8882612e20565b9750612eba836138c1565b925050600181019050612e9b565b5085935050505092915050565b6000612ee082613895565b612eea81856138f9565b9350612ef58361386a565b8060005b83811015612f26578151612f0d8882612e38565b9750612f18836138ce565b925050600181019050612ef9565b5085935050505092915050565b6000612f3e826138a0565b612f48818561390a565b9350612f538361387a565b8060005b83811015612f84578151612f6b8882612e50565b9750612f76836138db565b925050600181019050612f57565b5085935050505092915050565b612f9a81613a3e565b82525050565b612fa981613a3e565b82525050565b612fb881613a4a565b82525050565b612fc781613a4a565b82525050565b612fd681613a4a565b82525050565b6000612fe7826138ab565b612ff1818561391b565b9350613001818560208601613ab9565b61300a81613c51565b840191505092915050565b6000613020826138b6565b61302a818561392c565b935061303a818560208601613ab9565b61304381613c51565b840191505092915050565b6000613059826138b6565b613063818561393d565b9350613073818560208601613ab9565b80840191505092915050565b600061308c60348361392c565b915061309782613c6f565b604082019050919050565b60006130af60288361392c565b91506130ba82613cbe565b604082019050919050565b60006130d2602b8361392c565b91506130dd82613d0d565b604082019050919050565b60006130f560248361392c565b915061310082613d5c565b604082019050919050565b600061311860298361392c565b915061312382613dab565b604082019050919050565b600061313b60258361392c565b915061314682613dfa565b604082019050919050565b600061315e60328361392c565b915061316982613e49565b604082019050919050565b600061318160238361392c565b915061318c82613e98565b604082019050919050565b60006131a4602a8361392c565b91506131af82613ee7565b604082019050919050565b60006131c760148361393d565b91506131d282613f36565b601482019050919050565b60006131ea60298361392c565b91506131f582613f5f565b604082019050919050565b600061320d60298361392c565b915061321882613fae565b604082019050919050565b600061323060288361392c565b915061323b82613ffd565b604082019050919050565b600061325360218361392c565b915061325e8261404c565b604082019050919050565b6000613276600b8361392c565b91506132818261409b565b602082019050919050565b600061329960098361392c565b91506132a4826140c4565b602082019050919050565b6132b881613aa0565b82525050565b6132c781613aa0565b82525050565b6132de6132d982613aa0565b613b98565b82525050565b60006132ef826131ba565b91506132fb828461304e565b915081905092915050565b600061331282856132cd565b60208201915061332282846132cd565b6020820191508190509392505050565b600060a0820190506133476000830188612e68565b6133546020830187612e68565b81810360408301526133668186612f33565b9050818103606083015261337a8185612f33565b9050818103608083015261338e8184612fdc565b90509695505050505050565b600060a0820190506133af6000830188612e68565b6133bc6020830187612e68565b6133c960408301866132be565b6133d660608301856132be565b81810360808301526133e88184612fdc565b90509695505050505050565b6000602082019050818103600083015261340e8184612f33565b905092915050565b600060408201905081810360008301526134308185612f33565b905081810360208301526134448184612f33565b90509392505050565b60006020820190506134626000830184612f91565b92915050565b600060208201905061347d6000830184612faf565b92915050565b60006080820190506134986000830187612fbe565b81810360208301526134aa8186612ed5565b905081810360408301526134be8185612ed5565b905081810360608301526134d28184612e77565b905095945050505050565b600060208201905081810360008301526134f78184613015565b905092915050565b600060208201905081810360008301526135188161307f565b9050919050565b60006020820190508181036000830152613538816130a2565b9050919050565b60006020820190508181036000830152613558816130c5565b9050919050565b60006020820190508181036000830152613578816130e8565b9050919050565b600060208201905081810360008301526135988161310b565b9050919050565b600060208201905081810360008301526135b88161312e565b9050919050565b600060208201905081810360008301526135d881613151565b9050919050565b600060208201905081810360008301526135f881613174565b9050919050565b6000602082019050818103600083015261361881613197565b9050919050565b60006020820190508181036000830152613638816131dd565b9050919050565b6000602082019050818103600083015261365881613200565b9050919050565b6000602082019050818103600083015261367881613223565b9050919050565b6000602082019050818103600083015261369881613246565b9050919050565b600060208201905081810360008301526136b881613269565b9050919050565b600060208201905081810360008301526136d88161328c565b9050919050565b60006020820190506136f460008301846132be565b92915050565b600060408201905061370f60008301856132be565b61371c60208301846132be565b9392505050565b600061372d61373e565b90506137398282613b1e565b919050565b6000604051905090565b600067ffffffffffffffff82111561376357613762613c00565b5b602082029050602081019050919050565b600067ffffffffffffffff82111561378f5761378e613c00565b5b602082029050602081019050919050565b600067ffffffffffffffff8211156137bb576137ba613c00565b5b602082029050602081019050919050565b600067ffffffffffffffff8211156137e7576137e6613c00565b5b602082029050602081019050919050565b600067ffffffffffffffff82111561381357613812613c00565b5b61381c82613c51565b9050602081019050919050565b600067ffffffffffffffff82111561384457613843613c00565b5b61384d82613c51565b9050602081019050919050565b6000819050602082019050919050565b6000819050602082019050919050565b6000819050602082019050919050565b600081519050919050565b600081519050919050565b600081519050919050565b600081519050919050565b600081519050919050565b6000602082019050919050565b6000602082019050919050565b6000602082019050919050565b600082825260208201905092915050565b600082825260208201905092915050565b600082825260208201905092915050565b600082825260208201905092915050565b600082825260208201905092915050565b600081905092915050565b600061395382613aa0565b915061395e83613aa0565b9250827fffffffffffffffffffffffffffffffffffffffffffffffffffffffffffffffff0382111561399357613992613ba2565b5b828201905092915050565b60006139a982613aa0565b91506139b483613aa0565b9250817fffffffffffffffffffffffffffffffffffffffffffffffffffffffffffffffff04831182151516156139ed576139ec613ba2565b5b828202905092915050565b6000613a0382613aa0565b9150613a0e83613aa0565b925082821015613a2157613a20613ba2565b5b828203905092915050565b6000613a3782613a80565b9050919050565b60008115159050919050565b6000819050919050565b60007fffffffff0000000000000000000000000000000000000000000000000000000082169050919050565b600073ffffffffffffffffffffffffffffffffffffffff82169050919050565b6000819050919050565b82818337600083830152505050565b60005b83811015613ad7578082015181840152602081019050613abc565b83811115613ae6576000848401525b50505050565b60006002820490506001821680613b0457607f821691505b60208210811415613b1857613b17613bd1565b5b50919050565b613b2782613c51565b810181811067ffffffffffffffff82111715613b4657613b45613c00565b5b80604052505050565b6000613b5a82613aa0565b91507fffffffffffffffffffffffffffffffffffffffffffffffffffffffffffffffff821415613b8d57613b8c613ba2565b5b600182019050919050565b6000819050919050565b7f4e487b7100000000000000000000000000000000000000000000000000000000600052601160045260246000fd5b7f4e487b7100000000000000000000000000000000000000000000000000000000600052602260045260246000fd5b7f4e487b7100000000000000000000000000000000000000000000000000000000600052604160045260246000fd5b600060033d1115613c4e5760046000803e613c4b600051613c62565b90505b90565b6000601f19601f8301169050919050565b60008160e01c9050919050565b7f455243313135353a207472616e7366657220746f206e6f6e204552433131353560008201527f526563656976657220696d706c656d656e746572000000000000000000000000602082015250565b7f455243313135353a204552433131353552656365697665722072656a6563746560008201527f6420746f6b656e73000000000000000000000000000000000000000000000000602082015250565b7f455243313135353a2062616c616e636520717565727920666f7220746865207a60008201527f65726f2061646472657373000000000000000000000000000000000000000000602082015250565b7f455243313135353a206275726e20616d6f756e7420657863656564732062616c60008201527f616e636500000000000000000000000000000000000000000000000000000000602082015250565b7f455243313135353a2063616c6c6572206973206e6f74206f776e6572206e6f7260008201527f20617070726f7665640000000000000000000000000000000000000000000000602082015250565b7f455243313135353a207472616e7366657220746f20746865207a65726f20616460008201527f6472657373000000000000000000000000000000000000000000000000000000602082015250565b7f455243313135353a207472616e736665722063616c6c6572206973206e6f742060008201527f6f776e6572206e6f7220617070726f7665640000000000000000000000000000602082015250565b7f455243313135353a206275726e2066726f6d20746865207a65726f206164647260008201527f6573730000000000000000000000000000000000000000000000000000000000602082015250565b7f455243313135353a20696e73756666696369656e742062616c616e636520666f60008201527f72207472616e7366657200000000000000000000000000000000000000000000602082015250565b7f68747470733a2f2f617277656176652e6e65742f000000000000000000000000600082015250565b7f455243313135353a2073657474696e6720617070726f76616c2073746174757360008201527f20666f722073656c660000000000000000000000000000000000000000000000602082015250565b7f455243313135353a206163636f756e747320616e6420696473206c656e67746860008201527f206d69736d617463680000000000000000000000000000000000000000000000602082015250565b7f455243313135353a2069647320616e6420616d6f756e7473206c656e6774682060008201527f6d69736d61746368000000000000000000000000000000000000000000000000602082015250565b7f455243313135353a206d696e7420746f20746865207a65726f2061646472657360008201527f7300000000000000000000000000000000000000000000000000000000000000602082015250565b7f73686f7020636c6f736564000000000000000000000000000000000000000000600082015250565b7f6e6f74206f776e65720000000000000000000000000000000000000000000000600082015250565b600060443d10156140fd57614180565b61410561373e565b60043d036004823e80513d602482011167ffffffffffffffff8211171561412d575050614180565b808201805167ffffffffffffffff81111561414b5750505050614180565b80602083010160043d038501811115614168575050505050614180565b61417782602001850186613b1e565b82955050505050505b90565b61418c81613a2c565b811461419757600080fd5b50565b6141a381613a3e565b81146141ae57600080fd5b50565b6141ba81613a4a565b81146141c557600080fd5b50565b6141d181613a54565b81146141dc57600080fd5b50565b6141e881613aa0565b81146141f357600080fd5b5056fea264697066735822122084c6a52f1ae5d1140251604e8fc51dd722a90c1b39cd7a1fbc7a97b408e4cc9d64736f6c63430008040033a2646970667358221220c3576d6b29081f57ba1b64a603dc721cfc4c5d672e81a0edc4239301abcc722a64736f6c63430008040033",
  "deployedBytecode": "0x60806040523480156200001157600080fd5b50600436106200002e5760003560e01c8063fdf960481462000033575b600080fd5b6200005160048036038101906200004b9190620001ba565b62000069565b604051620000609190620002aa565b60405180910390f35b600080828686866040516200007e906200010c565b6200008c93929190620002c7565b8190604051809103906000f5905080158015620000ad573d6000803e3d6000fd5b5090508573ffffffffffffffffffffffffffffffffffffffff167f587ece4cd19692c5be1a4184503d607d45542d2aca0698c0068f52e09ccb541c82604051620000f89190620002aa565b60405180910390a280915050949350505050565b6150d380620004bb83390190565b6000620001316200012b846200033b565b62000312565b9050828152602081018484840111156200014a57600080fd5b62000157848285620003cb565b509392505050565b600081359050620001708162000486565b92915050565b6000813590506200018781620004a0565b92915050565b600082601f8301126200019f57600080fd5b8135620001b18482602086016200011a565b91505092915050565b60008060008060808587031215620001d157600080fd5b6000620001e1878288016200015f565b945050602085013567ffffffffffffffff811115620001ff57600080fd5b6200020d878288016200018d565b935050604085013567ffffffffffffffff8111156200022b57600080fd5b62000239878288016200018d565b92505060606200024c8782880162000176565b91505092959194509250565b62000263816200038d565b82525050565b6000620002768262000371565b6200028281856200037c565b935062000294818560208601620003da565b6200029f8162000475565b840191505092915050565b6000602082019050620002c1600083018462000258565b92915050565b6000606082019050620002de600083018662000258565b8181036020830152620002f2818562000269565b9050818103604083015262000308818462000269565b9050949350505050565b60006200031e62000331565b90506200032c828262000410565b919050565b6000604051905090565b600067ffffffffffffffff82111562000359576200035862000446565b5b620003648262000475565b9050602081019050919050565b600081519050919050565b600082825260208201905092915050565b60006200039a82620003ab565b9050919050565b6000819050919050565b600073ffffffffffffffffffffffffffffffffffffffff82169050919050565b82818337600083830152505050565b60005b83811015620003fa578082015181840152602081019050620003dd565b838111156200040a576000848401525b50505050565b6200041b8262000475565b810181811067ffffffffffffffff821117156200043d576200043c62000446565b5b80604052505050565b7f4e487b7100000000000000000000000000000000000000000000000000000000600052604160045260246000fd5b6000601f19601f8301169050919050565b62000491816200038d565b81146200049d57600080fd5b50565b620004ab81620003a1565b8114620004b757600080fd5b5056fe60806040526001600360006101000a81548160ff0219169083151502179055503480156200002c57600080fd5b50604051620050d3380380620050d383398181016040528101906200005291906200071c565b604051806020016040528060008152506200007381620000e560201b60201c565b50620000998360006001604051806020016040528060008152506200010160201b60201c565b8160059080519060200190620000b1929190620005cc565b5080600660008081526020019081526020016000209080519060200190620000db929190620005cc565b5050505062000e97565b8060029080519060200190620000fd929190620005cc565b5050565b600073ffffffffffffffffffffffffffffffffffffffff168473ffffffffffffffffffffffffffffffffffffffff16141562000174576040517f08c379a00000000000000000000000000000000000000000000000000000000081526004016200016b90620009b5565b60405180910390fd5b600062000186620002c660201b60201c565b9050620001bf81600087620001a188620002ce60201b60201c565b620001b288620002ce60201b60201c565b876200039760201b60201c565b8260008086815260200190815260200160002060008773ffffffffffffffffffffffffffffffffffffffff1673ffffffffffffffffffffffffffffffffffffffff168152602001908152602001600020600082825462000220919062000a9b565b925050819055508473ffffffffffffffffffffffffffffffffffffffff16600073ffffffffffffffffffffffffffffffffffffffff168273ffffffffffffffffffffffffffffffffffffffff167fc3d58168c5ae7397731d063d5bbf3d657854427343f4c083240f7aacaa2d0f628787604051620002a0929190620009d7565b60405180910390a4620002bf816000878787876200039f60201b60201c565b5050505050565b600033905090565b60606000600167ffffffffffffffff81111562000314577f4e487b7100000000000000000000000000000000000000000000000000000000600052604160045260246000fd5b604051908082528060200260200182016040528015620003435781602001602082028036833780820191505090505b509050828160008151811062000382577f4e487b7100000000000000000000000000000000000000000000000000000000600052603260045260246000fd5b60200260200101818152505080915050919050565b505050505050565b620003cb8473ffffffffffffffffffffffffffffffffffffffff16620005a960201b620013c01760201c565b15620005a1578373ffffffffffffffffffffffffffffffffffffffff1663f23a6e6187878686866040518663ffffffff1660e01b815260040162000414959493929190620008e9565b602060405180830381600087803b1580156200042f57600080fd5b505af19250505080156200046357506040513d601f19601f82011682018060405250810190620004609190620007a4565b60015b62000515576200047262000c91565b806308c379a01415620004d657506200048a62000dc1565b80620004975750620004d8565b806040517f08c379a0000000000000000000000000000000000000000000000000000000008152600401620004cd91906200094d565b60405180910390fd5b505b6040517f08c379a00000000000000000000000000000000000000000000000000000000081526004016200050c9062000971565b60405180910390fd5b63f23a6e6160e01b7bffffffffffffffffffffffffffffffffffffffffffffffffffffffff1916817bffffffffffffffffffffffffffffffffffffffffffffffffffffffff1916146200059f576040517f08c379a0000000000000000000000000000000000000000000000000000000008152600401620005969062000993565b60405180910390fd5b505b505050505050565b6000808273ffffffffffffffffffffffffffffffffffffffff163b119050919050565b828054620005da9062000b98565b90600052602060002090601f016020900481019282620005fe57600085556200064a565b82601f106200061957805160ff19168380011785556200064a565b828001600101855582156200064a579182015b82811115620006495782518255916020019190600101906200062c565b5b5090506200065991906200065d565b5090565b5b80821115620006785760008160009055506001016200065e565b5090565b6000620006936200068d8462000a2d565b62000a04565b905082815260208101848484011115620006ac57600080fd5b620006b984828562000b62565b509392505050565b600081519050620006d28162000e63565b92915050565b600081519050620006e98162000e7d565b92915050565b600082601f8301126200070157600080fd5b8151620007138482602086016200067c565b91505092915050565b6000806000606084860312156200073257600080fd5b60006200074286828701620006c1565b935050602084015167ffffffffffffffff8111156200076057600080fd5b6200076e86828701620006ef565b925050604084015167ffffffffffffffff8111156200078c57600080fd5b6200079a86828701620006ef565b9150509250925092565b600060208284031215620007b757600080fd5b6000620007c784828501620006d8565b91505092915050565b620007db8162000af8565b82525050565b6000620007ee8262000a63565b620007fa818562000a79565b93506200080c81856020860162000b62565b620008178162000cb6565b840191505092915050565b60006200082f8262000a6e565b6200083b818562000a8a565b93506200084d81856020860162000b62565b620008588162000cb6565b840191505092915050565b60006200087260348362000a8a565b91506200087f8262000cd4565b604082019050919050565b60006200089960288362000a8a565b9150620008a68262000d23565b604082019050919050565b6000620008c060218362000a8a565b9150620008cd8262000d72565b604082019050919050565b620008e38162000b58565b82525050565b600060a082019050620009006000830188620007d0565b6200090f6020830187620007d0565b6200091e6040830186620008d8565b6200092d6060830185620008d8565b8181036080830152620009418184620007e1565b90509695505050505050565b6000602082019050818103600083015262000969818462000822565b905092915050565b600060208201905081810360008301526200098c8162000863565b9050919050565b60006020820190508181036000830152620009ae816200088a565b9050919050565b60006020820190508181036000830152620009d081620008b1565b9050919050565b6000604082019050620009ee6000830185620008d8565b620009fd6020830184620008d8565b9392505050565b600062000a1062000a23565b905062000a1e828262000bce565b919050565b6000604051905090565b600067ffffffffffffffff82111562000a4b5762000a4a62000c62565b5b62000a568262000cb6565b9050602081019050919050565b600081519050919050565b600081519050919050565b600082825260208201905092915050565b600082825260208201905092915050565b600062000aa88262000b58565b915062000ab58362000b58565b9250827fffffffffffffffffffffffffffffffffffffffffffffffffffffffffffffffff0382111562000aed5762000aec62000c04565b5b828201905092915050565b600062000b058262000b38565b9050919050565b60007fffffffff0000000000000000000000000000000000000000000000000000000082169050919050565b600073ffffffffffffffffffffffffffffffffffffffff82169050919050565b6000819050919050565b60005b8381101562000b8257808201518184015260208101905062000b65565b8381111562000b92576000848401525b50505050565b6000600282049050600182168062000bb157607f821691505b6020821081141562000bc85762000bc762000c33565b5b50919050565b62000bd98262000cb6565b810181811067ffffffffffffffff8211171562000bfb5762000bfa62000c62565b5b80604052505050565b7f4e487b7100000000000000000000000000000000000000000000000000000000600052601160045260246000fd5b7f4e487b7100000000000000000000000000000000000000000000000000000000600052602260045260246000fd5b7f4e487b7100000000000000000000000000000000000000000000000000000000600052604160045260246000fd5b600060033d111562000cb35760046000803e62000cb060005162000cc7565b90505b90565b6000601f19601f8301169050919050565b60008160e01c9050919050565b7f455243313135353a207472616e7366657220746f206e6f6e204552433131353560008201527f526563656976657220696d706c656d656e746572000000000000000000000000602082015250565b7f455243313135353a204552433131353552656365697665722072656a6563746560008201527f6420746f6b656e73000000000000000000000000000000000000000000000000602082015250565b7f455243313135353a206d696e7420746f20746865207a65726f2061646472657360008201527f7300000000000000000000000000000000000000000000000000000000000000602082015250565b600060443d101562000dd35762000e60565b62000ddd62000a23565b60043d036004823e80513d602482011167ffffffffffffffff8211171562000e0757505062000e60565b808201805167ffffffffffffffff81111562000e27575050505062000e60565b80602083010160043d03850181111562000e4657505050505062000e60565b62000e578260200185018662000bce565b82955050505050505b90565b62000e6e8162000af8565b811462000e7a57600080fd5b50565b62000e888162000b0c565b811462000e9457600080fd5b50565b61422c8062000ea76000396000f3fe6080604052600436106100e75760003560e01c8063a22cb4651161008a578063e69925b411610059578063e69925b414610303578063e985e9c51461031f578063f242432a1461035c578063f96d693114610385576100e7565b8063a22cb4651461025d578063ae049e0d14610286578063db8ef515146102b1578063dc172991146102da576100e7565b80632eb2c2d6116100c65780632eb2c2d6146101a3578063431e9433146101cc5780634846ff7e146101f75780634e1273f414610220576100e7565b8062fdd58e146100ec57806301ffc9a7146101295780630e89341c14610166575b600080fd5b3480156100f857600080fd5b50610113600480360381019061010e9190612b3d565b6103ae565b60405161012091906136df565b60405180910390f35b34801561013557600080fd5b50610150600480360381019061014b9190612cfd565b610477565b60405161015d919061344d565b60405180910390f35b34801561017257600080fd5b5061018d60048036038101906101889190612da3565b610559565b60405161019a91906134dd565b60405180910390f35b3480156101af57600080fd5b506101ca60048036038101906101c591906129b3565b610606565b005b3480156101d857600080fd5b506101e16106a7565b6040516101ee9190613468565b60405180910390f35b34801561020357600080fd5b5061021e6004803603810190610219919061294e565b6106ad565b005b34801561022c57600080fd5b5061024760048036038101906102429190612b79565b610793565b60405161025491906133f4565b60405180910390f35b34801561026957600080fd5b50610284600480360381019061027f9190612b01565b610944565b005b34801561029257600080fd5b5061029b61095a565b6040516102a891906134dd565b60405180910390f35b3480156102bd57600080fd5b506102d860048036038101906102d39190612dcc565b6109e8565b005b3480156102e657600080fd5b5061030160048036038101906102fc9190612d4f565b610c24565b005b61031d60048036038101906103189190612be5565b610ce2565b005b34801561032b57600080fd5b5061034660048036038101906103419190612977565b6111bb565b604051610353919061344d565b60405180910390f35b34801561036857600080fd5b50610383600480360381019061037e9190612a72565b61124f565b005b34801561039157600080fd5b506103ac60048036038101906103a7919061294e565b6112f0565b005b60008073ffffffffffffffffffffffffffffffffffffffff168373ffffffffffffffffffffffffffffffffffffffff16141561041f576040517f08c379a00000000000000000000000000000000000000000000000000000000081526004016104169061353f565b60405180910390fd5b60008083815260200190815260200160002060008473ffffffffffffffffffffffffffffffffffffffff1673ffffffffffffffffffffffffffffffffffffffff16815260200190815260200160002054905092915050565b60007fd9b67a26000000000000000000000000000000000000000000000000000000007bffffffffffffffffffffffffffffffffffffffffffffffffffffffff1916827bffffffffffffffffffffffffffffffffffffffffffffffffffffffff1916148061054257507f0e89341c000000000000000000000000000000000000000000000000000000007bffffffffffffffffffffffffffffffffffffffffffffffffffffffff1916827bffffffffffffffffffffffffffffffffffffffffffffffffffffffff1916145b806105525750610551826113e3565b5b9050919050565b60606105ff60066000848152602001908152602001600020805461057c90613aec565b80601f01602080910402602001604051908101604052809291908181526020018280546105a890613aec565b80156105f55780601f106105ca576101008083540402835291602001916105f5565b820191906000526020600020905b8154815290600101906020018083116105d857829003601f168201915b505050505061144d565b9050919050565b61060e611476565b73ffffffffffffffffffffffffffffffffffffffff168573ffffffffffffffffffffffffffffffffffffffff16148061065457506106538561064e611476565b6111bb565b5b610693576040517f08c379a000000000000000000000000000000000000000000000000000000000815260040161068a906135bf565b60405180910390fd5b6106a0858585858561147e565b5050505050565b60045481565b60016106ba3360006103ae565b146106fa576040517f08c379a00000000000000000000000000000000000000000000000000000000081526004016106f1906136bf565b60405180910390fd5b600360009054906101000a900460ff16610749576040517f08c379a00000000000000000000000000000000000000000000000000000000081526004016107409061369f565b60405180910390fd5b8073ffffffffffffffffffffffffffffffffffffffff166108fc479081150290604051600060405180830381858888f1935050505015801561078f573d6000803e3d6000fd5b5050565b606081518351146107d9576040517f08c379a00000000000000000000000000000000000000000000000000000000081526004016107d09061363f565b60405180910390fd5b6000835167ffffffffffffffff81111561081c577f4e487b7100000000000000000000000000000000000000000000000000000000600052604160045260246000fd5b60405190808252806020026020018201604052801561084a5781602001602082028036833780820191505090505b50905060005b8451811015610939576108e3858281518110610895577f4e487b7100000000000000000000000000000000000000000000000000000000600052603260045260246000fd5b60200260200101518583815181106108d6577f4e487b7100000000000000000000000000000000000000000000000000000000600052603260045260246000fd5b60200260200101516103ae565b82828151811061091c577f4e487b7100000000000000000000000000000000000000000000000000000000600052603260045260246000fd5b6020026020010181815250508061093290613b4f565b9050610850565b508091505092915050565b61095661094f611476565b83836117de565b5050565b6005805461096790613aec565b80601f016020809104026020016040519081016040528092919081815260200182805461099390613aec565b80156109e05780601f106109b5576101008083540402835291602001916109e0565b820191906000526020600020905b8154815290600101906020018083116109c357829003601f168201915b505050505081565b60016109f53360006103ae565b14610a35576040517f08c379a0000000000000000000000000000000000000000000000000000000008152600401610a2c906136bf565b60405180910390fd5b600360009054906101000a900460ff16610a84576040517f08c379a0000000000000000000000000000000000000000000000000000000008152600401610a7b9061369f565b60405180910390fd5b60008211610a9157600080fd5b6000600660008481526020019081526020016000208054610ab190613aec565b80601f0160208091040260200160405190810160405280929190818152602001828054610add90613aec565b8015610b2a5780601f10610aff57610100808354040283529160200191610b2a565b820191906000526020600020905b815481529060010190602001808311610b0d57829003601f168201915b505050505090506000815114610b3f57600080fd5b60066000600185610b5091906139f8565b81526020019081526020016000208054610b6990613aec565b80601f0160208091040260200160405190810160405280929190818152602001828054610b9590613aec565b8015610be25780601f10610bb757610100808354040283529160200191610be2565b820191906000526020600020905b815481529060010190602001808311610bc557829003601f168201915b505050505090506000815111610bf757600080fd5b81600660008581526020019081526020016000209080519060200190610c1e9291906124f0565b50505050565b6001610c313360006103ae565b14610c71576040517f08c379a0000000000000000000000000000000000000000000000000000000008152600401610c68906136bf565b60405180910390fd5b600360009054906101000a900460ff16610cc0576040517f08c379a0000000000000000000000000000000000000000000000000000000008152600401610cb79061369f565b60405180910390fd5b8160059080519060200190610cd69291906124f0565b50806004819055505050565b600360009054906101000a900460ff16610d31576040517f08c379a0000000000000000000000000000000000000000000000000000000008152600401610d289061369f565b60405180910390fd5b84518451148015610d43575082518451145b610d4c57600080fd5b600080865167ffffffffffffffff811115610d90577f4e487b7100000000000000000000000000000000000000000000000000000000600052604160045260246000fd5b604051908082528060200260200182016040528015610dbe5781602001602082028036833780820191505090505b50905060005b87518110156110f157868181518110610e06577f4e487b7100000000000000000000000000000000000000000000000000000000600052603260045260246000fd5b6020026020010151868281518110610e47577f4e487b7100000000000000000000000000000000000000000000000000000000600052603260045260246000fd5b6020026020010151604051602001610e60929190613306565b60405160208183030381529060405280519060200120828281518110610eaf577f4e487b7100000000000000000000000000000000000000000000000000000000600052603260045260246000fd5b602002602001018181525050878181518110610ef4577f4e487b7100000000000000000000000000000000000000000000000000000000600052603260045260246000fd5b6020026020010151878281518110610f35577f4e487b7100000000000000000000000000000000000000000000000000000000600052603260045260246000fd5b6020026020010151610f47919061399e565b83610f529190613948565b92506000868281518110610f8f577f4e487b7100000000000000000000000000000000000000000000000000000000600052603260045260246000fd5b60200260200101511415610fa257600080fd5b6000888281518110610fdd577f4e487b7100000000000000000000000000000000000000000000000000000000600052603260045260246000fd5b602002602001015111610fef57600080fd5b60006006600088848151811061102e577f4e487b7100000000000000000000000000000000000000000000000000000000600052603260045260246000fd5b60200260200101518152602001908152602001600020805461104f90613aec565b80601f016020809104026020016040519081016040528092919081815260200182805461107b90613aec565b80156110c85780601f1061109d576101008083540402835291602001916110c8565b820191906000526020600020905b8154815290600101906020018083116110ab57829003601f168201915b5050505050905060008151116110dd57600080fd5b5080806110e990613b4f565b915050610dc4565b5073__$7b197934c90dcfa0b899e535ea3e07532e$__6327c9009d6004548387876040518563ffffffff1660e01b81526004016111319493929190613483565b60206040518083038186803b15801561114957600080fd5b505af415801561115d573d6000803e3d6000fd5b505050506040513d601f19601f820116820180604052508101906111819190612cd4565b61118a57600080fd5b8134101561119757600080fd5b6111b23386896040518060200160405280600081525061194b565b50505050505050565b6000600160008473ffffffffffffffffffffffffffffffffffffffff1673ffffffffffffffffffffffffffffffffffffffff16815260200190815260200160002060008373ffffffffffffffffffffffffffffffffffffffff1673ffffffffffffffffffffffffffffffffffffffff16815260200190815260200160002060009054906101000a900460ff16905092915050565b611257611476565b73ffffffffffffffffffffffffffffffffffffffff168573ffffffffffffffffffffffffffffffffffffffff16148061129d575061129c85611297611476565b6111bb565b5b6112dc576040517f08c379a00000000000000000000000000000000000000000000000000000000081526004016112d39061357f565b60405180910390fd5b6112e98585858585611bb5565b5050505050565b60016112fd3360006103ae565b1461133d576040517f08c379a0000000000000000000000000000000000000000000000000000000008152600401611334906136bf565b60405180910390fd5b600360009054906101000a900460ff1661138c576040517f08c379a00000000000000000000000000000000000000000000000000000000081526004016113839061369f565b60405180910390fd5b611395816106ad565b6113a23360006001611e37565b6000600360006101000a81548160ff02191690831515021790555050565b6000808273ffffffffffffffffffffffffffffffffffffffff163b119050919050565b60007f01ffc9a7000000000000000000000000000000000000000000000000000000007bffffffffffffffffffffffffffffffffffffffffffffffffffffffff1916827bffffffffffffffffffffffffffffffffffffffffffffffffffffffff1916149050919050565b60608160405160200161146091906132e4565b6040516020818303038152906040529050919050565b600033905090565b81518351146114c2576040517f08c379a00000000000000000000000000000000000000000000000000000000081526004016114b99061365f565b60405180910390fd5b600073ffffffffffffffffffffffffffffffffffffffff168473ffffffffffffffffffffffffffffffffffffffff161415611532576040517f08c379a00000000000000000000000000000000000000000000000000000000081526004016115299061359f565b60405180910390fd5b600061153c611476565b905061154c818787878787612054565b60005b8451811015611749576000858281518110611593577f4e487b7100000000000000000000000000000000000000000000000000000000600052603260045260246000fd5b6020026020010151905060008583815181106115d8577f4e487b7100000000000000000000000000000000000000000000000000000000600052603260045260246000fd5b60200260200101519050600080600084815260200190815260200160002060008b73ffffffffffffffffffffffffffffffffffffffff1673ffffffffffffffffffffffffffffffffffffffff16815260200190815260200160002054905081811015611679576040517f08c379a0000000000000000000000000000000000000000000000000000000008152600401611670906135ff565b60405180910390fd5b81810360008085815260200190815260200160002060008c73ffffffffffffffffffffffffffffffffffffffff1673ffffffffffffffffffffffffffffffffffffffff168152602001908152602001600020819055508160008085815260200190815260200160002060008b73ffffffffffffffffffffffffffffffffffffffff1673ffffffffffffffffffffffffffffffffffffffff168152602001908152602001600020600082825461172e9190613948565b925050819055505050508061174290613b4f565b905061154f565b508473ffffffffffffffffffffffffffffffffffffffff168673ffffffffffffffffffffffffffffffffffffffff168273ffffffffffffffffffffffffffffffffffffffff167f4a39dc06d4c0dbc64b70af90fd698a233a518aa5d07e595d983b8c0526c8f7fb87876040516117c0929190613416565b60405180910390a46117d681878787878761205c565b505050505050565b8173ffffffffffffffffffffffffffffffffffffffff168373ffffffffffffffffffffffffffffffffffffffff16141561184d576040517f08c379a00000000000000000000000000000000000000000000000000000000081526004016118449061361f565b60405180910390fd5b80600160008573ffffffffffffffffffffffffffffffffffffffff1673ffffffffffffffffffffffffffffffffffffffff16815260200190815260200160002060008473ffffffffffffffffffffffffffffffffffffffff1673ffffffffffffffffffffffffffffffffffffffff16815260200190815260200160002060006101000a81548160ff0219169083151502179055508173ffffffffffffffffffffffffffffffffffffffff168373ffffffffffffffffffffffffffffffffffffffff167f17307eab39ab6107e8899845ad3d59bd9653f200f220920489ca2b5937696c318360405161193e919061344d565b60405180910390a3505050565b600073ffffffffffffffffffffffffffffffffffffffff168473ffffffffffffffffffffffffffffffffffffffff1614156119bb576040517f08c379a00000000000000000000000000000000000000000000000000000000081526004016119b29061367f565b60405180910390fd5b81518351146119ff576040517f08c379a00000000000000000000000000000000000000000000000000000000081526004016119f69061365f565b60405180910390fd5b6000611a09611476565b9050611a1a81600087878787612054565b60005b8451811015611b1f57838181518110611a5f577f4e487b7100000000000000000000000000000000000000000000000000000000600052603260045260246000fd5b6020026020010151600080878481518110611aa3577f4e487b7100000000000000000000000000000000000000000000000000000000600052603260045260246000fd5b6020026020010151815260200190815260200160002060008873ffffffffffffffffffffffffffffffffffffffff1673ffffffffffffffffffffffffffffffffffffffff1681526020019081526020016000206000828254611b059190613948565b925050819055508080611b1790613b4f565b915050611a1d565b508473ffffffffffffffffffffffffffffffffffffffff16600073ffffffffffffffffffffffffffffffffffffffff168273ffffffffffffffffffffffffffffffffffffffff167f4a39dc06d4c0dbc64b70af90fd698a233a518aa5d07e595d983b8c0526c8f7fb8787604051611b97929190613416565b60405180910390a4611bae8160008787878761205c565b5050505050565b600073ffffffffffffffffffffffffffffffffffffffff168473ffffffffffffffffffffffffffffffffffffffff161415611c25576040517f08c379a0000000000000000000000000000000000000000000000000000000008152600401611c1c9061359f565b60405180910390fd5b6000611c2f611476565b9050611c4f818787611c4088612243565b611c4988612243565b87612054565b600080600086815260200190815260200160002060008873ffffffffffffffffffffffffffffffffffffffff1673ffffffffffffffffffffffffffffffffffffffff16815260200190815260200160002054905083811015611ce6576040517f08c379a0000000000000000000000000000000000000000000000000000000008152600401611cdd906135ff565b60405180910390fd5b83810360008087815260200190815260200160002060008973ffffffffffffffffffffffffffffffffffffffff1673ffffffffffffffffffffffffffffffffffffffff168152602001908152602001600020819055508360008087815260200190815260200160002060008873ffffffffffffffffffffffffffffffffffffffff1673ffffffffffffffffffffffffffffffffffffffff1681526020019081526020016000206000828254611d9b9190613948565b925050819055508573ffffffffffffffffffffffffffffffffffffffff168773ffffffffffffffffffffffffffffffffffffffff168373ffffffffffffffffffffffffffffffffffffffff167fc3d58168c5ae7397731d063d5bbf3d657854427343f4c083240f7aacaa2d0f628888604051611e189291906136fa565b60405180910390a4611e2e828888888888612309565b50505050505050565b600073ffffffffffffffffffffffffffffffffffffffff168373ffffffffffffffffffffffffffffffffffffffff161415611ea7576040517f08c379a0000000000000000000000000000000000000000000000000000000008152600401611e9e906135df565b60405180910390fd5b6000611eb1611476565b9050611ee181856000611ec387612243565b611ecc87612243565b60405180602001604052806000815250612054565b600080600085815260200190815260200160002060008673ffffffffffffffffffffffffffffffffffffffff1673ffffffffffffffffffffffffffffffffffffffff16815260200190815260200160002054905082811015611f78576040517f08c379a0000000000000000000000000000000000000000000000000000000008152600401611f6f9061355f565b60405180910390fd5b82810360008086815260200190815260200160002060008773ffffffffffffffffffffffffffffffffffffffff1673ffffffffffffffffffffffffffffffffffffffff16815260200190815260200160002081905550600073ffffffffffffffffffffffffffffffffffffffff168573ffffffffffffffffffffffffffffffffffffffff168373ffffffffffffffffffffffffffffffffffffffff167fc3d58168c5ae7397731d063d5bbf3d657854427343f4c083240f7aacaa2d0f6287876040516120459291906136fa565b60405180910390a45050505050565b505050505050565b61207b8473ffffffffffffffffffffffffffffffffffffffff166113c0565b1561223b578373ffffffffffffffffffffffffffffffffffffffff1663bc197c8187878686866040518663ffffffff1660e01b81526004016120c1959493929190613332565b602060405180830381600087803b1580156120db57600080fd5b505af192505050801561210c57506040513d601f19601f820116820180604052508101906121099190612d26565b60015b6121b257612118613c2f565b806308c379a01415612175575061212d6140ed565b806121385750612177565b806040517f08c379a000000000000000000000000000000000000000000000000000000000815260040161216c91906134dd565b60405180910390fd5b505b6040517f08c379a00000000000000000000000000000000000000000000000000000000081526004016121a9906134ff565b60405180910390fd5b63bc197c8160e01b7bffffffffffffffffffffffffffffffffffffffffffffffffffffffff1916817bffffffffffffffffffffffffffffffffffffffffffffffffffffffff191614612239576040517f08c379a00000000000000000000000000000000000000000000000000000000081526004016122309061351f565b60405180910390fd5b505b505050505050565b60606000600167ffffffffffffffff811115612288577f4e487b7100000000000000000000000000000000000000000000000000000000600052604160045260246000fd5b6040519080825280602002602001820160405280156122b65781602001602082028036833780820191505090505b50905082816000815181106122f4577f4e487b7100000000000000000000000000000000000000000000000000000000600052603260045260246000fd5b60200260200101818152505080915050919050565b6123288473ffffffffffffffffffffffffffffffffffffffff166113c0565b156124e8578373ffffffffffffffffffffffffffffffffffffffff1663f23a6e6187878686866040518663ffffffff1660e01b815260040161236e95949392919061339a565b602060405180830381600087803b15801561238857600080fd5b505af19250505080156123b957506040513d601f19601f820116820180604052508101906123b69190612d26565b60015b61245f576123c5613c2f565b806308c379a0141561242257506123da6140ed565b806123e55750612424565b806040517f08c379a000000000000000000000000000000000000000000000000000000000815260040161241991906134dd565b60405180910390fd5b505b6040517f08c379a0000000000000000000000000000000000000000000000000000000008152600401612456906134ff565b60405180910390fd5b63f23a6e6160e01b7bffffffffffffffffffffffffffffffffffffffffffffffffffffffff1916817bffffffffffffffffffffffffffffffffffffffffffffffffffffffff1916146124e6576040517f08c379a00000000000000000000000000000000000000000000000000000000081526004016124dd9061351f565b60405180910390fd5b505b505050505050565b8280546124fc90613aec565b90600052602060002090601f01602090048101928261251e5760008555612565565b82601f1061253757805160ff1916838001178555612565565b82800160010185558215612565579182015b82811115612564578251825591602001919060010190612549565b5b5090506125729190612576565b5090565b5b8082111561258f576000816000905550600101612577565b5090565b60006125a66125a184613748565b613723565b905080838252602082019050828560208602820111156125c557600080fd5b60005b858110156125f557816125db88826127bf565b8452602084019350602083019250506001810190506125c8565b5050509392505050565b600061261261260d84613774565b613723565b9050808382526020820190508285602086028201111561263157600080fd5b60005b858110156126615781612647888261287c565b845260208401935060208301925050600181019050612634565b5050509392505050565b600061267e612679846137a0565b613723565b9050808382526020820190508285602086028201111561269d57600080fd5b60005b858110156126cd57816126b388826128a6565b8452602084019350602083019250506001810190506126a0565b5050509392505050565b60006126ea6126e5846137cc565b613723565b9050808382526020820190508285602086028201111561270957600080fd5b60005b85811015612739578161271f8882612939565b84526020840193506020830192505060018101905061270c565b5050509392505050565b6000612756612751846137f8565b613723565b90508281526020810184848401111561276e57600080fd5b612779848285613aaa565b509392505050565b600061279461278f84613829565b613723565b9050828152602081018484840111156127ac57600080fd5b6127b7848285613aaa565b509392505050565b6000813590506127ce81614183565b92915050565b600082601f8301126127e557600080fd5b81356127f5848260208601612593565b91505092915050565b600082601f83011261280f57600080fd5b813561281f8482602086016125ff565b91505092915050565b600082601f83011261283957600080fd5b813561284984826020860161266b565b91505092915050565b600082601f83011261286357600080fd5b81356128738482602086016126d7565b91505092915050565b60008135905061288b8161419a565b92915050565b6000815190506128a08161419a565b92915050565b6000813590506128b5816141b1565b92915050565b6000813590506128ca816141c8565b92915050565b6000815190506128df816141c8565b92915050565b600082601f8301126128f657600080fd5b8135612906848260208601612743565b91505092915050565b600082601f83011261292057600080fd5b8135612930848260208601612781565b91505092915050565b600081359050612948816141df565b92915050565b60006020828403121561296057600080fd5b600061296e848285016127bf565b91505092915050565b6000806040838503121561298a57600080fd5b6000612998858286016127bf565b92505060206129a9858286016127bf565b9150509250929050565b600080600080600060a086880312156129cb57600080fd5b60006129d9888289016127bf565b95505060206129ea888289016127bf565b945050604086013567ffffffffffffffff811115612a0757600080fd5b612a1388828901612852565b935050606086013567ffffffffffffffff811115612a3057600080fd5b612a3c88828901612852565b925050608086013567ffffffffffffffff811115612a5957600080fd5b612a65888289016128e5565b9150509295509295909350565b600080600080600060a08688031215612a8a57600080fd5b6000612a98888289016127bf565b9550506020612aa9888289016127bf565b9450506040612aba88828901612939565b9350506060612acb88828901612939565b925050608086013567ffffffffffffffff811115612ae857600080fd5b612af4888289016128e5565b9150509295509295909350565b60008060408385031215612b1457600080fd5b6000612b22858286016127bf565b9250506020612b338582860161287c565b9150509250929050565b60008060408385031215612b5057600080fd5b6000612b5e858286016127bf565b9250506020612b6f85828601612939565b9150509250929050565b60008060408385031215612b8c57600080fd5b600083013567ffffffffffffffff811115612ba657600080fd5b612bb2858286016127d4565b925050602083013567ffffffffffffffff811115612bcf57600080fd5b612bdb85828601612852565b9150509250929050565b600080600080600060a08688031215612bfd57600080fd5b600086013567ffffffffffffffff811115612c1757600080fd5b612c2388828901612852565b955050602086013567ffffffffffffffff811115612c4057600080fd5b612c4c88828901612852565b945050604086013567ffffffffffffffff811115612c6957600080fd5b612c7588828901612852565b935050606086013567ffffffffffffffff811115612c9257600080fd5b612c9e88828901612828565b925050608086013567ffffffffffffffff811115612cbb57600080fd5b612cc7888289016127fe565b9150509295509295909350565b600060208284031215612ce657600080fd5b6000612cf484828501612891565b91505092915050565b600060208284031215612d0f57600080fd5b6000612d1d848285016128bb565b91505092915050565b600060208284031215612d3857600080fd5b6000612d46848285016128d0565b91505092915050565b60008060408385031215612d6257600080fd5b600083013567ffffffffffffffff811115612d7c57600080fd5b612d888582860161290f565b9250506020612d99858286016128a6565b9150509250929050565b600060208284031215612db557600080fd5b6000612dc384828501612939565b91505092915050565b60008060408385031215612ddf57600080fd5b6000612ded85828601612939565b925050602083013567ffffffffffffffff811115612e0a57600080fd5b612e168582860161290f565b9150509250929050565b6000612e2c8383612fa0565b60208301905092915050565b6000612e448383612fcd565b60208301905092915050565b6000612e5c83836132af565b60208301905092915050565b612e7181613a2c565b82525050565b6000612e828261388a565b612e8c81856138e8565b9350612e978361385a565b8060005b83811015612ec8578151612eaf8882612e20565b9750612eba836138c1565b925050600181019050612e9b565b5085935050505092915050565b6000612ee082613895565b612eea81856138f9565b9350612ef58361386a565b8060005b83811015612f26578151612f0d8882612e38565b9750612f18836138ce565b925050600181019050612ef9565b5085935050505092915050565b6000612f3e826138a0565b612f48818561390a565b9350612f538361387a565b8060005b83811015612f84578151612f6b8882612e50565b9750612f76836138db565b925050600181019050612f57565b5085935050505092915050565b612f9a81613a3e565b82525050565b612fa981613a3e565b82525050565b612fb881613a4a565b82525050565b612fc781613a4a565b82525050565b612fd681613a4a565b82525050565b6000612fe7826138ab565b612ff1818561391b565b9350613001818560208601613ab9565b61300a81613c51565b840191505092915050565b6000613020826138b6565b61302a818561392c565b935061303a818560208601613ab9565b61304381613c51565b840191505092915050565b6000613059826138b6565b613063818561393d565b9350613073818560208601613ab9565b80840191505092915050565b600061308c60348361392c565b915061309782613c6f565b604082019050919050565b60006130af60288361392c565b91506130ba82613cbe565b604082019050919050565b60006130d2602b8361392c565b91506130dd82613d0d565b604082019050919050565b60006130f560248361392c565b915061310082613d5c565b604082019050919050565b600061311860298361392c565b915061312382613dab565b604082019050919050565b600061313b60258361392c565b915061314682613dfa565b604082019050919050565b600061315e60328361392c565b915061316982613e49565b604082019050919050565b600061318160238361392c565b915061318c82613e98565b604082019050919050565b60006131a4602a8361392c565b91506131af82613ee7565b604082019050919050565b60006131c760148361393d565b91506131d282613f36565b601482019050919050565b60006131ea60298361392c565b91506131f582613f5f565b604082019050919050565b600061320d60298361392c565b915061321882613fae565b604082019050919050565b600061323060288361392c565b915061323b82613ffd565b604082019050919050565b600061325360218361392c565b915061325e8261404c565b604082019050919050565b6000613276600b8361392c565b91506132818261409b565b602082019050919050565b600061329960098361392c565b91506132a4826140c4565b602082019050919050565b6132b881613aa0565b82525050565b6132c781613aa0565b82525050565b6132de6132d982613aa0565b613b98565b82525050565b60006132ef826131ba565b91506132fb828461304e565b915081905092915050565b600061331282856132cd565b60208201915061332282846132cd565b6020820191508190509392505050565b600060a0820190506133476000830188612e68565b6133546020830187612e68565b81810360408301526133668186612f33565b9050818103606083015261337a8185612f33565b9050818103608083015261338e8184612fdc565b90509695505050505050565b600060a0820190506133af6000830188612e68565b6133bc6020830187612e68565b6133c960408301866132be565b6133d660608301856132be565b81810360808301526133e88184612fdc565b90509695505050505050565b6000602082019050818103600083015261340e8184612f33565b905092915050565b600060408201905081810360008301526134308185612f33565b905081810360208301526134448184612f33565b90509392505050565b60006020820190506134626000830184612f91565b92915050565b600060208201905061347d6000830184612faf565b92915050565b60006080820190506134986000830187612fbe565b81810360208301526134aa8186612ed5565b905081810360408301526134be8185612ed5565b905081810360608301526134d28184612e77565b905095945050505050565b600060208201905081810360008301526134f78184613015565b905092915050565b600060208201905081810360008301526135188161307f565b9050919050565b60006020820190508181036000830152613538816130a2565b9050919050565b60006020820190508181036000830152613558816130c5565b9050919050565b60006020820190508181036000830152613578816130e8565b9050919050565b600060208201905081810360008301526135988161310b565b9050919050565b600060208201905081810360008301526135b88161312e565b9050919050565b600060208201905081810360008301526135d881613151565b9050919050565b600060208201905081810360008301526135f881613174565b9050919050565b6000602082019050818103600083015261361881613197565b9050919050565b60006020820190508181036000830152613638816131dd565b9050919050565b6000602082019050818103600083015261365881613200565b9050919050565b6000602082019050818103600083015261367881613223565b9050919050565b6000602082019050818103600083015261369881613246565b9050919050565b600060208201905081810360008301526136b881613269565b9050919050565b600060208201905081810360008301526136d88161328c565b9050919050565b60006020820190506136f460008301846132be565b92915050565b600060408201905061370f60008301856132be565b61371c60208301846132be565b9392505050565b600061372d61373e565b90506137398282613b1e565b919050565b6000604051905090565b600067ffffffffffffffff82111561376357613762613c00565b5b602082029050602081019050919050565b600067ffffffffffffffff82111561378f5761378e613c00565b5b602082029050602081019050919050565b600067ffffffffffffffff8211156137bb576137ba613c00565b5b602082029050602081019050919050565b600067ffffffffffffffff8211156137e7576137e6613c00565b5b602082029050602081019050919050565b600067ffffffffffffffff82111561381357613812613c00565b5b61381c82613c51565b9050602081019050919050565b600067ffffffffffffffff82111561384457613843613c00565b5b61384d82613c51565b9050602081019050919050565b6000819050602082019050919050565b6000819050602082019050919050565b6000819050602082019050919050565b600081519050919050565b600081519050919050565b600081519050919050565b600081519050919050565b600081519050919050565b6000602082019050919050565b6000602082019050919050565b6000602082019050919050565b600082825260208201905092915050565b600082825260208201905092915050565b600082825260208201905092915050565b600082825260208201905092915050565b600082825260208201905092915050565b600081905092915050565b600061395382613aa0565b915061395e83613aa0565b9250827fffffffffffffffffffffffffffffffffffffffffffffffffffffffffffffffff0382111561399357613992613ba2565b5b828201905092915050565b60006139a982613aa0565b91506139b483613aa0565b9250817fffffffffffffffffffffffffffffffffffffffffffffffffffffffffffffffff04831182151516156139ed576139ec613ba2565b5b828202905092915050565b6000613a0382613aa0565b9150613a0e83613aa0565b925082821015613a2157613a20613ba2565b5b828203905092915050565b6000613a3782613a80565b9050919050565b60008115159050919050565b6000819050919050565b60007fffffffff0000000000000000000000000000000000000000000000000000000082169050919050565b600073ffffffffffffffffffffffffffffffffffffffff82169050919050565b6000819050919050565b82818337600083830152505050565b60005b83811015613ad7578082015181840152602081019050613abc565b83811115613ae6576000848401525b50505050565b60006002820490506001821680613b0457607f821691505b60208210811415613b1857613b17613bd1565b5b50919050565b613b2782613c51565b810181811067ffffffffffffffff82111715613b4657613b45613c00565b5b80604052505050565b6000613b5a82613aa0565b91507fffffffffffffffffffffffffffffffffffffffffffffffffffffffffffffffff821415613b8d57613b8c613ba2565b5b600182019050919050565b6000819050919050565b7f4e487b7100000000000000000000000000000000000000000000000000000000600052601160045260246000fd5b7f4e487b7100000000000000000000000000000000000000000000000000000000600052602260045260246000fd5b7f4e487b7100000000000000000000000000000000000000000000000000000000600052604160045260246000fd5b600060033d1115613c4e5760046000803e613c4b600051613c62565b90505b90565b6000601f19601f8301169050919050565b60008160e01c9050919050565b7f455243313135353a207472616e7366657220746f206e6f6e204552433131353560008201527f526563656976657220696d706c656d656e746572000000000000000000000000602082015250565b7f455243313135353a204552433131353552656365697665722072656a6563746560008201527f6420746f6b656e73000000000000000000000000000000000000000000000000602082015250565b7f455243313135353a2062616c616e636520717565727920666f7220746865207a60008201527f65726f2061646472657373000000000000000000000000000000000000000000602082015250565b7f455243313135353a206275726e20616d6f756e7420657863656564732062616c60008201527f616e636500000000000000000000000000000000000000000000000000000000602082015250565b7f455243313135353a2063616c6c6572206973206e6f74206f776e6572206e6f7260008201527f20617070726f7665640000000000000000000000000000000000000000000000602082015250565b7f455243313135353a207472616e7366657220746f20746865207a65726f20616460008201527f6472657373000000000000000000000000000000000000000000000000000000602082015250565b7f455243313135353a207472616e736665722063616c6c6572206973206e6f742060008201527f6f776e6572206e6f7220617070726f7665640000000000000000000000000000602082015250565b7f455243313135353a206275726e2066726f6d20746865207a65726f206164647260008201527f6573730000000000000000000000000000000000000000000000000000000000602082015250565b7f455243313135353a20696e73756666696369656e742062616c616e636520666f60008201527f72207472616e7366657200000000000000000000000000000000000000000000602082015250565b7f68747470733a2f2f617277656176652e6e65742f000000000000000000000000600082015250565b7f455243313135353a2073657474696e6720617070726f76616c2073746174757360008201527f20666f722073656c660000000000000000000000000000000000000000000000602082015250565b7f455243313135353a206163636f756e747320616e6420696473206c656e67746860008201527f206d69736d617463680000000000000000000000000000000000000000000000602082015250565b7f455243313135353a2069647320616e6420616d6f756e7473206c656e6774682060008201527f6d69736d61746368000000000000000000000000000000000000000000000000602082015250565b7f455243313135353a206d696e7420746f20746865207a65726f2061646472657360008201527f7300000000000000000000000000000000000000000000000000000000000000602082015250565b7f73686f7020636c6f736564000000000000000000000000000000000000000000600082015250565b7f6e6f74206f776e65720000000000000000000000000000000000000000000000600082015250565b600060443d10156140fd57614180565b61410561373e565b60043d036004823e80513d602482011167ffffffffffffffff8211171561412d575050614180565b808201805167ffffffffffffffff81111561414b5750505050614180565b80602083010160043d038501811115614168575050505050614180565b61417782602001850186613b1e565b82955050505050505b90565b61418c81613a2c565b811461419757600080fd5b50565b6141a381613a3e565b81146141ae57600080fd5b50565b6141ba81613a4a565b81146141c557600080fd5b50565b6141d181613a54565b81146141dc57600080fd5b50565b6141e881613aa0565b81146141f357600080fd5b5056fea264697066735822122084c6a52f1ae5d1140251604e8fc51dd722a90c1b39cd7a1fbc7a97b408e4cc9d64736f6c63430008040033a2646970667358221220c3576d6b29081f57ba1b64a603dc721cfc4c5d672e81a0edc4239301abcc722a64736f6c63430008040033",
  "libraries": {
    "MerkleMultiProof": "0x260B13D233FDE4ee9929d6E751c4d82C30AD2d67",
    "ArweaveUriAppender": "0xdf457d319AB510A336EAf5c2a0716877dCAce585"
  },
  "devdoc": {
    "kind": "dev",
    "methods": {},
    "version": 1
  },
  "userdoc": {
    "kind": "user",
    "methods": {},
    "version": 1
  },
  "storageLayout": {
    "storage": [],
    "types": null
  }
}