{
  "address": "0x7E3e552721143977F6c0580b4Cf45d8357C65C1d",
  "abi": [
    {
      "inputs": [],
      "stateMutability": "nonpayable",
      "type": "constructor"
    },
    {
      "anonymous": false,
      "inputs": [
        {
          "indexed": true,
          "internalType": "address",
          "name": "owner",
          "type": "address"
        },
        {
          "indexed": false,
          "internalType": "address",
          "name": "shop",
          "type": "address"
        }
      ],
      "name": "Created",
      "type": "event"
    },
    {
      "inputs": [
        {
          "internalType": "address",
          "name": "owner",
          "type": "address"
        },
        {
          "internalType": "string",
          "name": "shopConfig",
          "type": "string"
        },
        {
          "internalType": "string",
          "name": "ownerNftId",
          "type": "string"
        },
        {
          "internalType": "bytes32",
          "name": "salt",
          "type": "bytes32"
        }
      ],
      "name": "createShop",
      "outputs": [
        {
          "internalType": "address",
          "name": "",
          "type": "address"
        }
      ],
      "stateMutability": "nonpayable",
      "type": "function"
    }
  ],
  "transactionHash": "0x1001cc497fcaa88b315525e3baec7c544cf8b45c79d23df3a821a4ab191f1b17",
  "args": [],
  "numDeployments": 2,
  "solcInputHash": "cbc95bceb8479435f335777c6fd36c31",
  "bytecode": "0x608060405234801561001057600080fd5b50615b2a806100206000396000f3fe60806040523480156200001157600080fd5b50600436106200002e5760003560e01c8063fdf960481462000033575b600080fd5b6200005160048036038101906200004b919062000330565b62000069565b604051620000609190620003f1565b60405180910390f35b600080828686866040516200007e906200010c565b6200008c93929190620004a1565b8190604051809103906000f5905080158015620000ad573d6000803e3d6000fd5b5090508573ffffffffffffffffffffffffffffffffffffffff167f587ece4cd19692c5be1a4184503d607d45542d2aca0698c0068f52e09ccb541c82604051620000f89190620003f1565b60405180910390a280915050949350505050565b61560880620004ed83390190565b6000604051905090565b600080fd5b600080fd5b600073ffffffffffffffffffffffffffffffffffffffff82169050919050565b60006200015b826200012e565b9050919050565b6200016d816200014e565b81146200017957600080fd5b50565b6000813590506200018d8162000162565b92915050565b600080fd5b600080fd5b6000601f19601f8301169050919050565b7f4e487b7100000000000000000000000000000000000000000000000000000000600052604160045260246000fd5b620001e8826200019d565b810181811067ffffffffffffffff821117156200020a5762000209620001ae565b5b80604052505050565b60006200021f6200011a565b90506200022d8282620001dd565b919050565b600067ffffffffffffffff82111562000250576200024f620001ae565b5b6200025b826200019d565b9050602081019050919050565b82818337600083830152505050565b60006200028e620002888462000232565b62000213565b905082815260208101848484011115620002ad57620002ac62000198565b5b620002ba84828562000268565b509392505050565b600082601f830112620002da57620002d962000193565b5b8135620002ec84826020860162000277565b91505092915050565b6000819050919050565b6200030a81620002f5565b81146200031657600080fd5b50565b6000813590506200032a81620002ff565b92915050565b600080600080608085870312156200034d576200034c62000124565b5b60006200035d878288016200017c565b945050602085013567ffffffffffffffff81111562000381576200038062000129565b5b6200038f87828801620002c2565b935050604085013567ffffffffffffffff811115620003b357620003b262000129565b5b620003c187828801620002c2565b9250506060620003d48782880162000319565b91505092959194509250565b620003eb816200014e565b82525050565b6000602082019050620004086000830184620003e0565b92915050565b600081519050919050565b600082825260208201905092915050565b60005b838110156200044a5780820151818401526020810190506200042d565b838111156200045a576000848401525b50505050565b60006200046d826200040e565b62000479818562000419565b93506200048b8185602086016200042a565b62000496816200019d565b840191505092915050565b6000606082019050620004b86000830186620003e0565b8181036020830152620004cc818562000460565b90508181036040830152620004e2818462000460565b905094935050505056fe60806040526001600660006101000a81548160ff0219169083151502179055503480156200002c57600080fd5b506040516200560838038062005608833981810160405281019062000052919062000863565b604051806020016040528060008152506200007381620000fc60201b60201c565b50620000998360006001604051806020016040528060008152506200011860201b60201c565b620000b06005620002dd60201b6200160e1760201c565b8160049080519060200190620000c8929190620005b1565b5080600760008081526020019081526020016000209080519060200190620000f2929190620005b1565b5050505062000ee3565b806002908051906020019062000114929190620005b1565b5050565b600073ffffffffffffffffffffffffffffffffffffffff168473ffffffffffffffffffffffffffffffffffffffff1614156200018b576040517f08c379a0000000000000000000000000000000000000000000000000000000008152600401620001829062000984565b60405180910390fd5b60006200019d620002f360201b60201c565b9050620001d681600087620001b888620002fb60201b60201c565b620001c988620002fb60201b60201c565b876200037c60201b60201c565b8260008086815260200190815260200160002060008773ffffffffffffffffffffffffffffffffffffffff1673ffffffffffffffffffffffffffffffffffffffff1681526020019081526020016000206000828254620002379190620009df565b925050819055508473ffffffffffffffffffffffffffffffffffffffff16600073ffffffffffffffffffffffffffffffffffffffff168273ffffffffffffffffffffffffffffffffffffffff167fc3d58168c5ae7397731d063d5bbf3d657854427343f4c083240f7aacaa2d0f628787604051620002b792919062000a4d565b60405180910390a4620002d6816000878787876200038460201b60201c565b5050505050565b6001816000016000828254019250508190555050565b600033905090565b60606000600167ffffffffffffffff8111156200031d576200031c620006f5565b5b6040519080825280602002602001820160405280156200034c5781602001602082028036833780820191505090505b509050828160008151811062000367576200036662000a7a565b5b60200260200101818152505080915050919050565b505050505050565b620003b08473ffffffffffffffffffffffffffffffffffffffff166200058e60201b620016241760201c565b1562000586578373ffffffffffffffffffffffffffffffffffffffff1663f23a6e6187878686866040518663ffffffff1660e01b8152600401620003f995949392919062000b17565b602060405180830381600087803b1580156200041457600080fd5b505af19250505080156200044857506040513d601f19601f8201168201806040525081019062000445919062000bd8565b60015b620004fa576200045762000c17565b806308c379a01415620004bb57506200046f62000c3c565b806200047c5750620004bd565b806040517f08c379a0000000000000000000000000000000000000000000000000000000008152600401620004b2919062000d2a565b60405180910390fd5b505b6040517f08c379a0000000000000000000000000000000000000000000000000000000008152600401620004f19062000dc4565b60405180910390fd5b63f23a6e6160e01b7bffffffffffffffffffffffffffffffffffffffffffffffffffffffff1916817bffffffffffffffffffffffffffffffffffffffffffffffffffffffff19161462000584576040517f08c379a00000000000000000000000000000000000000000000000000000000081526004016200057b9062000e5c565b60405180910390fd5b505b505050505050565b6000808273ffffffffffffffffffffffffffffffffffffffff163b119050919050565b828054620005bf9062000ead565b90600052602060002090601f016020900481019282620005e357600085556200062f565b82601f10620005fe57805160ff19168380011785556200062f565b828001600101855582156200062f579182015b828111156200062e57825182559160200191906001019062000611565b5b5090506200063e919062000642565b5090565b5b808211156200065d57600081600090555060010162000643565b5090565b6000604051905090565b600080fd5b600080fd5b600073ffffffffffffffffffffffffffffffffffffffff82169050919050565b6000620006a28262000675565b9050919050565b620006b48162000695565b8114620006c057600080fd5b50565b600081519050620006d481620006a9565b92915050565b600080fd5b600080fd5b6000601f19601f8301169050919050565b7f4e487b7100000000000000000000000000000000000000000000000000000000600052604160045260246000fd5b6200072f82620006e4565b810181811067ffffffffffffffff82111715620007515762000750620006f5565b5b80604052505050565b60006200076662000661565b905062000774828262000724565b919050565b600067ffffffffffffffff821115620007975762000796620006f5565b5b620007a282620006e4565b9050602081019050919050565b60005b83811015620007cf578082015181840152602081019050620007b2565b83811115620007df576000848401525b50505050565b6000620007fc620007f68462000779565b6200075a565b9050828152602081018484840111156200081b576200081a620006df565b5b62000828848285620007af565b509392505050565b600082601f830112620008485762000847620006da565b5b81516200085a848260208601620007e5565b91505092915050565b6000806000606084860312156200087f576200087e6200066b565b5b60006200088f86828701620006c3565b935050602084015167ffffffffffffffff811115620008b357620008b262000670565b5b620008c18682870162000830565b925050604084015167ffffffffffffffff811115620008e557620008e462000670565b5b620008f38682870162000830565b9150509250925092565b600082825260208201905092915050565b7f455243313135353a206d696e7420746f20746865207a65726f2061646472657360008201527f7300000000000000000000000000000000000000000000000000000000000000602082015250565b60006200096c602183620008fd565b915062000979826200090e565b604082019050919050565b600060208201905081810360008301526200099f816200095d565b9050919050565b6000819050919050565b7f4e487b7100000000000000000000000000000000000000000000000000000000600052601160045260246000fd5b6000620009ec82620009a6565b9150620009f983620009a6565b9250827fffffffffffffffffffffffffffffffffffffffffffffffffffffffffffffffff0382111562000a315762000a30620009b0565b5b828201905092915050565b62000a4781620009a6565b82525050565b600060408201905062000a64600083018562000a3c565b62000a73602083018462000a3c565b9392505050565b7f4e487b7100000000000000000000000000000000000000000000000000000000600052603260045260246000fd5b62000ab48162000695565b82525050565b600081519050919050565b600082825260208201905092915050565b600062000ae38262000aba565b62000aef818562000ac5565b935062000b01818560208601620007af565b62000b0c81620006e4565b840191505092915050565b600060a08201905062000b2e600083018862000aa9565b62000b3d602083018762000aa9565b62000b4c604083018662000a3c565b62000b5b606083018562000a3c565b818103608083015262000b6f818462000ad6565b90509695505050505050565b60007fffffffff0000000000000000000000000000000000000000000000000000000082169050919050565b62000bb28162000b7b565b811462000bbe57600080fd5b50565b60008151905062000bd28162000ba7565b92915050565b60006020828403121562000bf15762000bf06200066b565b5b600062000c018482850162000bc1565b91505092915050565b60008160e01c9050919050565b600060033d111562000c395760046000803e62000c3660005162000c0a565b90505b90565b600060443d101562000c4e5762000cdb565b62000c5862000661565b60043d036004823e80513d602482011167ffffffffffffffff8211171562000c8257505062000cdb565b808201805167ffffffffffffffff81111562000ca2575050505062000cdb565b80602083010160043d03850181111562000cc157505050505062000cdb565b62000cd28260200185018662000724565b82955050505050505b90565b600081519050919050565b600062000cf68262000cde565b62000d028185620008fd565b935062000d14818560208601620007af565b62000d1f81620006e4565b840191505092915050565b6000602082019050818103600083015262000d46818462000ce9565b905092915050565b7f455243313135353a207472616e7366657220746f206e6f6e204552433131353560008201527f526563656976657220696d706c656d656e746572000000000000000000000000602082015250565b600062000dac603483620008fd565b915062000db98262000d4e565b604082019050919050565b6000602082019050818103600083015262000ddf8162000d9d565b9050919050565b7f455243313135353a204552433131353552656365697665722072656a6563746560008201527f6420746f6b656e73000000000000000000000000000000000000000000000000602082015250565b600062000e44602883620008fd565b915062000e518262000de6565b604082019050919050565b6000602082019050818103600083015262000e778162000e35565b9050919050565b7f4e487b7100000000000000000000000000000000000000000000000000000000600052602260045260246000fd5b6000600282049050600182168062000ec657607f821691505b6020821081141562000edd5762000edc62000e7e565b5b50919050565b6147158062000ef36000396000f3fe6080604052600436106101085760003560e01c806375794a3c11610095578063db8ef51511610064578063db8ef51514610378578063e69925b4146103a1578063e985e9c5146103bd578063f242432a146103fa578063f96d69311461042357610108565b806375794a3c146102d0578063888321d0146102fb578063a22cb46514610324578063ae049e0d1461034d57610108565b80632eb2c2d6116100dc5780632eb2c2d6146101ed578063431e9433146102165780634846ff7e146102415780634e1273f41461026a5780636cc03b82146102a757610108565b8062fdd58e1461010d57806301ffc9a71461014a5780630e89341c1461018757806324573ec5146101c4575b600080fd5b34801561011957600080fd5b50610134600480360381019061012f9190612826565b61044c565b6040516101419190612875565b60405180910390f35b34801561015657600080fd5b50610171600480360381019061016c91906128e8565b610515565b60405161017e9190612930565b60405180910390f35b34801561019357600080fd5b506101ae60048036038101906101a9919061294b565b6105f7565b6040516101bb9190612a11565b60405180910390f35b3480156101d057600080fd5b506101eb60048036038101906101e69190612a69565b61069c565b005b3480156101f957600080fd5b50610214600480360381019061020f9190612c93565b610742565b005b34801561022257600080fd5b5061022b6107e3565b6040516102389190612d71565b60405180910390f35b34801561024d57600080fd5b5061026860048036038101906102639190612d8c565b6107e9565b005b34801561027657600080fd5b50610291600480360381019061028c9190612e7c565b6108cf565b60405161029e9190612fb2565b60405180910390f35b3480156102b357600080fd5b506102ce60048036038101906102c99190613075565b6109e8565b005b3480156102dc57600080fd5b506102e5610a9e565b6040516102f29190612875565b60405180910390f35b34801561030757600080fd5b50610322600480360381019061031d919061316f565b610aaf565b005b34801561033057600080fd5b5061034b6004803603810190610346919061321c565b610d86565b005b34801561035957600080fd5b50610362610d9c565b60405161036f9190612a11565b60405180910390f35b34801561038457600080fd5b5061039f600480360381019061039a919061325c565b610e2a565b005b6103bb60048036038101906103b69190613364565b610fc0565b005b3480156103c957600080fd5b506103e460048036038101906103df9190613481565b611409565b6040516103f19190612930565b60405180910390f35b34801561040657600080fd5b50610421600480360381019061041c91906134c1565b61149d565b005b34801561042f57600080fd5b5061044a60048036038101906104459190612d8c565b61153e565b005b60008073ffffffffffffffffffffffffffffffffffffffff168373ffffffffffffffffffffffffffffffffffffffff1614156104bd576040517f08c379a00000000000000000000000000000000000000000000000000000000081526004016104b4906135ca565b60405180910390fd5b60008083815260200190815260200160002060008473ffffffffffffffffffffffffffffffffffffffff1673ffffffffffffffffffffffffffffffffffffffff16815260200190815260200160002054905092915050565b60007fd9b67a26000000000000000000000000000000000000000000000000000000007bffffffffffffffffffffffffffffffffffffffffffffffffffffffff1916827bffffffffffffffffffffffffffffffffffffffffffffffffffffffff191614806105e057507f0e89341c000000000000000000000000000000000000000000000000000000007bffffffffffffffffffffffffffffffffffffffffffffffffffffffff1916827bffffffffffffffffffffffffffffffffffffffffffffffffffffffff1916145b806105f057506105ef82611647565b5b9050919050565b606060076000838152602001908152602001600020805461061790613619565b80601f016020809104026020016040519081016040528092919081815260200182805461064390613619565b80156106905780601f1061066557610100808354040283529160200191610690565b820191906000526020600020905b81548152906001019060200180831161067357829003601f168201915b50505050509050919050565b60016106a933600061044c565b146106e9576040517f08c379a00000000000000000000000000000000000000000000000000000000081526004016106e090613697565b60405180910390fd5b600660009054906101000a900460ff16610738576040517f08c379a000000000000000000000000000000000000000000000000000000000815260040161072f90613703565b60405180910390fd5b8060038190555050565b61074a6116b1565b73ffffffffffffffffffffffffffffffffffffffff168573ffffffffffffffffffffffffffffffffffffffff161480610790575061078f8561078a6116b1565b611409565b5b6107cf576040517f08c379a00000000000000000000000000000000000000000000000000000000081526004016107c690613795565b60405180910390fd5b6107dc85858585856116b9565b5050505050565b60035481565b60016107f633600061044c565b14610836576040517f08c379a000000000000000000000000000000000000000000000000000000000815260040161082d90613697565b60405180910390fd5b600660009054906101000a900460ff16610885576040517f08c379a000000000000000000000000000000000000000000000000000000000815260040161087c90613703565b60405180910390fd5b8073ffffffffffffffffffffffffffffffffffffffff166108fc479081150290604051600060405180830381858888f193505050501580156108cb573d6000803e3d6000fd5b5050565b60608151835114610915576040517f08c379a000000000000000000000000000000000000000000000000000000000815260040161090c90613827565b60405180910390fd5b6000835167ffffffffffffffff81111561093257610931612a9b565b5b6040519080825280602002602001820160405280156109605781602001602082028036833780820191505090505b50905060005b84518110156109dd576109ad85828151811061098557610984613847565b5b60200260200101518583815181106109a05761099f613847565b5b602002602001015161044c565b8282815181106109c0576109bf613847565b5b602002602001018181525050806109d6906138a5565b9050610966565b508091505092915050565b60016109f533600061044c565b14610a35576040517f08c379a0000000000000000000000000000000000000000000000000000000008152600401610a2c90613697565b60405180910390fd5b600660009054906101000a900460ff16610a84576040517f08c379a0000000000000000000000000000000000000000000000000000000008152600401610a7b90613703565b60405180910390fd5b8060049080519060200190610a9a929190612655565b5050565b6000610aaa60056119cd565b905090565b6001610abc33600061044c565b14610afc576040517f08c379a0000000000000000000000000000000000000000000000000000000008152600401610af390613697565b60405180910390fd5b600660009054906101000a900460ff16610b4b576040517f08c379a0000000000000000000000000000000000000000000000000000000008152600401610b4290613703565b60405180910390fd5b818190508484905014610b93576040517f08c379a0000000000000000000000000000000000000000000000000000000008152600401610b8a9061393a565b60405180910390fd5b60005b84849050811015610d7f57610bab60056119cd565b858583818110610bbe57610bbd613847565b5b9050602002013514610c05576040517f08c379a0000000000000000000000000000000000000000000000000000000008152600401610bfc906139a6565b60405180910390fd5b600060076000878785818110610c1e57610c1d613847565b5b9050602002013581526020019081526020016000208054610c3e90613619565b80601f0160208091040260200160405190810160405280929190818152602001828054610c6a90613619565b8015610cb75780601f10610c8c57610100808354040283529160200191610cb7565b820191906000526020600020905b815481529060010190602001808311610c9a57829003601f168201915b505050505090506000815114610d02576040517f08c379a0000000000000000000000000000000000000000000000000000000008152600401610cf990613a12565b60405180910390fd5b610d0c600561160e565b838383818110610d1f57610d1e613847565b5b9050602002810190610d319190613a41565b60076000898987818110610d4857610d47613847565b5b9050602002013581526020019081526020016000209190610d6a9291906126db565b50508080610d77906138a5565b915050610b96565b5050505050565b610d98610d916116b1565b83836119db565b5050565b60048054610da990613619565b80601f0160208091040260200160405190810160405280929190818152602001828054610dd590613619565b8015610e225780601f10610df757610100808354040283529160200191610e22565b820191906000526020600020905b815481529060010190602001808311610e0557829003601f168201915b505050505081565b6001610e3733600061044c565b14610e77576040517f08c379a0000000000000000000000000000000000000000000000000000000008152600401610e6e90613697565b60405180910390fd5b600660009054906101000a900460ff16610ec6576040517f08c379a0000000000000000000000000000000000000000000000000000000008152600401610ebd90613703565b60405180910390fd5b610ed060056119cd565b8214610edb57600080fd5b6000600760008481526020019081526020016000208054610efb90613619565b80601f0160208091040260200160405190810160405280929190818152602001828054610f2790613619565b8015610f745780601f10610f4957610100808354040283529160200191610f74565b820191906000526020600020905b815481529060010190602001808311610f5757829003601f168201915b505050505090506000815114610f8957600080fd5b610f93600561160e565b81600760008581526020019081526020016000209080519060200190610fba929190612655565b50505050565b600660009054906101000a900460ff1661100f576040517f08c379a000000000000000000000000000000000000000000000000000000000815260040161100690613703565b60405180910390fd5b898990508888905014801561102957508585905088889050145b61103257600080fd5b6000808b8b905067ffffffffffffffff81111561105257611051612a9b565b5b6040519080825280602002602001820160405280156110805781602001602082028036833780820191505090505b50905060005b8c8c905081101561127e578888828181106110a4576110a3613847565b5b905060200201358b8b838181106110be576110bd613847565b5b905060200201356040516020016110d6929190613ac5565b604051602081830303815290604052805190602001208282815181106110ff576110fe613847565b5b6020026020010181815250508c8c8281811061111e5761111d613847565b5b905060200201358b8b8381811061113857611137613847565b5b905060200201356111499190613af1565b836111549190613b4b565b9250600089898381811061116b5761116a613847565b5b90506020020135141561117d57600080fd5b60008d8d8381811061119257611191613847565b5b90506020020135116111a357600080fd5b6000600760008b8b858181106111bc576111bb613847565b5b90506020020135815260200190815260200160002080546111dc90613619565b80601f016020809104026020016040519081016040528092919081815260200182805461120890613619565b80156112555780601f1061122a57610100808354040283529160200191611255565b820191906000526020600020905b81548152906001019060200180831161123857829003601f168201915b50505050509050600081511161126a57600080fd5b508080611276906138a5565b915050611086565b5073f6A7028cc183b38e3c615B5Aa0731012DA09Bdd36327c9009d60035483898989896040518763ffffffff1660e01b81526004016112c296959493929190613d92565b60206040518083038186803b1580156112da57600080fd5b505af41580156112ee573d6000803e3d6000fd5b505050506040513d601f19601f820116820180604052508101906113129190613e05565b611351576040517f08c379a000000000000000000000000000000000000000000000000000000000815260040161134890613e7e565b60405180910390fd5b8134101561135e57600080fd5b6113fb33898980806020026020016040519081016040528093929190818152602001838360200280828437600081840152601f19601f820116905080830192505050505050508e8e80806020026020016040519081016040528093929190818152602001838360200280828437600081840152601f19601f8201169050808301925050505050505060405180602001604052806000815250611b48565b505050505050505050505050565b6000600160008473ffffffffffffffffffffffffffffffffffffffff1673ffffffffffffffffffffffffffffffffffffffff16815260200190815260200160002060008373ffffffffffffffffffffffffffffffffffffffff1673ffffffffffffffffffffffffffffffffffffffff16815260200190815260200160002060009054906101000a900460ff16905092915050565b6114a56116b1565b73ffffffffffffffffffffffffffffffffffffffff168573ffffffffffffffffffffffffffffffffffffffff1614806114eb57506114ea856114e56116b1565b611409565b5b61152a576040517f08c379a000000000000000000000000000000000000000000000000000000000815260040161152190613f10565b60405180910390fd5b6115378585858585611d66565b5050505050565b600161154b33600061044c565b1461158b576040517f08c379a000000000000000000000000000000000000000000000000000000000815260040161158290613697565b60405180910390fd5b600660009054906101000a900460ff166115da576040517f08c379a00000000000000000000000000000000000000000000000000000000081526004016115d190613703565b60405180910390fd5b6115e3816107e9565b6115f03360006001611fe8565b6000600660006101000a81548160ff02191690831515021790555050565b6001816000016000828254019250508190555050565b6000808273ffffffffffffffffffffffffffffffffffffffff163b119050919050565b60007f01ffc9a7000000000000000000000000000000000000000000000000000000007bffffffffffffffffffffffffffffffffffffffffffffffffffffffff1916827bffffffffffffffffffffffffffffffffffffffffffffffffffffffff1916149050919050565b600033905090565b81518351146116fd576040517f08c379a00000000000000000000000000000000000000000000000000000000081526004016116f490613fa2565b60405180910390fd5b600073ffffffffffffffffffffffffffffffffffffffff168473ffffffffffffffffffffffffffffffffffffffff16141561176d576040517f08c379a000000000000000000000000000000000000000000000000000000000815260040161176490614034565b60405180910390fd5b60006117776116b1565b9050611787818787878787612205565b60005b84518110156119385760008582815181106117a8576117a7613847565b5b6020026020010151905060008583815181106117c7576117c6613847565b5b60200260200101519050600080600084815260200190815260200160002060008b73ffffffffffffffffffffffffffffffffffffffff1673ffffffffffffffffffffffffffffffffffffffff16815260200190815260200160002054905081811015611868576040517f08c379a000000000000000000000000000000000000000000000000000000000815260040161185f906140c6565b60405180910390fd5b81810360008085815260200190815260200160002060008c73ffffffffffffffffffffffffffffffffffffffff1673ffffffffffffffffffffffffffffffffffffffff168152602001908152602001600020819055508160008085815260200190815260200160002060008b73ffffffffffffffffffffffffffffffffffffffff1673ffffffffffffffffffffffffffffffffffffffff168152602001908152602001600020600082825461191d9190613b4b565b9250508190555050505080611931906138a5565b905061178a565b508473ffffffffffffffffffffffffffffffffffffffff168673ffffffffffffffffffffffffffffffffffffffff168273ffffffffffffffffffffffffffffffffffffffff167f4a39dc06d4c0dbc64b70af90fd698a233a518aa5d07e595d983b8c0526c8f7fb87876040516119af9291906140e6565b60405180910390a46119c581878787878761220d565b505050505050565b600081600001549050919050565b8173ffffffffffffffffffffffffffffffffffffffff168373ffffffffffffffffffffffffffffffffffffffff161415611a4a576040517f08c379a0000000000000000000000000000000000000000000000000000000008152600401611a419061418f565b60405180910390fd5b80600160008573ffffffffffffffffffffffffffffffffffffffff1673ffffffffffffffffffffffffffffffffffffffff16815260200190815260200160002060008473ffffffffffffffffffffffffffffffffffffffff1673ffffffffffffffffffffffffffffffffffffffff16815260200190815260200160002060006101000a81548160ff0219169083151502179055508173ffffffffffffffffffffffffffffffffffffffff168373ffffffffffffffffffffffffffffffffffffffff167f17307eab39ab6107e8899845ad3d59bd9653f200f220920489ca2b5937696c3183604051611b3b9190612930565b60405180910390a3505050565b600073ffffffffffffffffffffffffffffffffffffffff168473ffffffffffffffffffffffffffffffffffffffff161415611bb8576040517f08c379a0000000000000000000000000000000000000000000000000000000008152600401611baf90614221565b60405180910390fd5b8151835114611bfc576040517f08c379a0000000000000000000000000000000000000000000000000000000008152600401611bf390613fa2565b60405180910390fd5b6000611c066116b1565b9050611c1781600087878787612205565b60005b8451811015611cd057838181518110611c3657611c35613847565b5b6020026020010151600080878481518110611c5457611c53613847565b5b6020026020010151815260200190815260200160002060008873ffffffffffffffffffffffffffffffffffffffff1673ffffffffffffffffffffffffffffffffffffffff1681526020019081526020016000206000828254611cb69190613b4b565b925050819055508080611cc8906138a5565b915050611c1a565b508473ffffffffffffffffffffffffffffffffffffffff16600073ffffffffffffffffffffffffffffffffffffffff168273ffffffffffffffffffffffffffffffffffffffff167f4a39dc06d4c0dbc64b70af90fd698a233a518aa5d07e595d983b8c0526c8f7fb8787604051611d489291906140e6565b60405180910390a4611d5f8160008787878761220d565b5050505050565b600073ffffffffffffffffffffffffffffffffffffffff168473ffffffffffffffffffffffffffffffffffffffff161415611dd6576040517f08c379a0000000000000000000000000000000000000000000000000000000008152600401611dcd90614034565b60405180910390fd5b6000611de06116b1565b9050611e00818787611df1886123f4565b611dfa886123f4565b87612205565b600080600086815260200190815260200160002060008873ffffffffffffffffffffffffffffffffffffffff1673ffffffffffffffffffffffffffffffffffffffff16815260200190815260200160002054905083811015611e97576040517f08c379a0000000000000000000000000000000000000000000000000000000008152600401611e8e906140c6565b60405180910390fd5b83810360008087815260200190815260200160002060008973ffffffffffffffffffffffffffffffffffffffff1673ffffffffffffffffffffffffffffffffffffffff168152602001908152602001600020819055508360008087815260200190815260200160002060008873ffffffffffffffffffffffffffffffffffffffff1673ffffffffffffffffffffffffffffffffffffffff1681526020019081526020016000206000828254611f4c9190613b4b565b925050819055508573ffffffffffffffffffffffffffffffffffffffff168773ffffffffffffffffffffffffffffffffffffffff168373ffffffffffffffffffffffffffffffffffffffff167fc3d58168c5ae7397731d063d5bbf3d657854427343f4c083240f7aacaa2d0f628888604051611fc9929190614241565b60405180910390a4611fdf82888888888861246e565b50505050505050565b600073ffffffffffffffffffffffffffffffffffffffff168373ffffffffffffffffffffffffffffffffffffffff161415612058576040517f08c379a000000000000000000000000000000000000000000000000000000000815260040161204f906142dc565b60405180910390fd5b60006120626116b1565b905061209281856000612074876123f4565b61207d876123f4565b60405180602001604052806000815250612205565b600080600085815260200190815260200160002060008673ffffffffffffffffffffffffffffffffffffffff1673ffffffffffffffffffffffffffffffffffffffff16815260200190815260200160002054905082811015612129576040517f08c379a00000000000000000000000000000000000000000000000000000000081526004016121209061436e565b60405180910390fd5b82810360008086815260200190815260200160002060008773ffffffffffffffffffffffffffffffffffffffff1673ffffffffffffffffffffffffffffffffffffffff16815260200190815260200160002081905550600073ffffffffffffffffffffffffffffffffffffffff168573ffffffffffffffffffffffffffffffffffffffff168373ffffffffffffffffffffffffffffffffffffffff167fc3d58168c5ae7397731d063d5bbf3d657854427343f4c083240f7aacaa2d0f6287876040516121f6929190614241565b60405180910390a45050505050565b505050505050565b61222c8473ffffffffffffffffffffffffffffffffffffffff16611624565b156123ec578373ffffffffffffffffffffffffffffffffffffffff1663bc197c8187878686866040518663ffffffff1660e01b81526004016122729594939291906143f2565b602060405180830381600087803b15801561228c57600080fd5b505af19250505080156122bd57506040513d601f19601f820116820180604052508101906122ba919061446f565b60015b612363576122c96144a9565b806308c379a0141561232657506122de6144cb565b806122e95750612328565b806040517f08c379a000000000000000000000000000000000000000000000000000000000815260040161231d9190612a11565b60405180910390fd5b505b6040517f08c379a000000000000000000000000000000000000000000000000000000000815260040161235a906145d3565b60405180910390fd5b63bc197c8160e01b7bffffffffffffffffffffffffffffffffffffffffffffffffffffffff1916817bffffffffffffffffffffffffffffffffffffffffffffffffffffffff1916146123ea576040517f08c379a00000000000000000000000000000000000000000000000000000000081526004016123e190614665565b60405180910390fd5b505b505050505050565b60606000600167ffffffffffffffff81111561241357612412612a9b565b5b6040519080825280602002602001820160405280156124415781602001602082028036833780820191505090505b509050828160008151811061245957612458613847565b5b60200260200101818152505080915050919050565b61248d8473ffffffffffffffffffffffffffffffffffffffff16611624565b1561264d578373ffffffffffffffffffffffffffffffffffffffff1663f23a6e6187878686866040518663ffffffff1660e01b81526004016124d3959493929190614685565b602060405180830381600087803b1580156124ed57600080fd5b505af192505050801561251e57506040513d601f19601f8201168201806040525081019061251b919061446f565b60015b6125c45761252a6144a9565b806308c379a01415612587575061253f6144cb565b8061254a5750612589565b806040517f08c379a000000000000000000000000000000000000000000000000000000000815260040161257e9190612a11565b60405180910390fd5b505b6040517f08c379a00000000000000000000000000000000000000000000000000000000081526004016125bb906145d3565b60405180910390fd5b63f23a6e6160e01b7bffffffffffffffffffffffffffffffffffffffffffffffffffffffff1916817bffffffffffffffffffffffffffffffffffffffffffffffffffffffff19161461264b576040517f08c379a000000000000000000000000000000000000000000000000000000000815260040161264290614665565b60405180910390fd5b505b505050505050565b82805461266190613619565b90600052602060002090601f01602090048101928261268357600085556126ca565b82601f1061269c57805160ff19168380011785556126ca565b828001600101855582156126ca579182015b828111156126c95782518255916020019190600101906126ae565b5b5090506126d79190612761565b5090565b8280546126e790613619565b90600052602060002090601f0160209004810192826127095760008555612750565b82601f1061272257803560ff1916838001178555612750565b82800160010185558215612750579182015b8281111561274f578235825591602001919060010190612734565b5b50905061275d9190612761565b5090565b5b8082111561277a576000816000905550600101612762565b5090565b6000604051905090565b600080fd5b600080fd5b600073ffffffffffffffffffffffffffffffffffffffff82169050919050565b60006127bd82612792565b9050919050565b6127cd816127b2565b81146127d857600080fd5b50565b6000813590506127ea816127c4565b92915050565b6000819050919050565b612803816127f0565b811461280e57600080fd5b50565b600081359050612820816127fa565b92915050565b6000806040838503121561283d5761283c612788565b5b600061284b858286016127db565b925050602061285c85828601612811565b9150509250929050565b61286f816127f0565b82525050565b600060208201905061288a6000830184612866565b92915050565b60007fffffffff0000000000000000000000000000000000000000000000000000000082169050919050565b6128c581612890565b81146128d057600080fd5b50565b6000813590506128e2816128bc565b92915050565b6000602082840312156128fe576128fd612788565b5b600061290c848285016128d3565b91505092915050565b60008115159050919050565b61292a81612915565b82525050565b60006020820190506129456000830184612921565b92915050565b60006020828403121561296157612960612788565b5b600061296f84828501612811565b91505092915050565b600081519050919050565b600082825260208201905092915050565b60005b838110156129b2578082015181840152602081019050612997565b838111156129c1576000848401525b50505050565b6000601f19601f8301169050919050565b60006129e382612978565b6129ed8185612983565b93506129fd818560208601612994565b612a06816129c7565b840191505092915050565b60006020820190508181036000830152612a2b81846129d8565b905092915050565b6000819050919050565b612a4681612a33565b8114612a5157600080fd5b50565b600081359050612a6381612a3d565b92915050565b600060208284031215612a7f57612a7e612788565b5b6000612a8d84828501612a54565b91505092915050565b600080fd5b7f4e487b7100000000000000000000000000000000000000000000000000000000600052604160045260246000fd5b612ad3826129c7565b810181811067ffffffffffffffff82111715612af257612af1612a9b565b5b80604052505050565b6000612b0561277e565b9050612b118282612aca565b919050565b600067ffffffffffffffff821115612b3157612b30612a9b565b5b602082029050602081019050919050565b600080fd5b6000612b5a612b5584612b16565b612afb565b90508083825260208201905060208402830185811115612b7d57612b7c612b42565b5b835b81811015612ba65780612b928882612811565b845260208401935050602081019050612b7f565b5050509392505050565b600082601f830112612bc557612bc4612a96565b5b8135612bd5848260208601612b47565b91505092915050565b600080fd5b600067ffffffffffffffff821115612bfe57612bfd612a9b565b5b612c07826129c7565b9050602081019050919050565b82818337600083830152505050565b6000612c36612c3184612be3565b612afb565b905082815260208101848484011115612c5257612c51612bde565b5b612c5d848285612c14565b509392505050565b600082601f830112612c7a57612c79612a96565b5b8135612c8a848260208601612c23565b91505092915050565b600080600080600060a08688031215612caf57612cae612788565b5b6000612cbd888289016127db565b9550506020612cce888289016127db565b945050604086013567ffffffffffffffff811115612cef57612cee61278d565b5b612cfb88828901612bb0565b935050606086013567ffffffffffffffff811115612d1c57612d1b61278d565b5b612d2888828901612bb0565b925050608086013567ffffffffffffffff811115612d4957612d4861278d565b5b612d5588828901612c65565b9150509295509295909350565b612d6b81612a33565b82525050565b6000602082019050612d866000830184612d62565b92915050565b600060208284031215612da257612da1612788565b5b6000612db0848285016127db565b91505092915050565b600067ffffffffffffffff821115612dd457612dd3612a9b565b5b602082029050602081019050919050565b6000612df8612df384612db9565b612afb565b90508083825260208201905060208402830185811115612e1b57612e1a612b42565b5b835b81811015612e445780612e3088826127db565b845260208401935050602081019050612e1d565b5050509392505050565b600082601f830112612e6357612e62612a96565b5b8135612e73848260208601612de5565b91505092915050565b60008060408385031215612e9357612e92612788565b5b600083013567ffffffffffffffff811115612eb157612eb061278d565b5b612ebd85828601612e4e565b925050602083013567ffffffffffffffff811115612ede57612edd61278d565b5b612eea85828601612bb0565b9150509250929050565b600081519050919050565b600082825260208201905092915050565b6000819050602082019050919050565b612f29816127f0565b82525050565b6000612f3b8383612f20565b60208301905092915050565b6000602082019050919050565b6000612f5f82612ef4565b612f698185612eff565b9350612f7483612f10565b8060005b83811015612fa5578151612f8c8882612f2f565b9750612f9783612f47565b925050600181019050612f78565b5085935050505092915050565b60006020820190508181036000830152612fcc8184612f54565b905092915050565b600067ffffffffffffffff821115612fef57612fee612a9b565b5b612ff8826129c7565b9050602081019050919050565b600061301861301384612fd4565b612afb565b90508281526020810184848401111561303457613033612bde565b5b61303f848285612c14565b509392505050565b600082601f83011261305c5761305b612a96565b5b813561306c848260208601613005565b91505092915050565b60006020828403121561308b5761308a612788565b5b600082013567ffffffffffffffff8111156130a9576130a861278d565b5b6130b584828501613047565b91505092915050565b600080fd5b60008083601f8401126130d9576130d8612a96565b5b8235905067ffffffffffffffff8111156130f6576130f56130be565b5b60208301915083602082028301111561311257613111612b42565b5b9250929050565b60008083601f84011261312f5761312e612a96565b5b8235905067ffffffffffffffff81111561314c5761314b6130be565b5b60208301915083602082028301111561316857613167612b42565b5b9250929050565b6000806000806040858703121561318957613188612788565b5b600085013567ffffffffffffffff8111156131a7576131a661278d565b5b6131b3878288016130c3565b9450945050602085013567ffffffffffffffff8111156131d6576131d561278d565b5b6131e287828801613119565b925092505092959194509250565b6131f981612915565b811461320457600080fd5b50565b600081359050613216816131f0565b92915050565b6000806040838503121561323357613232612788565b5b6000613241858286016127db565b925050602061325285828601613207565b9150509250929050565b6000806040838503121561327357613272612788565b5b600061328185828601612811565b925050602083013567ffffffffffffffff8111156132a2576132a161278d565b5b6132ae85828601613047565b9150509250929050565b60008083601f8401126132ce576132cd612a96565b5b8235905067ffffffffffffffff8111156132eb576132ea6130be565b5b60208301915083602082028301111561330757613306612b42565b5b9250929050565b60008083601f84011261332457613323612a96565b5b8235905067ffffffffffffffff811115613341576133406130be565b5b60208301915083602082028301111561335d5761335c612b42565b5b9250929050565b60008060008060008060008060008060a08b8d03121561338757613386612788565b5b60008b013567ffffffffffffffff8111156133a5576133a461278d565b5b6133b18d828e016130c3565b9a509a505060208b013567ffffffffffffffff8111156133d4576133d361278d565b5b6133e08d828e016130c3565b985098505060408b013567ffffffffffffffff8111156134035761340261278d565b5b61340f8d828e016130c3565b965096505060608b013567ffffffffffffffff8111156134325761343161278d565b5b61343e8d828e016132b8565b945094505060808b013567ffffffffffffffff8111156134615761346061278d565b5b61346d8d828e0161330e565b92509250509295989b9194979a5092959850565b6000806040838503121561349857613497612788565b5b60006134a6858286016127db565b92505060206134b7858286016127db565b9150509250929050565b600080600080600060a086880312156134dd576134dc612788565b5b60006134eb888289016127db565b95505060206134fc888289016127db565b945050604061350d88828901612811565b935050606061351e88828901612811565b925050608086013567ffffffffffffffff81111561353f5761353e61278d565b5b61354b88828901612c65565b9150509295509295909350565b7f455243313135353a2062616c616e636520717565727920666f7220746865207a60008201527f65726f2061646472657373000000000000000000000000000000000000000000602082015250565b60006135b4602b83612983565b91506135bf82613558565b604082019050919050565b600060208201905081810360008301526135e3816135a7565b9050919050565b7f4e487b7100000000000000000000000000000000000000000000000000000000600052602260045260246000fd5b6000600282049050600182168061363157607f821691505b60208210811415613645576136446135ea565b5b50919050565b7f6e6f74206f776e65720000000000000000000000000000000000000000000000600082015250565b6000613681600983612983565b915061368c8261364b565b602082019050919050565b600060208201905081810360008301526136b081613674565b9050919050565b7f73686f7020636c6f736564000000000000000000000000000000000000000000600082015250565b60006136ed600b83612983565b91506136f8826136b7565b602082019050919050565b6000602082019050818103600083015261371c816136e0565b9050919050565b7f455243313135353a207472616e736665722063616c6c6572206973206e6f742060008201527f6f776e6572206e6f7220617070726f7665640000000000000000000000000000602082015250565b600061377f603283612983565b915061378a82613723565b604082019050919050565b600060208201905081810360008301526137ae81613772565b9050919050565b7f455243313135353a206163636f756e747320616e6420696473206c656e67746860008201527f206d69736d617463680000000000000000000000000000000000000000000000602082015250565b6000613811602983612983565b915061381c826137b5565b604082019050919050565b6000602082019050818103600083015261384081613804565b9050919050565b7f4e487b7100000000000000000000000000000000000000000000000000000000600052603260045260246000fd5b7f4e487b7100000000000000000000000000000000000000000000000000000000600052601160045260246000fd5b60006138b0826127f0565b91507fffffffffffffffffffffffffffffffffffffffffffffffffffffffffffffffff8214156138e3576138e2613876565b5b600182019050919050565b7f756e657175616c206c656e677468000000000000000000000000000000000000600082015250565b6000613924600e83612983565b915061392f826138ee565b602082019050919050565b6000602082019050818103600083015261395381613917565b9050919050565b7f6964206d69736d61746368000000000000000000000000000000000000000000600082015250565b6000613990600b83612983565b915061399b8261395a565b602082019050919050565b600060208201905081810360008301526139bf81613983565b9050919050565b7f75726920656d7074790000000000000000000000000000000000000000000000600082015250565b60006139fc600983612983565b9150613a07826139c6565b602082019050919050565b60006020820190508181036000830152613a2b816139ef565b9050919050565b600080fd5b600080fd5b600080fd5b60008083356001602003843603038112613a5e57613a5d613a32565b5b80840192508235915067ffffffffffffffff821115613a8057613a7f613a37565b5b602083019250600182023603831315613a9c57613a9b613a3c565b5b509250929050565b6000819050919050565b613abf613aba826127f0565b613aa4565b82525050565b6000613ad18285613aae565b602082019150613ae18284613aae565b6020820191508190509392505050565b6000613afc826127f0565b9150613b07836127f0565b9250817fffffffffffffffffffffffffffffffffffffffffffffffffffffffffffffffff0483118215151615613b4057613b3f613876565b5b828202905092915050565b6000613b56826127f0565b9150613b61836127f0565b9250827fffffffffffffffffffffffffffffffffffffffffffffffffffffffffffffffff03821115613b9657613b95613876565b5b828201905092915050565b613baa81612a33565b82525050565b600081519050919050565b600082825260208201905092915050565b6000819050602082019050919050565b613be581612a33565b82525050565b6000613bf78383613bdc565b60208301905092915050565b6000602082019050919050565b6000613c1b82613bb0565b613c258185613bbb565b9350613c3083613bcc565b8060005b83811015613c61578151613c488882613beb565b9750613c5383613c03565b925050600181019050613c34565b5085935050505092915050565b600080fd5b6000613c7f8385613bbb565b93507f07ffffffffffffffffffffffffffffffffffffffffffffffffffffffffffffff831115613cb257613cb1613c6e565b5b602083029250613cc3838584612c14565b82840190509392505050565b600082825260208201905092915050565b6000819050919050565b613cf381612915565b82525050565b6000613d058383613cea565b60208301905092915050565b6000613d206020840184613207565b905092915050565b6000602082019050919050565b6000613d418385613ccf565b9350613d4c82613ce0565b8060005b85811015613d8557613d628284613d11565b613d6c8882613cf9565b9750613d7783613d28565b925050600181019050613d50565b5085925050509392505050565b6000608082019050613da76000830189613ba1565b8181036020830152613db98188613c10565b90508181036040830152613dce818688613c73565b90508181036060830152613de3818486613d35565b9050979650505050505050565b600081519050613dff816131f0565b92915050565b600060208284031215613e1b57613e1a612788565b5b6000613e2984828501613df0565b91505092915050565b7f70726f6f66000000000000000000000000000000000000000000000000000000600082015250565b6000613e68600583612983565b9150613e7382613e32565b602082019050919050565b60006020820190508181036000830152613e9781613e5b565b9050919050565b7f455243313135353a2063616c6c6572206973206e6f74206f776e6572206e6f7260008201527f20617070726f7665640000000000000000000000000000000000000000000000602082015250565b6000613efa602983612983565b9150613f0582613e9e565b604082019050919050565b60006020820190508181036000830152613f2981613eed565b9050919050565b7f455243313135353a2069647320616e6420616d6f756e7473206c656e6774682060008201527f6d69736d61746368000000000000000000000000000000000000000000000000602082015250565b6000613f8c602883612983565b9150613f9782613f30565b604082019050919050565b60006020820190508181036000830152613fbb81613f7f565b9050919050565b7f455243313135353a207472616e7366657220746f20746865207a65726f20616460008201527f6472657373000000000000000000000000000000000000000000000000000000602082015250565b600061401e602583612983565b915061402982613fc2565b604082019050919050565b6000602082019050818103600083015261404d81614011565b9050919050565b7f455243313135353a20696e73756666696369656e742062616c616e636520666f60008201527f72207472616e7366657200000000000000000000000000000000000000000000602082015250565b60006140b0602a83612983565b91506140bb82614054565b604082019050919050565b600060208201905081810360008301526140df816140a3565b9050919050565b600060408201905081810360008301526141008185612f54565b905081810360208301526141148184612f54565b90509392505050565b7f455243313135353a2073657474696e6720617070726f76616c2073746174757360008201527f20666f722073656c660000000000000000000000000000000000000000000000602082015250565b6000614179602983612983565b91506141848261411d565b604082019050919050565b600060208201905081810360008301526141a88161416c565b9050919050565b7f455243313135353a206d696e7420746f20746865207a65726f2061646472657360008201527f7300000000000000000000000000000000000000000000000000000000000000602082015250565b600061420b602183612983565b9150614216826141af565b604082019050919050565b6000602082019050818103600083015261423a816141fe565b9050919050565b60006040820190506142566000830185612866565b6142636020830184612866565b9392505050565b7f455243313135353a206275726e2066726f6d20746865207a65726f206164647260008201527f6573730000000000000000000000000000000000000000000000000000000000602082015250565b60006142c6602383612983565b91506142d18261426a565b604082019050919050565b600060208201905081810360008301526142f5816142b9565b9050919050565b7f455243313135353a206275726e20616d6f756e7420657863656564732062616c60008201527f616e636500000000000000000000000000000000000000000000000000000000602082015250565b6000614358602483612983565b9150614363826142fc565b604082019050919050565b600060208201905081810360008301526143878161434b565b9050919050565b614397816127b2565b82525050565b600081519050919050565b600082825260208201905092915050565b60006143c48261439d565b6143ce81856143a8565b93506143de818560208601612994565b6143e7816129c7565b840191505092915050565b600060a082019050614407600083018861438e565b614414602083018761438e565b81810360408301526144268186612f54565b9050818103606083015261443a8185612f54565b9050818103608083015261444e81846143b9565b90509695505050505050565b600081519050614469816128bc565b92915050565b60006020828403121561448557614484612788565b5b60006144938482850161445a565b91505092915050565b60008160e01c9050919050565b600060033d11156144c85760046000803e6144c560005161449c565b90505b90565b600060443d10156144db5761455e565b6144e361277e565b60043d036004823e80513d602482011167ffffffffffffffff8211171561450b57505061455e565b808201805167ffffffffffffffff811115614529575050505061455e565b80602083010160043d03850181111561454657505050505061455e565b61455582602001850186612aca565b82955050505050505b90565b7f455243313135353a207472616e7366657220746f206e6f6e204552433131353560008201527f526563656976657220696d706c656d656e746572000000000000000000000000602082015250565b60006145bd603483612983565b91506145c882614561565b604082019050919050565b600060208201905081810360008301526145ec816145b0565b9050919050565b7f455243313135353a204552433131353552656365697665722072656a6563746560008201527f6420746f6b656e73000000000000000000000000000000000000000000000000602082015250565b600061464f602883612983565b915061465a826145f3565b604082019050919050565b6000602082019050818103600083015261467e81614642565b9050919050565b600060a08201905061469a600083018861438e565b6146a7602083018761438e565b6146b46040830186612866565b6146c16060830185612866565b81810360808301526146d381846143b9565b9050969550505050505056fea26469706673582212209a20c956340094fbe7f633d80ae072f6aef80d7a3d7a75149bde9336f554f38064736f6c63430008090033a2646970667358221220f43a2d374ce07ea8a635b47735792bdcf50d20be11a21895fa2d9fcec771a53a64736f6c63430008090033",
  "deployedBytecode": "0x60806040523480156200001157600080fd5b50600436106200002e5760003560e01c8063fdf960481462000033575b600080fd5b6200005160048036038101906200004b919062000330565b62000069565b604051620000609190620003f1565b60405180910390f35b600080828686866040516200007e906200010c565b6200008c93929190620004a1565b8190604051809103906000f5905080158015620000ad573d6000803e3d6000fd5b5090508573ffffffffffffffffffffffffffffffffffffffff167f587ece4cd19692c5be1a4184503d607d45542d2aca0698c0068f52e09ccb541c82604051620000f89190620003f1565b60405180910390a280915050949350505050565b61560880620004ed83390190565b6000604051905090565b600080fd5b600080fd5b600073ffffffffffffffffffffffffffffffffffffffff82169050919050565b60006200015b826200012e565b9050919050565b6200016d816200014e565b81146200017957600080fd5b50565b6000813590506200018d8162000162565b92915050565b600080fd5b600080fd5b6000601f19601f8301169050919050565b7f4e487b7100000000000000000000000000000000000000000000000000000000600052604160045260246000fd5b620001e8826200019d565b810181811067ffffffffffffffff821117156200020a5762000209620001ae565b5b80604052505050565b60006200021f6200011a565b90506200022d8282620001dd565b919050565b600067ffffffffffffffff82111562000250576200024f620001ae565b5b6200025b826200019d565b9050602081019050919050565b82818337600083830152505050565b60006200028e620002888462000232565b62000213565b905082815260208101848484011115620002ad57620002ac62000198565b5b620002ba84828562000268565b509392505050565b600082601f830112620002da57620002d962000193565b5b8135620002ec84826020860162000277565b91505092915050565b6000819050919050565b6200030a81620002f5565b81146200031657600080fd5b50565b6000813590506200032a81620002ff565b92915050565b600080600080608085870312156200034d576200034c62000124565b5b60006200035d878288016200017c565b945050602085013567ffffffffffffffff81111562000381576200038062000129565b5b6200038f87828801620002c2565b935050604085013567ffffffffffffffff811115620003b357620003b262000129565b5b620003c187828801620002c2565b9250506060620003d48782880162000319565b91505092959194509250565b620003eb816200014e565b82525050565b6000602082019050620004086000830184620003e0565b92915050565b600081519050919050565b600082825260208201905092915050565b60005b838110156200044a5780820151818401526020810190506200042d565b838111156200045a576000848401525b50505050565b60006200046d826200040e565b62000479818562000419565b93506200048b8185602086016200042a565b62000496816200019d565b840191505092915050565b6000606082019050620004b86000830186620003e0565b8181036020830152620004cc818562000460565b90508181036040830152620004e2818462000460565b905094935050505056fe60806040526001600660006101000a81548160ff0219169083151502179055503480156200002c57600080fd5b506040516200560838038062005608833981810160405281019062000052919062000863565b604051806020016040528060008152506200007381620000fc60201b60201c565b50620000998360006001604051806020016040528060008152506200011860201b60201c565b620000b06005620002dd60201b6200160e1760201c565b8160049080519060200190620000c8929190620005b1565b5080600760008081526020019081526020016000209080519060200190620000f2929190620005b1565b5050505062000ee3565b806002908051906020019062000114929190620005b1565b5050565b600073ffffffffffffffffffffffffffffffffffffffff168473ffffffffffffffffffffffffffffffffffffffff1614156200018b576040517f08c379a0000000000000000000000000000000000000000000000000000000008152600401620001829062000984565b60405180910390fd5b60006200019d620002f360201b60201c565b9050620001d681600087620001b888620002fb60201b60201c565b620001c988620002fb60201b60201c565b876200037c60201b60201c565b8260008086815260200190815260200160002060008773ffffffffffffffffffffffffffffffffffffffff1673ffffffffffffffffffffffffffffffffffffffff1681526020019081526020016000206000828254620002379190620009df565b925050819055508473ffffffffffffffffffffffffffffffffffffffff16600073ffffffffffffffffffffffffffffffffffffffff168273ffffffffffffffffffffffffffffffffffffffff167fc3d58168c5ae7397731d063d5bbf3d657854427343f4c083240f7aacaa2d0f628787604051620002b792919062000a4d565b60405180910390a4620002d6816000878787876200038460201b60201c565b5050505050565b6001816000016000828254019250508190555050565b600033905090565b60606000600167ffffffffffffffff8111156200031d576200031c620006f5565b5b6040519080825280602002602001820160405280156200034c5781602001602082028036833780820191505090505b509050828160008151811062000367576200036662000a7a565b5b60200260200101818152505080915050919050565b505050505050565b620003b08473ffffffffffffffffffffffffffffffffffffffff166200058e60201b620016241760201c565b1562000586578373ffffffffffffffffffffffffffffffffffffffff1663f23a6e6187878686866040518663ffffffff1660e01b8152600401620003f995949392919062000b17565b602060405180830381600087803b1580156200041457600080fd5b505af19250505080156200044857506040513d601f19601f8201168201806040525081019062000445919062000bd8565b60015b620004fa576200045762000c17565b806308c379a01415620004bb57506200046f62000c3c565b806200047c5750620004bd565b806040517f08c379a0000000000000000000000000000000000000000000000000000000008152600401620004b2919062000d2a565b60405180910390fd5b505b6040517f08c379a0000000000000000000000000000000000000000000000000000000008152600401620004f19062000dc4565b60405180910390fd5b63f23a6e6160e01b7bffffffffffffffffffffffffffffffffffffffffffffffffffffffff1916817bffffffffffffffffffffffffffffffffffffffffffffffffffffffff19161462000584576040517f08c379a00000000000000000000000000000000000000000000000000000000081526004016200057b9062000e5c565b60405180910390fd5b505b505050505050565b6000808273ffffffffffffffffffffffffffffffffffffffff163b119050919050565b828054620005bf9062000ead565b90600052602060002090601f016020900481019282620005e357600085556200062f565b82601f10620005fe57805160ff19168380011785556200062f565b828001600101855582156200062f579182015b828111156200062e57825182559160200191906001019062000611565b5b5090506200063e919062000642565b5090565b5b808211156200065d57600081600090555060010162000643565b5090565b6000604051905090565b600080fd5b600080fd5b600073ffffffffffffffffffffffffffffffffffffffff82169050919050565b6000620006a28262000675565b9050919050565b620006b48162000695565b8114620006c057600080fd5b50565b600081519050620006d481620006a9565b92915050565b600080fd5b600080fd5b6000601f19601f8301169050919050565b7f4e487b7100000000000000000000000000000000000000000000000000000000600052604160045260246000fd5b6200072f82620006e4565b810181811067ffffffffffffffff82111715620007515762000750620006f5565b5b80604052505050565b60006200076662000661565b905062000774828262000724565b919050565b600067ffffffffffffffff821115620007975762000796620006f5565b5b620007a282620006e4565b9050602081019050919050565b60005b83811015620007cf578082015181840152602081019050620007b2565b83811115620007df576000848401525b50505050565b6000620007fc620007f68462000779565b6200075a565b9050828152602081018484840111156200081b576200081a620006df565b5b62000828848285620007af565b509392505050565b600082601f830112620008485762000847620006da565b5b81516200085a848260208601620007e5565b91505092915050565b6000806000606084860312156200087f576200087e6200066b565b5b60006200088f86828701620006c3565b935050602084015167ffffffffffffffff811115620008b357620008b262000670565b5b620008c18682870162000830565b925050604084015167ffffffffffffffff811115620008e557620008e462000670565b5b620008f38682870162000830565b9150509250925092565b600082825260208201905092915050565b7f455243313135353a206d696e7420746f20746865207a65726f2061646472657360008201527f7300000000000000000000000000000000000000000000000000000000000000602082015250565b60006200096c602183620008fd565b915062000979826200090e565b604082019050919050565b600060208201905081810360008301526200099f816200095d565b9050919050565b6000819050919050565b7f4e487b7100000000000000000000000000000000000000000000000000000000600052601160045260246000fd5b6000620009ec82620009a6565b9150620009f983620009a6565b9250827fffffffffffffffffffffffffffffffffffffffffffffffffffffffffffffffff0382111562000a315762000a30620009b0565b5b828201905092915050565b62000a4781620009a6565b82525050565b600060408201905062000a64600083018562000a3c565b62000a73602083018462000a3c565b9392505050565b7f4e487b7100000000000000000000000000000000000000000000000000000000600052603260045260246000fd5b62000ab48162000695565b82525050565b600081519050919050565b600082825260208201905092915050565b600062000ae38262000aba565b62000aef818562000ac5565b935062000b01818560208601620007af565b62000b0c81620006e4565b840191505092915050565b600060a08201905062000b2e600083018862000aa9565b62000b3d602083018762000aa9565b62000b4c604083018662000a3c565b62000b5b606083018562000a3c565b818103608083015262000b6f818462000ad6565b90509695505050505050565b60007fffffffff0000000000000000000000000000000000000000000000000000000082169050919050565b62000bb28162000b7b565b811462000bbe57600080fd5b50565b60008151905062000bd28162000ba7565b92915050565b60006020828403121562000bf15762000bf06200066b565b5b600062000c018482850162000bc1565b91505092915050565b60008160e01c9050919050565b600060033d111562000c395760046000803e62000c3660005162000c0a565b90505b90565b600060443d101562000c4e5762000cdb565b62000c5862000661565b60043d036004823e80513d602482011167ffffffffffffffff8211171562000c8257505062000cdb565b808201805167ffffffffffffffff81111562000ca2575050505062000cdb565b80602083010160043d03850181111562000cc157505050505062000cdb565b62000cd28260200185018662000724565b82955050505050505b90565b600081519050919050565b600062000cf68262000cde565b62000d028185620008fd565b935062000d14818560208601620007af565b62000d1f81620006e4565b840191505092915050565b6000602082019050818103600083015262000d46818462000ce9565b905092915050565b7f455243313135353a207472616e7366657220746f206e6f6e204552433131353560008201527f526563656976657220696d706c656d656e746572000000000000000000000000602082015250565b600062000dac603483620008fd565b915062000db98262000d4e565b604082019050919050565b6000602082019050818103600083015262000ddf8162000d9d565b9050919050565b7f455243313135353a204552433131353552656365697665722072656a6563746560008201527f6420746f6b656e73000000000000000000000000000000000000000000000000602082015250565b600062000e44602883620008fd565b915062000e518262000de6565b604082019050919050565b6000602082019050818103600083015262000e778162000e35565b9050919050565b7f4e487b7100000000000000000000000000000000000000000000000000000000600052602260045260246000fd5b6000600282049050600182168062000ec657607f821691505b6020821081141562000edd5762000edc62000e7e565b5b50919050565b6147158062000ef36000396000f3fe6080604052600436106101085760003560e01c806375794a3c11610095578063db8ef51511610064578063db8ef51514610378578063e69925b4146103a1578063e985e9c5146103bd578063f242432a146103fa578063f96d69311461042357610108565b806375794a3c146102d0578063888321d0146102fb578063a22cb46514610324578063ae049e0d1461034d57610108565b80632eb2c2d6116100dc5780632eb2c2d6146101ed578063431e9433146102165780634846ff7e146102415780634e1273f41461026a5780636cc03b82146102a757610108565b8062fdd58e1461010d57806301ffc9a71461014a5780630e89341c1461018757806324573ec5146101c4575b600080fd5b34801561011957600080fd5b50610134600480360381019061012f9190612826565b61044c565b6040516101419190612875565b60405180910390f35b34801561015657600080fd5b50610171600480360381019061016c91906128e8565b610515565b60405161017e9190612930565b60405180910390f35b34801561019357600080fd5b506101ae60048036038101906101a9919061294b565b6105f7565b6040516101bb9190612a11565b60405180910390f35b3480156101d057600080fd5b506101eb60048036038101906101e69190612a69565b61069c565b005b3480156101f957600080fd5b50610214600480360381019061020f9190612c93565b610742565b005b34801561022257600080fd5b5061022b6107e3565b6040516102389190612d71565b60405180910390f35b34801561024d57600080fd5b5061026860048036038101906102639190612d8c565b6107e9565b005b34801561027657600080fd5b50610291600480360381019061028c9190612e7c565b6108cf565b60405161029e9190612fb2565b60405180910390f35b3480156102b357600080fd5b506102ce60048036038101906102c99190613075565b6109e8565b005b3480156102dc57600080fd5b506102e5610a9e565b6040516102f29190612875565b60405180910390f35b34801561030757600080fd5b50610322600480360381019061031d919061316f565b610aaf565b005b34801561033057600080fd5b5061034b6004803603810190610346919061321c565b610d86565b005b34801561035957600080fd5b50610362610d9c565b60405161036f9190612a11565b60405180910390f35b34801561038457600080fd5b5061039f600480360381019061039a919061325c565b610e2a565b005b6103bb60048036038101906103b69190613364565b610fc0565b005b3480156103c957600080fd5b506103e460048036038101906103df9190613481565b611409565b6040516103f19190612930565b60405180910390f35b34801561040657600080fd5b50610421600480360381019061041c91906134c1565b61149d565b005b34801561042f57600080fd5b5061044a60048036038101906104459190612d8c565b61153e565b005b60008073ffffffffffffffffffffffffffffffffffffffff168373ffffffffffffffffffffffffffffffffffffffff1614156104bd576040517f08c379a00000000000000000000000000000000000000000000000000000000081526004016104b4906135ca565b60405180910390fd5b60008083815260200190815260200160002060008473ffffffffffffffffffffffffffffffffffffffff1673ffffffffffffffffffffffffffffffffffffffff16815260200190815260200160002054905092915050565b60007fd9b67a26000000000000000000000000000000000000000000000000000000007bffffffffffffffffffffffffffffffffffffffffffffffffffffffff1916827bffffffffffffffffffffffffffffffffffffffffffffffffffffffff191614806105e057507f0e89341c000000000000000000000000000000000000000000000000000000007bffffffffffffffffffffffffffffffffffffffffffffffffffffffff1916827bffffffffffffffffffffffffffffffffffffffffffffffffffffffff1916145b806105f057506105ef82611647565b5b9050919050565b606060076000838152602001908152602001600020805461061790613619565b80601f016020809104026020016040519081016040528092919081815260200182805461064390613619565b80156106905780601f1061066557610100808354040283529160200191610690565b820191906000526020600020905b81548152906001019060200180831161067357829003601f168201915b50505050509050919050565b60016106a933600061044c565b146106e9576040517f08c379a00000000000000000000000000000000000000000000000000000000081526004016106e090613697565b60405180910390fd5b600660009054906101000a900460ff16610738576040517f08c379a000000000000000000000000000000000000000000000000000000000815260040161072f90613703565b60405180910390fd5b8060038190555050565b61074a6116b1565b73ffffffffffffffffffffffffffffffffffffffff168573ffffffffffffffffffffffffffffffffffffffff161480610790575061078f8561078a6116b1565b611409565b5b6107cf576040517f08c379a00000000000000000000000000000000000000000000000000000000081526004016107c690613795565b60405180910390fd5b6107dc85858585856116b9565b5050505050565b60035481565b60016107f633600061044c565b14610836576040517f08c379a000000000000000000000000000000000000000000000000000000000815260040161082d90613697565b60405180910390fd5b600660009054906101000a900460ff16610885576040517f08c379a000000000000000000000000000000000000000000000000000000000815260040161087c90613703565b60405180910390fd5b8073ffffffffffffffffffffffffffffffffffffffff166108fc479081150290604051600060405180830381858888f193505050501580156108cb573d6000803e3d6000fd5b5050565b60608151835114610915576040517f08c379a000000000000000000000000000000000000000000000000000000000815260040161090c90613827565b60405180910390fd5b6000835167ffffffffffffffff81111561093257610931612a9b565b5b6040519080825280602002602001820160405280156109605781602001602082028036833780820191505090505b50905060005b84518110156109dd576109ad85828151811061098557610984613847565b5b60200260200101518583815181106109a05761099f613847565b5b602002602001015161044c565b8282815181106109c0576109bf613847565b5b602002602001018181525050806109d6906138a5565b9050610966565b508091505092915050565b60016109f533600061044c565b14610a35576040517f08c379a0000000000000000000000000000000000000000000000000000000008152600401610a2c90613697565b60405180910390fd5b600660009054906101000a900460ff16610a84576040517f08c379a0000000000000000000000000000000000000000000000000000000008152600401610a7b90613703565b60405180910390fd5b8060049080519060200190610a9a929190612655565b5050565b6000610aaa60056119cd565b905090565b6001610abc33600061044c565b14610afc576040517f08c379a0000000000000000000000000000000000000000000000000000000008152600401610af390613697565b60405180910390fd5b600660009054906101000a900460ff16610b4b576040517f08c379a0000000000000000000000000000000000000000000000000000000008152600401610b4290613703565b60405180910390fd5b818190508484905014610b93576040517f08c379a0000000000000000000000000000000000000000000000000000000008152600401610b8a9061393a565b60405180910390fd5b60005b84849050811015610d7f57610bab60056119cd565b858583818110610bbe57610bbd613847565b5b9050602002013514610c05576040517f08c379a0000000000000000000000000000000000000000000000000000000008152600401610bfc906139a6565b60405180910390fd5b600060076000878785818110610c1e57610c1d613847565b5b9050602002013581526020019081526020016000208054610c3e90613619565b80601f0160208091040260200160405190810160405280929190818152602001828054610c6a90613619565b8015610cb75780601f10610c8c57610100808354040283529160200191610cb7565b820191906000526020600020905b815481529060010190602001808311610c9a57829003601f168201915b505050505090506000815114610d02576040517f08c379a0000000000000000000000000000000000000000000000000000000008152600401610cf990613a12565b60405180910390fd5b610d0c600561160e565b838383818110610d1f57610d1e613847565b5b9050602002810190610d319190613a41565b60076000898987818110610d4857610d47613847565b5b9050602002013581526020019081526020016000209190610d6a9291906126db565b50508080610d77906138a5565b915050610b96565b5050505050565b610d98610d916116b1565b83836119db565b5050565b60048054610da990613619565b80601f0160208091040260200160405190810160405280929190818152602001828054610dd590613619565b8015610e225780601f10610df757610100808354040283529160200191610e22565b820191906000526020600020905b815481529060010190602001808311610e0557829003601f168201915b505050505081565b6001610e3733600061044c565b14610e77576040517f08c379a0000000000000000000000000000000000000000000000000000000008152600401610e6e90613697565b60405180910390fd5b600660009054906101000a900460ff16610ec6576040517f08c379a0000000000000000000000000000000000000000000000000000000008152600401610ebd90613703565b60405180910390fd5b610ed060056119cd565b8214610edb57600080fd5b6000600760008481526020019081526020016000208054610efb90613619565b80601f0160208091040260200160405190810160405280929190818152602001828054610f2790613619565b8015610f745780601f10610f4957610100808354040283529160200191610f74565b820191906000526020600020905b815481529060010190602001808311610f5757829003601f168201915b505050505090506000815114610f8957600080fd5b610f93600561160e565b81600760008581526020019081526020016000209080519060200190610fba929190612655565b50505050565b600660009054906101000a900460ff1661100f576040517f08c379a000000000000000000000000000000000000000000000000000000000815260040161100690613703565b60405180910390fd5b898990508888905014801561102957508585905088889050145b61103257600080fd5b6000808b8b905067ffffffffffffffff81111561105257611051612a9b565b5b6040519080825280602002602001820160405280156110805781602001602082028036833780820191505090505b50905060005b8c8c905081101561127e578888828181106110a4576110a3613847565b5b905060200201358b8b838181106110be576110bd613847565b5b905060200201356040516020016110d6929190613ac5565b604051602081830303815290604052805190602001208282815181106110ff576110fe613847565b5b6020026020010181815250508c8c8281811061111e5761111d613847565b5b905060200201358b8b8381811061113857611137613847565b5b905060200201356111499190613af1565b836111549190613b4b565b9250600089898381811061116b5761116a613847565b5b90506020020135141561117d57600080fd5b60008d8d8381811061119257611191613847565b5b90506020020135116111a357600080fd5b6000600760008b8b858181106111bc576111bb613847565b5b90506020020135815260200190815260200160002080546111dc90613619565b80601f016020809104026020016040519081016040528092919081815260200182805461120890613619565b80156112555780601f1061122a57610100808354040283529160200191611255565b820191906000526020600020905b81548152906001019060200180831161123857829003601f168201915b50505050509050600081511161126a57600080fd5b508080611276906138a5565b915050611086565b5073__$7b197934c90dcfa0b899e535ea3e07532e$__6327c9009d60035483898989896040518763ffffffff1660e01b81526004016112c296959493929190613d92565b60206040518083038186803b1580156112da57600080fd5b505af41580156112ee573d6000803e3d6000fd5b505050506040513d601f19601f820116820180604052508101906113129190613e05565b611351576040517f08c379a000000000000000000000000000000000000000000000000000000000815260040161134890613e7e565b60405180910390fd5b8134101561135e57600080fd5b6113fb33898980806020026020016040519081016040528093929190818152602001838360200280828437600081840152601f19601f820116905080830192505050505050508e8e80806020026020016040519081016040528093929190818152602001838360200280828437600081840152601f19601f8201169050808301925050505050505060405180602001604052806000815250611b48565b505050505050505050505050565b6000600160008473ffffffffffffffffffffffffffffffffffffffff1673ffffffffffffffffffffffffffffffffffffffff16815260200190815260200160002060008373ffffffffffffffffffffffffffffffffffffffff1673ffffffffffffffffffffffffffffffffffffffff16815260200190815260200160002060009054906101000a900460ff16905092915050565b6114a56116b1565b73ffffffffffffffffffffffffffffffffffffffff168573ffffffffffffffffffffffffffffffffffffffff1614806114eb57506114ea856114e56116b1565b611409565b5b61152a576040517f08c379a000000000000000000000000000000000000000000000000000000000815260040161152190613f10565b60405180910390fd5b6115378585858585611d66565b5050505050565b600161154b33600061044c565b1461158b576040517f08c379a000000000000000000000000000000000000000000000000000000000815260040161158290613697565b60405180910390fd5b600660009054906101000a900460ff166115da576040517f08c379a00000000000000000000000000000000000000000000000000000000081526004016115d190613703565b60405180910390fd5b6115e3816107e9565b6115f03360006001611fe8565b6000600660006101000a81548160ff02191690831515021790555050565b6001816000016000828254019250508190555050565b6000808273ffffffffffffffffffffffffffffffffffffffff163b119050919050565b60007f01ffc9a7000000000000000000000000000000000000000000000000000000007bffffffffffffffffffffffffffffffffffffffffffffffffffffffff1916827bffffffffffffffffffffffffffffffffffffffffffffffffffffffff1916149050919050565b600033905090565b81518351146116fd576040517f08c379a00000000000000000000000000000000000000000000000000000000081526004016116f490613fa2565b60405180910390fd5b600073ffffffffffffffffffffffffffffffffffffffff168473ffffffffffffffffffffffffffffffffffffffff16141561176d576040517f08c379a000000000000000000000000000000000000000000000000000000000815260040161176490614034565b60405180910390fd5b60006117776116b1565b9050611787818787878787612205565b60005b84518110156119385760008582815181106117a8576117a7613847565b5b6020026020010151905060008583815181106117c7576117c6613847565b5b60200260200101519050600080600084815260200190815260200160002060008b73ffffffffffffffffffffffffffffffffffffffff1673ffffffffffffffffffffffffffffffffffffffff16815260200190815260200160002054905081811015611868576040517f08c379a000000000000000000000000000000000000000000000000000000000815260040161185f906140c6565b60405180910390fd5b81810360008085815260200190815260200160002060008c73ffffffffffffffffffffffffffffffffffffffff1673ffffffffffffffffffffffffffffffffffffffff168152602001908152602001600020819055508160008085815260200190815260200160002060008b73ffffffffffffffffffffffffffffffffffffffff1673ffffffffffffffffffffffffffffffffffffffff168152602001908152602001600020600082825461191d9190613b4b565b9250508190555050505080611931906138a5565b905061178a565b508473ffffffffffffffffffffffffffffffffffffffff168673ffffffffffffffffffffffffffffffffffffffff168273ffffffffffffffffffffffffffffffffffffffff167f4a39dc06d4c0dbc64b70af90fd698a233a518aa5d07e595d983b8c0526c8f7fb87876040516119af9291906140e6565b60405180910390a46119c581878787878761220d565b505050505050565b600081600001549050919050565b8173ffffffffffffffffffffffffffffffffffffffff168373ffffffffffffffffffffffffffffffffffffffff161415611a4a576040517f08c379a0000000000000000000000000000000000000000000000000000000008152600401611a419061418f565b60405180910390fd5b80600160008573ffffffffffffffffffffffffffffffffffffffff1673ffffffffffffffffffffffffffffffffffffffff16815260200190815260200160002060008473ffffffffffffffffffffffffffffffffffffffff1673ffffffffffffffffffffffffffffffffffffffff16815260200190815260200160002060006101000a81548160ff0219169083151502179055508173ffffffffffffffffffffffffffffffffffffffff168373ffffffffffffffffffffffffffffffffffffffff167f17307eab39ab6107e8899845ad3d59bd9653f200f220920489ca2b5937696c3183604051611b3b9190612930565b60405180910390a3505050565b600073ffffffffffffffffffffffffffffffffffffffff168473ffffffffffffffffffffffffffffffffffffffff161415611bb8576040517f08c379a0000000000000000000000000000000000000000000000000000000008152600401611baf90614221565b60405180910390fd5b8151835114611bfc576040517f08c379a0000000000000000000000000000000000000000000000000000000008152600401611bf390613fa2565b60405180910390fd5b6000611c066116b1565b9050611c1781600087878787612205565b60005b8451811015611cd057838181518110611c3657611c35613847565b5b6020026020010151600080878481518110611c5457611c53613847565b5b6020026020010151815260200190815260200160002060008873ffffffffffffffffffffffffffffffffffffffff1673ffffffffffffffffffffffffffffffffffffffff1681526020019081526020016000206000828254611cb69190613b4b565b925050819055508080611cc8906138a5565b915050611c1a565b508473ffffffffffffffffffffffffffffffffffffffff16600073ffffffffffffffffffffffffffffffffffffffff168273ffffffffffffffffffffffffffffffffffffffff167f4a39dc06d4c0dbc64b70af90fd698a233a518aa5d07e595d983b8c0526c8f7fb8787604051611d489291906140e6565b60405180910390a4611d5f8160008787878761220d565b5050505050565b600073ffffffffffffffffffffffffffffffffffffffff168473ffffffffffffffffffffffffffffffffffffffff161415611dd6576040517f08c379a0000000000000000000000000000000000000000000000000000000008152600401611dcd90614034565b60405180910390fd5b6000611de06116b1565b9050611e00818787611df1886123f4565b611dfa886123f4565b87612205565b600080600086815260200190815260200160002060008873ffffffffffffffffffffffffffffffffffffffff1673ffffffffffffffffffffffffffffffffffffffff16815260200190815260200160002054905083811015611e97576040517f08c379a0000000000000000000000000000000000000000000000000000000008152600401611e8e906140c6565b60405180910390fd5b83810360008087815260200190815260200160002060008973ffffffffffffffffffffffffffffffffffffffff1673ffffffffffffffffffffffffffffffffffffffff168152602001908152602001600020819055508360008087815260200190815260200160002060008873ffffffffffffffffffffffffffffffffffffffff1673ffffffffffffffffffffffffffffffffffffffff1681526020019081526020016000206000828254611f4c9190613b4b565b925050819055508573ffffffffffffffffffffffffffffffffffffffff168773ffffffffffffffffffffffffffffffffffffffff168373ffffffffffffffffffffffffffffffffffffffff167fc3d58168c5ae7397731d063d5bbf3d657854427343f4c083240f7aacaa2d0f628888604051611fc9929190614241565b60405180910390a4611fdf82888888888861246e565b50505050505050565b600073ffffffffffffffffffffffffffffffffffffffff168373ffffffffffffffffffffffffffffffffffffffff161415612058576040517f08c379a000000000000000000000000000000000000000000000000000000000815260040161204f906142dc565b60405180910390fd5b60006120626116b1565b905061209281856000612074876123f4565b61207d876123f4565b60405180602001604052806000815250612205565b600080600085815260200190815260200160002060008673ffffffffffffffffffffffffffffffffffffffff1673ffffffffffffffffffffffffffffffffffffffff16815260200190815260200160002054905082811015612129576040517f08c379a00000000000000000000000000000000000000000000000000000000081526004016121209061436e565b60405180910390fd5b82810360008086815260200190815260200160002060008773ffffffffffffffffffffffffffffffffffffffff1673ffffffffffffffffffffffffffffffffffffffff16815260200190815260200160002081905550600073ffffffffffffffffffffffffffffffffffffffff168573ffffffffffffffffffffffffffffffffffffffff168373ffffffffffffffffffffffffffffffffffffffff167fc3d58168c5ae7397731d063d5bbf3d657854427343f4c083240f7aacaa2d0f6287876040516121f6929190614241565b60405180910390a45050505050565b505050505050565b61222c8473ffffffffffffffffffffffffffffffffffffffff16611624565b156123ec578373ffffffffffffffffffffffffffffffffffffffff1663bc197c8187878686866040518663ffffffff1660e01b81526004016122729594939291906143f2565b602060405180830381600087803b15801561228c57600080fd5b505af19250505080156122bd57506040513d601f19601f820116820180604052508101906122ba919061446f565b60015b612363576122c96144a9565b806308c379a0141561232657506122de6144cb565b806122e95750612328565b806040517f08c379a000000000000000000000000000000000000000000000000000000000815260040161231d9190612a11565b60405180910390fd5b505b6040517f08c379a000000000000000000000000000000000000000000000000000000000815260040161235a906145d3565b60405180910390fd5b63bc197c8160e01b7bffffffffffffffffffffffffffffffffffffffffffffffffffffffff1916817bffffffffffffffffffffffffffffffffffffffffffffffffffffffff1916146123ea576040517f08c379a00000000000000000000000000000000000000000000000000000000081526004016123e190614665565b60405180910390fd5b505b505050505050565b60606000600167ffffffffffffffff81111561241357612412612a9b565b5b6040519080825280602002602001820160405280156124415781602001602082028036833780820191505090505b509050828160008151811061245957612458613847565b5b60200260200101818152505080915050919050565b61248d8473ffffffffffffffffffffffffffffffffffffffff16611624565b1561264d578373ffffffffffffffffffffffffffffffffffffffff1663f23a6e6187878686866040518663ffffffff1660e01b81526004016124d3959493929190614685565b602060405180830381600087803b1580156124ed57600080fd5b505af192505050801561251e57506040513d601f19601f8201168201806040525081019061251b919061446f565b60015b6125c45761252a6144a9565b806308c379a01415612587575061253f6144cb565b8061254a5750612589565b806040517f08c379a000000000000000000000000000000000000000000000000000000000815260040161257e9190612a11565b60405180910390fd5b505b6040517f08c379a00000000000000000000000000000000000000000000000000000000081526004016125bb906145d3565b60405180910390fd5b63f23a6e6160e01b7bffffffffffffffffffffffffffffffffffffffffffffffffffffffff1916817bffffffffffffffffffffffffffffffffffffffffffffffffffffffff19161461264b576040517f08c379a000000000000000000000000000000000000000000000000000000000815260040161264290614665565b60405180910390fd5b505b505050505050565b82805461266190613619565b90600052602060002090601f01602090048101928261268357600085556126ca565b82601f1061269c57805160ff19168380011785556126ca565b828001600101855582156126ca579182015b828111156126c95782518255916020019190600101906126ae565b5b5090506126d79190612761565b5090565b8280546126e790613619565b90600052602060002090601f0160209004810192826127095760008555612750565b82601f1061272257803560ff1916838001178555612750565b82800160010185558215612750579182015b8281111561274f578235825591602001919060010190612734565b5b50905061275d9190612761565b5090565b5b8082111561277a576000816000905550600101612762565b5090565b6000604051905090565b600080fd5b600080fd5b600073ffffffffffffffffffffffffffffffffffffffff82169050919050565b60006127bd82612792565b9050919050565b6127cd816127b2565b81146127d857600080fd5b50565b6000813590506127ea816127c4565b92915050565b6000819050919050565b612803816127f0565b811461280e57600080fd5b50565b600081359050612820816127fa565b92915050565b6000806040838503121561283d5761283c612788565b5b600061284b858286016127db565b925050602061285c85828601612811565b9150509250929050565b61286f816127f0565b82525050565b600060208201905061288a6000830184612866565b92915050565b60007fffffffff0000000000000000000000000000000000000000000000000000000082169050919050565b6128c581612890565b81146128d057600080fd5b50565b6000813590506128e2816128bc565b92915050565b6000602082840312156128fe576128fd612788565b5b600061290c848285016128d3565b91505092915050565b60008115159050919050565b61292a81612915565b82525050565b60006020820190506129456000830184612921565b92915050565b60006020828403121561296157612960612788565b5b600061296f84828501612811565b91505092915050565b600081519050919050565b600082825260208201905092915050565b60005b838110156129b2578082015181840152602081019050612997565b838111156129c1576000848401525b50505050565b6000601f19601f8301169050919050565b60006129e382612978565b6129ed8185612983565b93506129fd818560208601612994565b612a06816129c7565b840191505092915050565b60006020820190508181036000830152612a2b81846129d8565b905092915050565b6000819050919050565b612a4681612a33565b8114612a5157600080fd5b50565b600081359050612a6381612a3d565b92915050565b600060208284031215612a7f57612a7e612788565b5b6000612a8d84828501612a54565b91505092915050565b600080fd5b7f4e487b7100000000000000000000000000000000000000000000000000000000600052604160045260246000fd5b612ad3826129c7565b810181811067ffffffffffffffff82111715612af257612af1612a9b565b5b80604052505050565b6000612b0561277e565b9050612b118282612aca565b919050565b600067ffffffffffffffff821115612b3157612b30612a9b565b5b602082029050602081019050919050565b600080fd5b6000612b5a612b5584612b16565b612afb565b90508083825260208201905060208402830185811115612b7d57612b7c612b42565b5b835b81811015612ba65780612b928882612811565b845260208401935050602081019050612b7f565b5050509392505050565b600082601f830112612bc557612bc4612a96565b5b8135612bd5848260208601612b47565b91505092915050565b600080fd5b600067ffffffffffffffff821115612bfe57612bfd612a9b565b5b612c07826129c7565b9050602081019050919050565b82818337600083830152505050565b6000612c36612c3184612be3565b612afb565b905082815260208101848484011115612c5257612c51612bde565b5b612c5d848285612c14565b509392505050565b600082601f830112612c7a57612c79612a96565b5b8135612c8a848260208601612c23565b91505092915050565b600080600080600060a08688031215612caf57612cae612788565b5b6000612cbd888289016127db565b9550506020612cce888289016127db565b945050604086013567ffffffffffffffff811115612cef57612cee61278d565b5b612cfb88828901612bb0565b935050606086013567ffffffffffffffff811115612d1c57612d1b61278d565b5b612d2888828901612bb0565b925050608086013567ffffffffffffffff811115612d4957612d4861278d565b5b612d5588828901612c65565b9150509295509295909350565b612d6b81612a33565b82525050565b6000602082019050612d866000830184612d62565b92915050565b600060208284031215612da257612da1612788565b5b6000612db0848285016127db565b91505092915050565b600067ffffffffffffffff821115612dd457612dd3612a9b565b5b602082029050602081019050919050565b6000612df8612df384612db9565b612afb565b90508083825260208201905060208402830185811115612e1b57612e1a612b42565b5b835b81811015612e445780612e3088826127db565b845260208401935050602081019050612e1d565b5050509392505050565b600082601f830112612e6357612e62612a96565b5b8135612e73848260208601612de5565b91505092915050565b60008060408385031215612e9357612e92612788565b5b600083013567ffffffffffffffff811115612eb157612eb061278d565b5b612ebd85828601612e4e565b925050602083013567ffffffffffffffff811115612ede57612edd61278d565b5b612eea85828601612bb0565b9150509250929050565b600081519050919050565b600082825260208201905092915050565b6000819050602082019050919050565b612f29816127f0565b82525050565b6000612f3b8383612f20565b60208301905092915050565b6000602082019050919050565b6000612f5f82612ef4565b612f698185612eff565b9350612f7483612f10565b8060005b83811015612fa5578151612f8c8882612f2f565b9750612f9783612f47565b925050600181019050612f78565b5085935050505092915050565b60006020820190508181036000830152612fcc8184612f54565b905092915050565b600067ffffffffffffffff821115612fef57612fee612a9b565b5b612ff8826129c7565b9050602081019050919050565b600061301861301384612fd4565b612afb565b90508281526020810184848401111561303457613033612bde565b5b61303f848285612c14565b509392505050565b600082601f83011261305c5761305b612a96565b5b813561306c848260208601613005565b91505092915050565b60006020828403121561308b5761308a612788565b5b600082013567ffffffffffffffff8111156130a9576130a861278d565b5b6130b584828501613047565b91505092915050565b600080fd5b60008083601f8401126130d9576130d8612a96565b5b8235905067ffffffffffffffff8111156130f6576130f56130be565b5b60208301915083602082028301111561311257613111612b42565b5b9250929050565b60008083601f84011261312f5761312e612a96565b5b8235905067ffffffffffffffff81111561314c5761314b6130be565b5b60208301915083602082028301111561316857613167612b42565b5b9250929050565b6000806000806040858703121561318957613188612788565b5b600085013567ffffffffffffffff8111156131a7576131a661278d565b5b6131b3878288016130c3565b9450945050602085013567ffffffffffffffff8111156131d6576131d561278d565b5b6131e287828801613119565b925092505092959194509250565b6131f981612915565b811461320457600080fd5b50565b600081359050613216816131f0565b92915050565b6000806040838503121561323357613232612788565b5b6000613241858286016127db565b925050602061325285828601613207565b9150509250929050565b6000806040838503121561327357613272612788565b5b600061328185828601612811565b925050602083013567ffffffffffffffff8111156132a2576132a161278d565b5b6132ae85828601613047565b9150509250929050565b60008083601f8401126132ce576132cd612a96565b5b8235905067ffffffffffffffff8111156132eb576132ea6130be565b5b60208301915083602082028301111561330757613306612b42565b5b9250929050565b60008083601f84011261332457613323612a96565b5b8235905067ffffffffffffffff811115613341576133406130be565b5b60208301915083602082028301111561335d5761335c612b42565b5b9250929050565b60008060008060008060008060008060a08b8d03121561338757613386612788565b5b60008b013567ffffffffffffffff8111156133a5576133a461278d565b5b6133b18d828e016130c3565b9a509a505060208b013567ffffffffffffffff8111156133d4576133d361278d565b5b6133e08d828e016130c3565b985098505060408b013567ffffffffffffffff8111156134035761340261278d565b5b61340f8d828e016130c3565b965096505060608b013567ffffffffffffffff8111156134325761343161278d565b5b61343e8d828e016132b8565b945094505060808b013567ffffffffffffffff8111156134615761346061278d565b5b61346d8d828e0161330e565b92509250509295989b9194979a5092959850565b6000806040838503121561349857613497612788565b5b60006134a6858286016127db565b92505060206134b7858286016127db565b9150509250929050565b600080600080600060a086880312156134dd576134dc612788565b5b60006134eb888289016127db565b95505060206134fc888289016127db565b945050604061350d88828901612811565b935050606061351e88828901612811565b925050608086013567ffffffffffffffff81111561353f5761353e61278d565b5b61354b88828901612c65565b9150509295509295909350565b7f455243313135353a2062616c616e636520717565727920666f7220746865207a60008201527f65726f2061646472657373000000000000000000000000000000000000000000602082015250565b60006135b4602b83612983565b91506135bf82613558565b604082019050919050565b600060208201905081810360008301526135e3816135a7565b9050919050565b7f4e487b7100000000000000000000000000000000000000000000000000000000600052602260045260246000fd5b6000600282049050600182168061363157607f821691505b60208210811415613645576136446135ea565b5b50919050565b7f6e6f74206f776e65720000000000000000000000000000000000000000000000600082015250565b6000613681600983612983565b915061368c8261364b565b602082019050919050565b600060208201905081810360008301526136b081613674565b9050919050565b7f73686f7020636c6f736564000000000000000000000000000000000000000000600082015250565b60006136ed600b83612983565b91506136f8826136b7565b602082019050919050565b6000602082019050818103600083015261371c816136e0565b9050919050565b7f455243313135353a207472616e736665722063616c6c6572206973206e6f742060008201527f6f776e6572206e6f7220617070726f7665640000000000000000000000000000602082015250565b600061377f603283612983565b915061378a82613723565b604082019050919050565b600060208201905081810360008301526137ae81613772565b9050919050565b7f455243313135353a206163636f756e747320616e6420696473206c656e67746860008201527f206d69736d617463680000000000000000000000000000000000000000000000602082015250565b6000613811602983612983565b915061381c826137b5565b604082019050919050565b6000602082019050818103600083015261384081613804565b9050919050565b7f4e487b7100000000000000000000000000000000000000000000000000000000600052603260045260246000fd5b7f4e487b7100000000000000000000000000000000000000000000000000000000600052601160045260246000fd5b60006138b0826127f0565b91507fffffffffffffffffffffffffffffffffffffffffffffffffffffffffffffffff8214156138e3576138e2613876565b5b600182019050919050565b7f756e657175616c206c656e677468000000000000000000000000000000000000600082015250565b6000613924600e83612983565b915061392f826138ee565b602082019050919050565b6000602082019050818103600083015261395381613917565b9050919050565b7f6964206d69736d61746368000000000000000000000000000000000000000000600082015250565b6000613990600b83612983565b915061399b8261395a565b602082019050919050565b600060208201905081810360008301526139bf81613983565b9050919050565b7f75726920656d7074790000000000000000000000000000000000000000000000600082015250565b60006139fc600983612983565b9150613a07826139c6565b602082019050919050565b60006020820190508181036000830152613a2b816139ef565b9050919050565b600080fd5b600080fd5b600080fd5b60008083356001602003843603038112613a5e57613a5d613a32565b5b80840192508235915067ffffffffffffffff821115613a8057613a7f613a37565b5b602083019250600182023603831315613a9c57613a9b613a3c565b5b509250929050565b6000819050919050565b613abf613aba826127f0565b613aa4565b82525050565b6000613ad18285613aae565b602082019150613ae18284613aae565b6020820191508190509392505050565b6000613afc826127f0565b9150613b07836127f0565b9250817fffffffffffffffffffffffffffffffffffffffffffffffffffffffffffffffff0483118215151615613b4057613b3f613876565b5b828202905092915050565b6000613b56826127f0565b9150613b61836127f0565b9250827fffffffffffffffffffffffffffffffffffffffffffffffffffffffffffffffff03821115613b9657613b95613876565b5b828201905092915050565b613baa81612a33565b82525050565b600081519050919050565b600082825260208201905092915050565b6000819050602082019050919050565b613be581612a33565b82525050565b6000613bf78383613bdc565b60208301905092915050565b6000602082019050919050565b6000613c1b82613bb0565b613c258185613bbb565b9350613c3083613bcc565b8060005b83811015613c61578151613c488882613beb565b9750613c5383613c03565b925050600181019050613c34565b5085935050505092915050565b600080fd5b6000613c7f8385613bbb565b93507f07ffffffffffffffffffffffffffffffffffffffffffffffffffffffffffffff831115613cb257613cb1613c6e565b5b602083029250613cc3838584612c14565b82840190509392505050565b600082825260208201905092915050565b6000819050919050565b613cf381612915565b82525050565b6000613d058383613cea565b60208301905092915050565b6000613d206020840184613207565b905092915050565b6000602082019050919050565b6000613d418385613ccf565b9350613d4c82613ce0565b8060005b85811015613d8557613d628284613d11565b613d6c8882613cf9565b9750613d7783613d28565b925050600181019050613d50565b5085925050509392505050565b6000608082019050613da76000830189613ba1565b8181036020830152613db98188613c10565b90508181036040830152613dce818688613c73565b90508181036060830152613de3818486613d35565b9050979650505050505050565b600081519050613dff816131f0565b92915050565b600060208284031215613e1b57613e1a612788565b5b6000613e2984828501613df0565b91505092915050565b7f70726f6f66000000000000000000000000000000000000000000000000000000600082015250565b6000613e68600583612983565b9150613e7382613e32565b602082019050919050565b60006020820190508181036000830152613e9781613e5b565b9050919050565b7f455243313135353a2063616c6c6572206973206e6f74206f776e6572206e6f7260008201527f20617070726f7665640000000000000000000000000000000000000000000000602082015250565b6000613efa602983612983565b9150613f0582613e9e565b604082019050919050565b60006020820190508181036000830152613f2981613eed565b9050919050565b7f455243313135353a2069647320616e6420616d6f756e7473206c656e6774682060008201527f6d69736d61746368000000000000000000000000000000000000000000000000602082015250565b6000613f8c602883612983565b9150613f9782613f30565b604082019050919050565b60006020820190508181036000830152613fbb81613f7f565b9050919050565b7f455243313135353a207472616e7366657220746f20746865207a65726f20616460008201527f6472657373000000000000000000000000000000000000000000000000000000602082015250565b600061401e602583612983565b915061402982613fc2565b604082019050919050565b6000602082019050818103600083015261404d81614011565b9050919050565b7f455243313135353a20696e73756666696369656e742062616c616e636520666f60008201527f72207472616e7366657200000000000000000000000000000000000000000000602082015250565b60006140b0602a83612983565b91506140bb82614054565b604082019050919050565b600060208201905081810360008301526140df816140a3565b9050919050565b600060408201905081810360008301526141008185612f54565b905081810360208301526141148184612f54565b90509392505050565b7f455243313135353a2073657474696e6720617070726f76616c2073746174757360008201527f20666f722073656c660000000000000000000000000000000000000000000000602082015250565b6000614179602983612983565b91506141848261411d565b604082019050919050565b600060208201905081810360008301526141a88161416c565b9050919050565b7f455243313135353a206d696e7420746f20746865207a65726f2061646472657360008201527f7300000000000000000000000000000000000000000000000000000000000000602082015250565b600061420b602183612983565b9150614216826141af565b604082019050919050565b6000602082019050818103600083015261423a816141fe565b9050919050565b60006040820190506142566000830185612866565b6142636020830184612866565b9392505050565b7f455243313135353a206275726e2066726f6d20746865207a65726f206164647260008201527f6573730000000000000000000000000000000000000000000000000000000000602082015250565b60006142c6602383612983565b91506142d18261426a565b604082019050919050565b600060208201905081810360008301526142f5816142b9565b9050919050565b7f455243313135353a206275726e20616d6f756e7420657863656564732062616c60008201527f616e636500000000000000000000000000000000000000000000000000000000602082015250565b6000614358602483612983565b9150614363826142fc565b604082019050919050565b600060208201905081810360008301526143878161434b565b9050919050565b614397816127b2565b82525050565b600081519050919050565b600082825260208201905092915050565b60006143c48261439d565b6143ce81856143a8565b93506143de818560208601612994565b6143e7816129c7565b840191505092915050565b600060a082019050614407600083018861438e565b614414602083018761438e565b81810360408301526144268186612f54565b9050818103606083015261443a8185612f54565b9050818103608083015261444e81846143b9565b90509695505050505050565b600081519050614469816128bc565b92915050565b60006020828403121561448557614484612788565b5b60006144938482850161445a565b91505092915050565b60008160e01c9050919050565b600060033d11156144c85760046000803e6144c560005161449c565b90505b90565b600060443d10156144db5761455e565b6144e361277e565b60043d036004823e80513d602482011167ffffffffffffffff8211171561450b57505061455e565b808201805167ffffffffffffffff811115614529575050505061455e565b80602083010160043d03850181111561454657505050505061455e565b61455582602001850186612aca565b82955050505050505b90565b7f455243313135353a207472616e7366657220746f206e6f6e204552433131353560008201527f526563656976657220696d706c656d656e746572000000000000000000000000602082015250565b60006145bd603483612983565b91506145c882614561565b604082019050919050565b600060208201905081810360008301526145ec816145b0565b9050919050565b7f455243313135353a204552433131353552656365697665722072656a6563746560008201527f6420746f6b656e73000000000000000000000000000000000000000000000000602082015250565b600061464f602883612983565b915061465a826145f3565b604082019050919050565b6000602082019050818103600083015261467e81614642565b9050919050565b600060a08201905061469a600083018861438e565b6146a7602083018761438e565b6146b46040830186612866565b6146c16060830185612866565b81810360808301526146d381846143b9565b9050969550505050505056fea26469706673582212209a20c956340094fbe7f633d80ae072f6aef80d7a3d7a75149bde9336f554f38064736f6c63430008090033a2646970667358221220f43a2d374ce07ea8a635b47735792bdcf50d20be11a21895fa2d9fcec771a53a64736f6c63430008090033",
  "libraries": {
    "MerkleMultiProof": "0xf6A7028cc183b38e3c615B5Aa0731012DA09Bdd3"
  },
  "devdoc": {
    "kind": "dev",
    "methods": {},
    "version": 1
  },
  "userdoc": {
    "kind": "user",
    "methods": {},
    "version": 1
  },
  "storageLayout": {
    "storage": [],
    "types": null
  }
}